{
	"contracts/SavvatoERC20.sol": {
		"SavvatoERC20": {
			"abi": [
				{
					"inputs": [
						{
							"internalType": "string",
							"name": "name_",
							"type": "string"
						},
						{
							"internalType": "string",
							"name": "symbol_",
							"type": "string"
						}
					],
					"stateMutability": "payable",
					"type": "constructor"
				},
				{
					"anonymous": false,
					"inputs": [
						{
							"indexed": true,
							"internalType": "address",
							"name": "owner",
							"type": "address"
						},
						{
							"indexed": true,
							"internalType": "address",
							"name": "spender",
							"type": "address"
						},
						{
							"indexed": false,
							"internalType": "uint256",
							"name": "value",
							"type": "uint256"
						}
					],
					"name": "Approval",
					"type": "event"
				},
				{
					"anonymous": false,
					"inputs": [
						{
							"indexed": true,
							"internalType": "address",
							"name": "from",
							"type": "address"
						},
						{
							"indexed": true,
							"internalType": "address",
							"name": "to",
							"type": "address"
						},
						{
							"indexed": false,
							"internalType": "uint256",
							"name": "value",
							"type": "uint256"
						}
					],
					"name": "Transfer",
					"type": "event"
				},
				{
					"anonymous": false,
					"inputs": [
						{
							"indexed": true,
							"internalType": "address",
							"name": "addr",
							"type": "address"
						},
						{
							"indexed": false,
							"internalType": "uint256",
							"name": "newAmount",
							"type": "uint256"
						}
					],
					"name": "memberBalanceChanged",
					"type": "event"
				},
				{
					"inputs": [
						{
							"internalType": "address",
							"name": "owner",
							"type": "address"
						},
						{
							"internalType": "address",
							"name": "spender",
							"type": "address"
						}
					],
					"name": "allowance",
					"outputs": [
						{
							"internalType": "uint256",
							"name": "",
							"type": "uint256"
						}
					],
					"stateMutability": "view",
					"type": "function"
				},
				{
					"inputs": [
						{
							"internalType": "address",
							"name": "spender",
							"type": "address"
						},
						{
							"internalType": "uint256",
							"name": "amount",
							"type": "uint256"
						}
					],
					"name": "approve",
					"outputs": [
						{
							"internalType": "bool",
							"name": "",
							"type": "bool"
						}
					],
					"stateMutability": "nonpayable",
					"type": "function"
				},
				{
					"inputs": [
						{
							"internalType": "address",
							"name": "account",
							"type": "address"
						}
					],
					"name": "balanceOf",
					"outputs": [
						{
							"internalType": "uint256",
							"name": "",
							"type": "uint256"
						}
					],
					"stateMutability": "view",
					"type": "function"
				},
				{
					"inputs": [
						{
							"internalType": "uint256",
							"name": "cashOutAmount",
							"type": "uint256"
						}
					],
					"name": "cashOut",
					"outputs": [
						{
							"internalType": "bool",
							"name": "sufficient",
							"type": "bool"
						}
					],
					"stateMutability": "payable",
					"type": "function"
				},
				{
					"inputs": [],
					"name": "decimals",
					"outputs": [
						{
							"internalType": "uint8",
							"name": "",
							"type": "uint8"
						}
					],
					"stateMutability": "view",
					"type": "function"
				},
				{
					"inputs": [
						{
							"internalType": "address",
							"name": "spender",
							"type": "address"
						},
						{
							"internalType": "uint256",
							"name": "subtractedValue",
							"type": "uint256"
						}
					],
					"name": "decreaseAllowance",
					"outputs": [
						{
							"internalType": "bool",
							"name": "",
							"type": "bool"
						}
					],
					"stateMutability": "nonpayable",
					"type": "function"
				},
				{
					"inputs": [],
					"name": "deployingAddress",
					"outputs": [
						{
							"internalType": "address payable",
							"name": "",
							"type": "address"
						}
					],
					"stateMutability": "view",
					"type": "function"
				},
				{
					"inputs": [
						{
							"internalType": "address",
							"name": "spender",
							"type": "address"
						},
						{
							"internalType": "uint256",
							"name": "addedValue",
							"type": "uint256"
						}
					],
					"name": "increaseAllowance",
					"outputs": [
						{
							"internalType": "bool",
							"name": "",
							"type": "bool"
						}
					],
					"stateMutability": "nonpayable",
					"type": "function"
				},
				{
					"inputs": [
						{
							"internalType": "address",
							"name": "spender",
							"type": "address"
						},
						{
							"internalType": "uint256",
							"name": "amount",
							"type": "uint256"
						}
					],
					"name": "increaseBalance",
					"outputs": [
						{
							"internalType": "bool",
							"name": "sufficient",
							"type": "bool"
						}
					],
					"stateMutability": "nonpayable",
					"type": "function"
				},
				{
					"inputs": [],
					"name": "name",
					"outputs": [
						{
							"internalType": "string",
							"name": "",
							"type": "string"
						}
					],
					"stateMutability": "view",
					"type": "function"
				},
				{
					"inputs": [
						{
							"internalType": "uint256",
							"name": "cashOutAmount",
							"type": "uint256"
						}
					],
					"name": "portion",
					"outputs": [
						{
							"internalType": "uint256",
							"name": "",
							"type": "uint256"
						}
					],
					"stateMutability": "view",
					"type": "function"
				},
				{
					"inputs": [],
					"name": "pot",
					"outputs": [
						{
							"internalType": "uint256",
							"name": "",
							"type": "uint256"
						}
					],
					"stateMutability": "view",
					"type": "function"
				},
				{
					"inputs": [],
					"name": "symbol",
					"outputs": [
						{
							"internalType": "string",
							"name": "",
							"type": "string"
						}
					],
					"stateMutability": "view",
					"type": "function"
				},
				{
					"inputs": [],
					"name": "totalSupply",
					"outputs": [
						{
							"internalType": "uint256",
							"name": "",
							"type": "uint256"
						}
					],
					"stateMutability": "view",
					"type": "function"
				},
				{
					"inputs": [
						{
							"internalType": "address",
							"name": "to",
							"type": "address"
						},
						{
							"internalType": "uint256",
							"name": "amount",
							"type": "uint256"
						}
					],
					"name": "transfer",
					"outputs": [
						{
							"internalType": "bool",
							"name": "",
							"type": "bool"
						}
					],
					"stateMutability": "nonpayable",
					"type": "function"
				},
				{
					"inputs": [
						{
							"internalType": "address",
							"name": "from",
							"type": "address"
						},
						{
							"internalType": "address",
							"name": "to",
							"type": "address"
						},
						{
							"internalType": "uint256",
							"name": "amount",
							"type": "uint256"
						}
					],
					"name": "transferFrom",
					"outputs": [
						{
							"internalType": "bool",
							"name": "",
							"type": "bool"
						}
					],
					"stateMutability": "nonpayable",
					"type": "function"
				},
				{
					"stateMutability": "payable",
					"type": "receive"
				}
			],
			"devdoc": {
				"custom:dev-run-script": ".",
				"details": "SavvatoERC20 Description",
				"kind": "dev",
				"methods": {
					"allowance(address,address)": {
						"details": "See {IERC20-allowance}."
					},
					"approve(address,uint256)": {
						"details": "See {IERC20-approve}. NOTE: If `amount` is the maximum `uint256`, the allowance is not updated on `transferFrom`. This is semantically equivalent to an infinite approval. Requirements: - `spender` cannot be the zero address."
					},
					"balanceOf(address)": {
						"details": "See {IERC20-balanceOf}."
					},
					"decimals()": {
						"details": "Returns the number of decimals used to get its user representation. For example, if `decimals` equals `2`, a balance of `505` tokens should be displayed to a user as `5.05` (`505 / 10 ** 2`). Tokens usually opt for a value of 18, imitating the relationship between Ether and Wei. This is the value {ERC20} uses, unless this function is overridden; NOTE: This information is only used for _display_ purposes: it in no way affects any of the arithmetic of the contract, including {IERC20-balanceOf} and {IERC20-transfer}."
					},
					"decreaseAllowance(address,uint256)": {
						"details": "Atomically decreases the allowance granted to `spender` by the caller. This is an alternative to {approve} that can be used as a mitigation for problems described in {IERC20-approve}. Emits an {Approval} event indicating the updated allowance. Requirements: - `spender` cannot be the zero address. - `spender` must have allowance for the caller of at least `subtractedValue`."
					},
					"increaseAllowance(address,uint256)": {
						"details": "Atomically increases the allowance granted to `spender` by the caller. This is an alternative to {approve} that can be used as a mitigation for problems described in {IERC20-approve}. Emits an {Approval} event indicating the updated allowance. Requirements: - `spender` cannot be the zero address."
					},
					"name()": {
						"details": "Returns the name of the token."
					},
					"symbol()": {
						"details": "Returns the symbol of the token, usually a shorter version of the name."
					},
					"totalSupply()": {
						"details": "See {IERC20-totalSupply}."
					},
					"transfer(address,uint256)": {
						"details": "See {IERC20-transfer}. Requirements: - `to` cannot be the zero address. - the caller must have a balance of at least `amount`."
					},
					"transferFrom(address,address,uint256)": {
						"details": "See {IERC20-transferFrom}. Emits an {Approval} event indicating the updated allowance. This is not required by the EIP. See the note at the beginning of {ERC20}. NOTE: Does not update the allowance if the current allowance is the maximum `uint256`. Requirements: - `from` and `to` cannot be the zero address. - `from` must have a balance of at least `amount`. - the caller must have allowance for ``from``'s tokens of at least `amount`."
					}
				},
				"title": "SavvatoERC20",
				"version": 1
			},
			"evm": {
				"assembly": "    /* \"contracts/SavvatoERC20.sol\":287:1730  contract SavvatoERC20 is ERC20 {... */\n  mstore(0x40, 0x80)\n    /* \"contracts/SavvatoERC20.sol\":445:587  constructor(string memory name_, string memory symbol_) ERC20(name_, symbol_) payable  {... */\n  mload(0x40)\n  sub(codesize, bytecodeSize)\n  dup1\n  bytecodeSize\n  dup4\n  codecopy\n  dup2\n  dup2\n  add\n  0x40\n  mstore\n  dup2\n  add\n  swap1\n  tag_1\n  swap2\n  swap1\n  tag_2\n  jump\t// in\ntag_1:\n    /* \"contracts/SavvatoERC20.sol\":507:512  name_ */\n  dup2\n    /* \"contracts/SavvatoERC20.sol\":514:521  symbol_ */\n  dup2\n    /* \"@openzeppelin/contracts/token/ERC20/ERC20.sol\":2050:2055  name_ */\n  dup2\n    /* \"@openzeppelin/contracts/token/ERC20/ERC20.sol\":2042:2047  _name */\n  0x03\n    /* \"@openzeppelin/contracts/token/ERC20/ERC20.sol\":2042:2055  _name = name_ */\n  swap1\n  dup1\n  mload\n  swap1\n  0x20\n  add\n  swap1\n  tag_6\n  swap3\n  swap2\n  swap1\n  tag_7\n  jump\t// in\ntag_6:\n  pop\n    /* \"@openzeppelin/contracts/token/ERC20/ERC20.sol\":2075:2082  symbol_ */\n  dup1\n    /* \"@openzeppelin/contracts/token/ERC20/ERC20.sol\":2065:2072  _symbol */\n  0x04\n    /* \"@openzeppelin/contracts/token/ERC20/ERC20.sol\":2065:2082  _symbol = symbol_ */\n  swap1\n  dup1\n  mload\n  swap1\n  0x20\n  add\n  swap1\n  tag_8\n  swap3\n  swap2\n  swap1\n  tag_7\n  jump\t// in\ntag_8:\n  pop\n    /* \"@openzeppelin/contracts/token/ERC20/ERC20.sol\":1976:2089  constructor(string memory name_, string memory symbol_) {... */\n  pop\n  pop\n    /* \"contracts/SavvatoERC20.sol\":569:579  msg.sender */\n  caller\n    /* \"contracts/SavvatoERC20.sol\":542:558  deployingAddress */\n  0x05\n  0x00\n    /* \"contracts/SavvatoERC20.sol\":542:580  deployingAddress = payable(msg.sender) */\n  0x0100\n  exp\n  dup2\n  sload\n  dup2\n  0xffffffffffffffffffffffffffffffffffffffff\n  mul\n  not\n  and\n  swap1\n  dup4\n  0xffffffffffffffffffffffffffffffffffffffff\n  and\n  mul\n  or\n  swap1\n  sstore\n  pop\n    /* \"contracts/SavvatoERC20.sol\":445:587  constructor(string memory name_, string memory symbol_) ERC20(name_, symbol_) payable  {... */\n  pop\n  pop\n    /* \"contracts/SavvatoERC20.sol\":287:1730  contract SavvatoERC20 is ERC20 {... */\n  jump(tag_10)\ntag_7:\n  dup3\n  dup1\n  sload\n  tag_11\n  swap1\n  tag_12\n  jump\t// in\ntag_11:\n  swap1\n  0x00\n  mstore\n  keccak256(0x00, 0x20)\n  swap1\n  0x1f\n  add\n  0x20\n  swap1\n  div\n  dup2\n  add\n  swap3\n  dup3\n  tag_14\n  jumpi\n  0x00\n  dup6\n  sstore\n  jump(tag_13)\ntag_14:\n  dup3\n  0x1f\n  lt\n  tag_15\n  jumpi\n  dup1\n  mload\n  not(0xff)\n  and\n  dup4\n  dup1\n  add\n  or\n  dup6\n  sstore\n  jump(tag_13)\ntag_15:\n  dup3\n  dup1\n  add\n  0x01\n  add\n  dup6\n  sstore\n  dup3\n  iszero\n  tag_13\n  jumpi\n  swap2\n  dup3\n  add\ntag_16:\n  dup3\n  dup2\n  gt\n  iszero\n  tag_17\n  jumpi\n  dup3\n  mload\n  dup3\n  sstore\n  swap2\n  0x20\n  add\n  swap2\n  swap1\n  0x01\n  add\n  swap1\n  jump(tag_16)\ntag_17:\ntag_13:\n  pop\n  swap1\n  pop\n  tag_18\n  swap2\n  swap1\n  tag_19\n  jump\t// in\ntag_18:\n  pop\n  swap1\n  jump\t// out\ntag_19:\ntag_20:\n  dup1\n  dup3\n  gt\n  iszero\n  tag_21\n  jumpi\n  0x00\n  dup2\n  0x00\n  swap1\n  sstore\n  pop\n  0x01\n  add\n  jump(tag_20)\ntag_21:\n  pop\n  swap1\n  jump\t// out\n    /* \"#utility.yul\":7:428   */\ntag_23:\n    /* \"#utility.yul\":96:101   */\n  0x00\n    /* \"#utility.yul\":121:187   */\n  tag_25\n    /* \"#utility.yul\":137:186   */\n  tag_26\n    /* \"#utility.yul\":179:185   */\n  dup5\n    /* \"#utility.yul\":137:186   */\n  tag_27\n  jump\t// in\ntag_26:\n    /* \"#utility.yul\":121:187   */\n  tag_28\n  jump\t// in\ntag_25:\n    /* \"#utility.yul\":112:187   */\n  swap1\n  pop\n    /* \"#utility.yul\":210:216   */\n  dup3\n    /* \"#utility.yul\":203:208   */\n  dup2\n    /* \"#utility.yul\":196:217   */\n  mstore\n    /* \"#utility.yul\":248:252   */\n  0x20\n    /* \"#utility.yul\":241:246   */\n  dup2\n    /* \"#utility.yul\":237:253   */\n  add\n    /* \"#utility.yul\":286:289   */\n  dup5\n    /* \"#utility.yul\":277:283   */\n  dup5\n    /* \"#utility.yul\":272:275   */\n  dup5\n    /* \"#utility.yul\":268:284   */\n  add\n    /* \"#utility.yul\":265:290   */\n  gt\n    /* \"#utility.yul\":262:374   */\n  iszero\n  tag_29\n  jumpi\n    /* \"#utility.yul\":293:372   */\n  tag_30\n  tag_31\n  jump\t// in\ntag_30:\n    /* \"#utility.yul\":262:374   */\ntag_29:\n    /* \"#utility.yul\":383:422   */\n  tag_32\n    /* \"#utility.yul\":415:421   */\n  dup5\n    /* \"#utility.yul\":410:413   */\n  dup3\n    /* \"#utility.yul\":405:408   */\n  dup6\n    /* \"#utility.yul\":383:422   */\n  tag_33\n  jump\t// in\ntag_32:\n    /* \"#utility.yul\":102:428   */\n  pop\n    /* \"#utility.yul\":7:428   */\n  swap4\n  swap3\n  pop\n  pop\n  pop\n  jump\t// out\n    /* \"#utility.yul\":448:803   */\ntag_34:\n    /* \"#utility.yul\":515:520   */\n  0x00\n    /* \"#utility.yul\":564:567   */\n  dup3\n    /* \"#utility.yul\":557:561   */\n  0x1f\n    /* \"#utility.yul\":549:555   */\n  dup4\n    /* \"#utility.yul\":545:562   */\n  add\n    /* \"#utility.yul\":541:568   */\n  slt\n    /* \"#utility.yul\":531:653   */\n  tag_36\n  jumpi\n    /* \"#utility.yul\":572:651   */\n  tag_37\n  tag_38\n  jump\t// in\ntag_37:\n    /* \"#utility.yul\":531:653   */\ntag_36:\n    /* \"#utility.yul\":682:688   */\n  dup2\n    /* \"#utility.yul\":676:689   */\n  mload\n    /* \"#utility.yul\":707:797   */\n  tag_39\n    /* \"#utility.yul\":793:796   */\n  dup5\n    /* \"#utility.yul\":785:791   */\n  dup3\n    /* \"#utility.yul\":778:782   */\n  0x20\n    /* \"#utility.yul\":770:776   */\n  dup7\n    /* \"#utility.yul\":766:783   */\n  add\n    /* \"#utility.yul\":707:797   */\n  tag_23\n  jump\t// in\ntag_39:\n    /* \"#utility.yul\":698:797   */\n  swap2\n  pop\n    /* \"#utility.yul\":521:803   */\n  pop\n    /* \"#utility.yul\":448:803   */\n  swap3\n  swap2\n  pop\n  pop\n  jump\t// out\n    /* \"#utility.yul\":809:1662   */\ntag_2:\n    /* \"#utility.yul\":908:914   */\n  0x00\n    /* \"#utility.yul\":916:922   */\n  dup1\n    /* \"#utility.yul\":965:967   */\n  0x40\n    /* \"#utility.yul\":953:962   */\n  dup4\n    /* \"#utility.yul\":944:951   */\n  dup6\n    /* \"#utility.yul\":940:963   */\n  sub\n    /* \"#utility.yul\":936:968   */\n  slt\n    /* \"#utility.yul\":933:1052   */\n  iszero\n  tag_41\n  jumpi\n    /* \"#utility.yul\":971:1050   */\n  tag_42\n  tag_43\n  jump\t// in\ntag_42:\n    /* \"#utility.yul\":933:1052   */\ntag_41:\n    /* \"#utility.yul\":1112:1113   */\n  0x00\n    /* \"#utility.yul\":1101:1110   */\n  dup4\n    /* \"#utility.yul\":1097:1114   */\n  add\n    /* \"#utility.yul\":1091:1115   */\n  mload\n    /* \"#utility.yul\":1142:1160   */\n  0xffffffffffffffff\n    /* \"#utility.yul\":1134:1140   */\n  dup2\n    /* \"#utility.yul\":1131:1161   */\n  gt\n    /* \"#utility.yul\":1128:1245   */\n  iszero\n  tag_44\n  jumpi\n    /* \"#utility.yul\":1164:1243   */\n  tag_45\n  tag_46\n  jump\t// in\ntag_45:\n    /* \"#utility.yul\":1128:1245   */\ntag_44:\n    /* \"#utility.yul\":1269:1343   */\n  tag_47\n    /* \"#utility.yul\":1335:1342   */\n  dup6\n    /* \"#utility.yul\":1326:1332   */\n  dup3\n    /* \"#utility.yul\":1315:1324   */\n  dup7\n    /* \"#utility.yul\":1311:1333   */\n  add\n    /* \"#utility.yul\":1269:1343   */\n  tag_34\n  jump\t// in\ntag_47:\n    /* \"#utility.yul\":1259:1343   */\n  swap3\n  pop\n    /* \"#utility.yul\":1062:1353   */\n  pop\n    /* \"#utility.yul\":1413:1415   */\n  0x20\n    /* \"#utility.yul\":1402:1411   */\n  dup4\n    /* \"#utility.yul\":1398:1416   */\n  add\n    /* \"#utility.yul\":1392:1417   */\n  mload\n    /* \"#utility.yul\":1444:1462   */\n  0xffffffffffffffff\n    /* \"#utility.yul\":1436:1442   */\n  dup2\n    /* \"#utility.yul\":1433:1463   */\n  gt\n    /* \"#utility.yul\":1430:1547   */\n  iszero\n  tag_48\n  jumpi\n    /* \"#utility.yul\":1466:1545   */\n  tag_49\n  tag_46\n  jump\t// in\ntag_49:\n    /* \"#utility.yul\":1430:1547   */\ntag_48:\n    /* \"#utility.yul\":1571:1645   */\n  tag_50\n    /* \"#utility.yul\":1637:1644   */\n  dup6\n    /* \"#utility.yul\":1628:1634   */\n  dup3\n    /* \"#utility.yul\":1617:1626   */\n  dup7\n    /* \"#utility.yul\":1613:1635   */\n  add\n    /* \"#utility.yul\":1571:1645   */\n  tag_34\n  jump\t// in\ntag_50:\n    /* \"#utility.yul\":1561:1645   */\n  swap2\n  pop\n    /* \"#utility.yul\":1363:1655   */\n  pop\n    /* \"#utility.yul\":809:1662   */\n  swap3\n  pop\n  swap3\n  swap1\n  pop\n  jump\t// out\n    /* \"#utility.yul\":1668:1797   */\ntag_28:\n    /* \"#utility.yul\":1702:1708   */\n  0x00\n    /* \"#utility.yul\":1729:1749   */\n  tag_52\n  tag_53\n  jump\t// in\ntag_52:\n    /* \"#utility.yul\":1719:1749   */\n  swap1\n  pop\n    /* \"#utility.yul\":1758:1791   */\n  tag_54\n    /* \"#utility.yul\":1786:1790   */\n  dup3\n    /* \"#utility.yul\":1778:1784   */\n  dup3\n    /* \"#utility.yul\":1758:1791   */\n  tag_55\n  jump\t// in\ntag_54:\n    /* \"#utility.yul\":1668:1797   */\n  swap2\n  swap1\n  pop\n  jump\t// out\n    /* \"#utility.yul\":1803:1878   */\ntag_53:\n    /* \"#utility.yul\":1836:1842   */\n  0x00\n    /* \"#utility.yul\":1869:1871   */\n  0x40\n    /* \"#utility.yul\":1863:1872   */\n  mload\n    /* \"#utility.yul\":1853:1872   */\n  swap1\n  pop\n    /* \"#utility.yul\":1803:1878   */\n  swap1\n  jump\t// out\n    /* \"#utility.yul\":1884:2192   */\ntag_27:\n    /* \"#utility.yul\":1946:1950   */\n  0x00\n    /* \"#utility.yul\":2036:2054   */\n  0xffffffffffffffff\n    /* \"#utility.yul\":2028:2034   */\n  dup3\n    /* \"#utility.yul\":2025:2055   */\n  gt\n    /* \"#utility.yul\":2022:2078   */\n  iszero\n  tag_58\n  jumpi\n    /* \"#utility.yul\":2058:2076   */\n  tag_59\n  tag_60\n  jump\t// in\ntag_59:\n    /* \"#utility.yul\":2022:2078   */\ntag_58:\n    /* \"#utility.yul\":2096:2125   */\n  tag_61\n    /* \"#utility.yul\":2118:2124   */\n  dup3\n    /* \"#utility.yul\":2096:2125   */\n  tag_62\n  jump\t// in\ntag_61:\n    /* \"#utility.yul\":2088:2125   */\n  swap1\n  pop\n    /* \"#utility.yul\":2180:2184   */\n  0x20\n    /* \"#utility.yul\":2174:2178   */\n  dup2\n    /* \"#utility.yul\":2170:2185   */\n  add\n    /* \"#utility.yul\":2162:2185   */\n  swap1\n  pop\n    /* \"#utility.yul\":1884:2192   */\n  swap2\n  swap1\n  pop\n  jump\t// out\n    /* \"#utility.yul\":2198:2505   */\ntag_33:\n    /* \"#utility.yul\":2266:2267   */\n  0x00\n    /* \"#utility.yul\":2276:2389   */\ntag_64:\n    /* \"#utility.yul\":2290:2296   */\n  dup4\n    /* \"#utility.yul\":2287:2288   */\n  dup2\n    /* \"#utility.yul\":2284:2297   */\n  lt\n    /* \"#utility.yul\":2276:2389   */\n  iszero\n  tag_66\n  jumpi\n    /* \"#utility.yul\":2375:2376   */\n  dup1\n    /* \"#utility.yul\":2370:2373   */\n  dup3\n    /* \"#utility.yul\":2366:2377   */\n  add\n    /* \"#utility.yul\":2360:2378   */\n  mload\n    /* \"#utility.yul\":2356:2357   */\n  dup2\n    /* \"#utility.yul\":2351:2354   */\n  dup5\n    /* \"#utility.yul\":2347:2358   */\n  add\n    /* \"#utility.yul\":2340:2379   */\n  mstore\n    /* \"#utility.yul\":2312:2314   */\n  0x20\n    /* \"#utility.yul\":2309:2310   */\n  dup2\n    /* \"#utility.yul\":2305:2315   */\n  add\n    /* \"#utility.yul\":2300:2315   */\n  swap1\n  pop\n    /* \"#utility.yul\":2276:2389   */\n  jump(tag_64)\ntag_66:\n    /* \"#utility.yul\":2407:2413   */\n  dup4\n    /* \"#utility.yul\":2404:2405   */\n  dup2\n    /* \"#utility.yul\":2401:2414   */\n  gt\n    /* \"#utility.yul\":2398:2499   */\n  iszero\n  tag_67\n  jumpi\n    /* \"#utility.yul\":2487:2488   */\n  0x00\n    /* \"#utility.yul\":2478:2484   */\n  dup5\n    /* \"#utility.yul\":2473:2476   */\n  dup5\n    /* \"#utility.yul\":2469:2485   */\n  add\n    /* \"#utility.yul\":2462:2489   */\n  mstore\n    /* \"#utility.yul\":2398:2499   */\ntag_67:\n    /* \"#utility.yul\":2247:2505   */\n  pop\n    /* \"#utility.yul\":2198:2505   */\n  pop\n  pop\n  pop\n  jump\t// out\n    /* \"#utility.yul\":2511:2831   */\ntag_12:\n    /* \"#utility.yul\":2555:2561   */\n  0x00\n    /* \"#utility.yul\":2592:2593   */\n  0x02\n    /* \"#utility.yul\":2586:2590   */\n  dup3\n    /* \"#utility.yul\":2582:2594   */\n  div\n    /* \"#utility.yul\":2572:2594   */\n  swap1\n  pop\n    /* \"#utility.yul\":2639:2640   */\n  0x01\n    /* \"#utility.yul\":2633:2637   */\n  dup3\n    /* \"#utility.yul\":2629:2641   */\n  and\n    /* \"#utility.yul\":2660:2678   */\n  dup1\n    /* \"#utility.yul\":2650:2731   */\n  tag_69\n  jumpi\n    /* \"#utility.yul\":2716:2720   */\n  0x7f\n    /* \"#utility.yul\":2708:2714   */\n  dup3\n    /* \"#utility.yul\":2704:2721   */\n  and\n    /* \"#utility.yul\":2694:2721   */\n  swap2\n  pop\n    /* \"#utility.yul\":2650:2731   */\ntag_69:\n    /* \"#utility.yul\":2778:2780   */\n  0x20\n    /* \"#utility.yul\":2770:2776   */\n  dup3\n    /* \"#utility.yul\":2767:2781   */\n  lt\n    /* \"#utility.yul\":2747:2765   */\n  dup2\n    /* \"#utility.yul\":2744:2782   */\n  eq\n    /* \"#utility.yul\":2741:2825   */\n  iszero\n  tag_70\n  jumpi\n    /* \"#utility.yul\":2797:2815   */\n  tag_71\n  tag_72\n  jump\t// in\ntag_71:\n    /* \"#utility.yul\":2741:2825   */\ntag_70:\n    /* \"#utility.yul\":2562:2831   */\n  pop\n    /* \"#utility.yul\":2511:2831   */\n  swap2\n  swap1\n  pop\n  jump\t// out\n    /* \"#utility.yul\":2837:3118   */\ntag_55:\n    /* \"#utility.yul\":2920:2947   */\n  tag_74\n    /* \"#utility.yul\":2942:2946   */\n  dup3\n    /* \"#utility.yul\":2920:2947   */\n  tag_62\n  jump\t// in\ntag_74:\n    /* \"#utility.yul\":2912:2918   */\n  dup2\n    /* \"#utility.yul\":2908:2948   */\n  add\n    /* \"#utility.yul\":3050:3056   */\n  dup2\n    /* \"#utility.yul\":3038:3048   */\n  dup2\n    /* \"#utility.yul\":3035:3057   */\n  lt\n    /* \"#utility.yul\":3014:3032   */\n  0xffffffffffffffff\n    /* \"#utility.yul\":3002:3012   */\n  dup3\n    /* \"#utility.yul\":2999:3033   */\n  gt\n    /* \"#utility.yul\":2996:3058   */\n  or\n    /* \"#utility.yul\":2993:3081   */\n  iszero\n  tag_75\n  jumpi\n    /* \"#utility.yul\":3061:3079   */\n  tag_76\n  tag_60\n  jump\t// in\ntag_76:\n    /* \"#utility.yul\":2993:3081   */\ntag_75:\n    /* \"#utility.yul\":3101:3111   */\n  dup1\n    /* \"#utility.yul\":3097:3099   */\n  0x40\n    /* \"#utility.yul\":3090:3112   */\n  mstore\n    /* \"#utility.yul\":2880:3118   */\n  pop\n    /* \"#utility.yul\":2837:3118   */\n  pop\n  pop\n  jump\t// out\n    /* \"#utility.yul\":3124:3304   */\ntag_72:\n    /* \"#utility.yul\":3172:3249   */\n  0x4e487b7100000000000000000000000000000000000000000000000000000000\n    /* \"#utility.yul\":3169:3170   */\n  0x00\n    /* \"#utility.yul\":3162:3250   */\n  mstore\n    /* \"#utility.yul\":3269:3273   */\n  0x22\n    /* \"#utility.yul\":3266:3267   */\n  0x04\n    /* \"#utility.yul\":3259:3274   */\n  mstore\n    /* \"#utility.yul\":3293:3297   */\n  0x24\n    /* \"#utility.yul\":3290:3291   */\n  0x00\n    /* \"#utility.yul\":3283:3298   */\n  revert\n    /* \"#utility.yul\":3310:3490   */\ntag_60:\n    /* \"#utility.yul\":3358:3435   */\n  0x4e487b7100000000000000000000000000000000000000000000000000000000\n    /* \"#utility.yul\":3355:3356   */\n  0x00\n    /* \"#utility.yul\":3348:3436   */\n  mstore\n    /* \"#utility.yul\":3455:3459   */\n  0x41\n    /* \"#utility.yul\":3452:3453   */\n  0x04\n    /* \"#utility.yul\":3445:3460   */\n  mstore\n    /* \"#utility.yul\":3479:3483   */\n  0x24\n    /* \"#utility.yul\":3476:3477   */\n  0x00\n    /* \"#utility.yul\":3469:3484   */\n  revert\n    /* \"#utility.yul\":3496:3613   */\ntag_38:\n    /* \"#utility.yul\":3605:3606   */\n  0x00\n    /* \"#utility.yul\":3602:3603   */\n  dup1\n    /* \"#utility.yul\":3595:3607   */\n  revert\n    /* \"#utility.yul\":3619:3736   */\ntag_31:\n    /* \"#utility.yul\":3728:3729   */\n  0x00\n    /* \"#utility.yul\":3725:3726   */\n  dup1\n    /* \"#utility.yul\":3718:3730   */\n  revert\n    /* \"#utility.yul\":3742:3859   */\ntag_46:\n    /* \"#utility.yul\":3851:3852   */\n  0x00\n    /* \"#utility.yul\":3848:3849   */\n  dup1\n    /* \"#utility.yul\":3841:3853   */\n  revert\n    /* \"#utility.yul\":3865:3982   */\ntag_43:\n    /* \"#utility.yul\":3974:3975   */\n  0x00\n    /* \"#utility.yul\":3971:3972   */\n  dup1\n    /* \"#utility.yul\":3964:3976   */\n  revert\n    /* \"#utility.yul\":3988:4090   */\ntag_62:\n    /* \"#utility.yul\":4029:4035   */\n  0x00\n    /* \"#utility.yul\":4080:4082   */\n  0x1f\n    /* \"#utility.yul\":4076:4083   */\n  not\n    /* \"#utility.yul\":4071:4073   */\n  0x1f\n    /* \"#utility.yul\":4064:4069   */\n  dup4\n    /* \"#utility.yul\":4060:4074   */\n  add\n    /* \"#utility.yul\":4056:4084   */\n  and\n    /* \"#utility.yul\":4046:4084   */\n  swap1\n  pop\n    /* \"#utility.yul\":3988:4090   */\n  swap2\n  swap1\n  pop\n  jump\t// out\n    /* \"contracts/SavvatoERC20.sol\":287:1730  contract SavvatoERC20 is ERC20 {... */\ntag_10:\n  dataSize(sub_0)\n  dup1\n  dataOffset(sub_0)\n  0x00\n  codecopy\n  0x00\n  return\nstop\n\nsub_0: assembly {\n        /* \"contracts/SavvatoERC20.sol\":287:1730  contract SavvatoERC20 is ERC20 {... */\n      mstore(0x40, 0x80)\n      jumpi(tag_1, lt(calldatasize, 0x04))\n      shr(0xe0, calldataload(0x00))\n      dup1\n      0x5b86f599\n      gt\n      tag_19\n      jumpi\n      dup1\n      0xa457c2d7\n      gt\n      tag_20\n      jumpi\n      dup1\n      0xa457c2d7\n      eq\n      tag_15\n      jumpi\n      dup1\n      0xa579a914\n      eq\n      tag_16\n      jumpi\n      dup1\n      0xa9059cbb\n      eq\n      tag_17\n      jumpi\n      dup1\n      0xdd62ed3e\n      eq\n      tag_18\n      jumpi\n      jump(tag_2)\n    tag_20:\n      dup1\n      0x5b86f599\n      eq\n      tag_11\n      jumpi\n      dup1\n      0x5c7b79f5\n      eq\n      tag_12\n      jumpi\n      dup1\n      0x70a08231\n      eq\n      tag_13\n      jumpi\n      dup1\n      0x95d89b41\n      eq\n      tag_14\n      jumpi\n      jump(tag_2)\n    tag_19:\n      dup1\n      0x23b872dd\n      gt\n      tag_21\n      jumpi\n      dup1\n      0x23b872dd\n      eq\n      tag_7\n      jumpi\n      dup1\n      0x313ce567\n      eq\n      tag_8\n      jumpi\n      dup1\n      0x39509351\n      eq\n      tag_9\n      jumpi\n      dup1\n      0x4ba2363a\n      eq\n      tag_10\n      jumpi\n      jump(tag_2)\n    tag_21:\n      dup1\n      0x06fdde03\n      eq\n      tag_3\n      jumpi\n      dup1\n      0x095ea7b3\n      eq\n      tag_4\n      jumpi\n      dup1\n      0x18160ddd\n      eq\n      tag_5\n      jumpi\n      dup1\n      0x21dd501b\n      eq\n      tag_6\n      jumpi\n      jump(tag_2)\n    tag_1:\n      jumpi(tag_2, calldatasize)\n      stop\n    tag_2:\n      0x00\n      dup1\n      revert\n        /* \"@openzeppelin/contracts/token/ERC20/ERC20.sol\":2154:2252  function name() public view virtual override returns (string memory) {... */\n    tag_3:\n      callvalue\n      dup1\n      iszero\n      tag_24\n      jumpi\n      0x00\n      dup1\n      revert\n    tag_24:\n      pop\n      tag_25\n      tag_26\n      jump\t// in\n    tag_25:\n      mload(0x40)\n      tag_27\n      swap2\n      swap1\n      tag_28\n      jump\t// in\n    tag_27:\n      mload(0x40)\n      dup1\n      swap2\n      sub\n      swap1\n      return\n        /* \"@openzeppelin/contracts/token/ERC20/ERC20.sol\":4431:4628  function approve(address spender, uint256 amount) public virtual override returns (bool) {... */\n    tag_4:\n      callvalue\n      dup1\n      iszero\n      tag_29\n      jumpi\n      0x00\n      dup1\n      revert\n    tag_29:\n      pop\n      tag_30\n      0x04\n      dup1\n      calldatasize\n      sub\n      dup2\n      add\n      swap1\n      tag_31\n      swap2\n      swap1\n      tag_32\n      jump\t// in\n    tag_31:\n      tag_33\n      jump\t// in\n    tag_30:\n      mload(0x40)\n      tag_34\n      swap2\n      swap1\n      tag_35\n      jump\t// in\n    tag_34:\n      mload(0x40)\n      dup1\n      swap2\n      sub\n      swap1\n      return\n        /* \"@openzeppelin/contracts/token/ERC20/ERC20.sol\":3242:3348  function totalSupply() public view virtual override returns (uint256) {... */\n    tag_5:\n      callvalue\n      dup1\n      iszero\n      tag_36\n      jumpi\n      0x00\n      dup1\n      revert\n    tag_36:\n      pop\n      tag_37\n      tag_38\n      jump\t// in\n    tag_37:\n      mload(0x40)\n      tag_39\n      swap2\n      swap1\n      tag_40\n      jump\t// in\n    tag_39:\n      mload(0x40)\n      dup1\n      swap2\n      sub\n      swap1\n      return\n        /* \"contracts/SavvatoERC20.sol\":325:364  address payable public deployingAddress */\n    tag_6:\n      callvalue\n      dup1\n      iszero\n      tag_41\n      jumpi\n      0x00\n      dup1\n      revert\n    tag_41:\n      pop\n      tag_42\n      tag_43\n      jump\t// in\n    tag_42:\n      mload(0x40)\n      tag_44\n      swap2\n      swap1\n      tag_45\n      jump\t// in\n    tag_44:\n      mload(0x40)\n      dup1\n      swap2\n      sub\n      swap1\n      return\n        /* \"@openzeppelin/contracts/token/ERC20/ERC20.sol\":5190:5476  function transferFrom(... */\n    tag_7:\n      callvalue\n      dup1\n      iszero\n      tag_46\n      jumpi\n      0x00\n      dup1\n      revert\n    tag_46:\n      pop\n      tag_47\n      0x04\n      dup1\n      calldatasize\n      sub\n      dup2\n      add\n      swap1\n      tag_48\n      swap2\n      swap1\n      tag_49\n      jump\t// in\n    tag_48:\n      tag_50\n      jump\t// in\n    tag_47:\n      mload(0x40)\n      tag_51\n      swap2\n      swap1\n      tag_35\n      jump\t// in\n    tag_51:\n      mload(0x40)\n      dup1\n      swap2\n      sub\n      swap1\n      return\n        /* \"@openzeppelin/contracts/token/ERC20/ERC20.sol\":3091:3182  function decimals() public view virtual override returns (uint8) {... */\n    tag_8:\n      callvalue\n      dup1\n      iszero\n      tag_52\n      jumpi\n      0x00\n      dup1\n      revert\n    tag_52:\n      pop\n      tag_53\n      tag_54\n      jump\t// in\n    tag_53:\n      mload(0x40)\n      tag_55\n      swap2\n      swap1\n      tag_56\n      jump\t// in\n    tag_55:\n      mload(0x40)\n      dup1\n      swap2\n      sub\n      swap1\n      return\n        /* \"@openzeppelin/contracts/token/ERC20/ERC20.sol\":5871:6105  function increaseAllowance(address spender, uint256 addedValue) public virtual returns (bool) {... */\n    tag_9:\n      callvalue\n      dup1\n      iszero\n      tag_57\n      jumpi\n      0x00\n      dup1\n      revert\n    tag_57:\n      pop\n      tag_58\n      0x04\n      dup1\n      calldatasize\n      sub\n      dup2\n      add\n      swap1\n      tag_59\n      swap2\n      swap1\n      tag_32\n      jump\t// in\n    tag_59:\n      tag_60\n      jump\t// in\n    tag_58:\n      mload(0x40)\n      tag_61\n      swap2\n      swap1\n      tag_35\n      jump\t// in\n    tag_61:\n      mload(0x40)\n      dup1\n      swap2\n      sub\n      swap1\n      return\n        /* \"contracts/SavvatoERC20.sol\":923:1012  function pot() public view returns(uint256) {... */\n    tag_10:\n      callvalue\n      dup1\n      iszero\n      tag_62\n      jumpi\n      0x00\n      dup1\n      revert\n    tag_62:\n      pop\n      tag_63\n      tag_64\n      jump\t// in\n    tag_63:\n      mload(0x40)\n      tag_65\n      swap2\n      swap1\n      tag_40\n      jump\t// in\n    tag_65:\n      mload(0x40)\n      dup1\n      swap2\n      sub\n      swap1\n      return\n        /* \"contracts/SavvatoERC20.sol\":629:917  function increaseBalance(address spender, uint256 amount) public returns(bool sufficient) {... */\n    tag_11:\n      callvalue\n      dup1\n      iszero\n      tag_66\n      jumpi\n      0x00\n      dup1\n      revert\n    tag_66:\n      pop\n      tag_67\n      0x04\n      dup1\n      calldatasize\n      sub\n      dup2\n      add\n      swap1\n      tag_68\n      swap2\n      swap1\n      tag_32\n      jump\t// in\n    tag_68:\n      tag_69\n      jump\t// in\n    tag_67:\n      mload(0x40)\n      tag_70\n      swap2\n      swap1\n      tag_35\n      jump\t// in\n    tag_70:\n      mload(0x40)\n      dup1\n      swap2\n      sub\n      swap1\n      return\n        /* \"contracts/SavvatoERC20.sol\":1242:1727  function cashOut(uint256 cashOutAmount) public payable returns(bool sufficient) {... */\n    tag_12:\n      tag_71\n      0x04\n      dup1\n      calldatasize\n      sub\n      dup2\n      add\n      swap1\n      tag_72\n      swap2\n      swap1\n      tag_73\n      jump\t// in\n    tag_72:\n      tag_74\n      jump\t// in\n    tag_71:\n      mload(0x40)\n      tag_75\n      swap2\n      swap1\n      tag_35\n      jump\t// in\n    tag_75:\n      mload(0x40)\n      dup1\n      swap2\n      sub\n      swap1\n      return\n        /* \"@openzeppelin/contracts/token/ERC20/ERC20.sol\":3406:3531  function balanceOf(address account) public view virtual override returns (uint256) {... */\n    tag_13:\n      callvalue\n      dup1\n      iszero\n      tag_76\n      jumpi\n      0x00\n      dup1\n      revert\n    tag_76:\n      pop\n      tag_77\n      0x04\n      dup1\n      calldatasize\n      sub\n      dup2\n      add\n      swap1\n      tag_78\n      swap2\n      swap1\n      tag_79\n      jump\t// in\n    tag_78:\n      tag_80\n      jump\t// in\n    tag_77:\n      mload(0x40)\n      tag_81\n      swap2\n      swap1\n      tag_40\n      jump\t// in\n    tag_81:\n      mload(0x40)\n      dup1\n      swap2\n      sub\n      swap1\n      return\n        /* \"@openzeppelin/contracts/token/ERC20/ERC20.sol\":2365:2467  function symbol() public view virtual override returns (string memory) {... */\n    tag_14:\n      callvalue\n      dup1\n      iszero\n      tag_82\n      jumpi\n      0x00\n      dup1\n      revert\n    tag_82:\n      pop\n      tag_83\n      tag_84\n      jump\t// in\n    tag_83:\n      mload(0x40)\n      tag_85\n      swap2\n      swap1\n      tag_28\n      jump\t// in\n    tag_85:\n      mload(0x40)\n      dup1\n      swap2\n      sub\n      swap1\n      return\n        /* \"@openzeppelin/contracts/token/ERC20/ERC20.sol\":6592:7019  function decreaseAllowance(address spender, uint256 subtractedValue) public virtual returns (bool) {... */\n    tag_15:\n      callvalue\n      dup1\n      iszero\n      tag_86\n      jumpi\n      0x00\n      dup1\n      revert\n    tag_86:\n      pop\n      tag_87\n      0x04\n      dup1\n      calldatasize\n      sub\n      dup2\n      add\n      swap1\n      tag_88\n      swap2\n      swap1\n      tag_32\n      jump\t// in\n    tag_88:\n      tag_89\n      jump\t// in\n    tag_87:\n      mload(0x40)\n      tag_90\n      swap2\n      swap1\n      tag_35\n      jump\t// in\n    tag_90:\n      mload(0x40)\n      dup1\n      swap2\n      sub\n      swap1\n      return\n        /* \"contracts/SavvatoERC20.sol\":1018:1236  function portion(uint256 cashOutAmount) public view returns(uint256) {... */\n    tag_16:\n      callvalue\n      dup1\n      iszero\n      tag_91\n      jumpi\n      0x00\n      dup1\n      revert\n    tag_91:\n      pop\n      tag_92\n      0x04\n      dup1\n      calldatasize\n      sub\n      dup2\n      add\n      swap1\n      tag_93\n      swap2\n      swap1\n      tag_73\n      jump\t// in\n    tag_93:\n      tag_94\n      jump\t// in\n    tag_92:\n      mload(0x40)\n      tag_95\n      swap2\n      swap1\n      tag_40\n      jump\t// in\n    tag_95:\n      mload(0x40)\n      dup1\n      swap2\n      sub\n      swap1\n      return\n        /* \"@openzeppelin/contracts/token/ERC20/ERC20.sol\":3727:3916  function transfer(address to, uint256 amount) public virtual override returns (bool) {... */\n    tag_17:\n      callvalue\n      dup1\n      iszero\n      tag_96\n      jumpi\n      0x00\n      dup1\n      revert\n    tag_96:\n      pop\n      tag_97\n      0x04\n      dup1\n      calldatasize\n      sub\n      dup2\n      add\n      swap1\n      tag_98\n      swap2\n      swap1\n      tag_32\n      jump\t// in\n    tag_98:\n      tag_99\n      jump\t// in\n    tag_97:\n      mload(0x40)\n      tag_100\n      swap2\n      swap1\n      tag_35\n      jump\t// in\n    tag_100:\n      mload(0x40)\n      dup1\n      swap2\n      sub\n      swap1\n      return\n        /* \"@openzeppelin/contracts/token/ERC20/ERC20.sol\":3974:4123  function allowance(address owner, address spender) public view virtual override returns (uint256) {... */\n    tag_18:\n      callvalue\n      dup1\n      iszero\n      tag_101\n      jumpi\n      0x00\n      dup1\n      revert\n    tag_101:\n      pop\n      tag_102\n      0x04\n      dup1\n      calldatasize\n      sub\n      dup2\n      add\n      swap1\n      tag_103\n      swap2\n      swap1\n      tag_104\n      jump\t// in\n    tag_103:\n      tag_105\n      jump\t// in\n    tag_102:\n      mload(0x40)\n      tag_106\n      swap2\n      swap1\n      tag_40\n      jump\t// in\n    tag_106:\n      mload(0x40)\n      dup1\n      swap2\n      sub\n      swap1\n      return\n        /* \"@openzeppelin/contracts/token/ERC20/ERC20.sol\":2154:2252  function name() public view virtual override returns (string memory) {... */\n    tag_26:\n        /* \"@openzeppelin/contracts/token/ERC20/ERC20.sol\":2208:2221  string memory */\n      0x60\n        /* \"@openzeppelin/contracts/token/ERC20/ERC20.sol\":2240:2245  _name */\n      0x03\n        /* \"@openzeppelin/contracts/token/ERC20/ERC20.sol\":2233:2245  return _name */\n      dup1\n      sload\n      tag_108\n      swap1\n      tag_109\n      jump\t// in\n    tag_108:\n      dup1\n      0x1f\n      add\n      0x20\n      dup1\n      swap2\n      div\n      mul\n      0x20\n      add\n      mload(0x40)\n      swap1\n      dup2\n      add\n      0x40\n      mstore\n      dup1\n      swap3\n      swap2\n      swap1\n      dup2\n      dup2\n      mstore\n      0x20\n      add\n      dup3\n      dup1\n      sload\n      tag_110\n      swap1\n      tag_109\n      jump\t// in\n    tag_110:\n      dup1\n      iszero\n      tag_111\n      jumpi\n      dup1\n      0x1f\n      lt\n      tag_112\n      jumpi\n      0x0100\n      dup1\n      dup4\n      sload\n      div\n      mul\n      dup4\n      mstore\n      swap2\n      0x20\n      add\n      swap2\n      jump(tag_111)\n    tag_112:\n      dup3\n      add\n      swap2\n      swap1\n      0x00\n      mstore\n      keccak256(0x00, 0x20)\n      swap1\n    tag_113:\n      dup2\n      sload\n      dup2\n      mstore\n      swap1\n      0x01\n      add\n      swap1\n      0x20\n      add\n      dup1\n      dup4\n      gt\n      tag_113\n      jumpi\n      dup3\n      swap1\n      sub\n      0x1f\n      and\n      dup3\n      add\n      swap2\n    tag_111:\n      pop\n      pop\n      pop\n      pop\n      pop\n      swap1\n      pop\n        /* \"@openzeppelin/contracts/token/ERC20/ERC20.sol\":2154:2252  function name() public view virtual override returns (string memory) {... */\n      swap1\n      jump\t// out\n        /* \"@openzeppelin/contracts/token/ERC20/ERC20.sol\":4431:4628  function approve(address spender, uint256 amount) public virtual override returns (bool) {... */\n    tag_33:\n        /* \"@openzeppelin/contracts/token/ERC20/ERC20.sol\":4514:4518  bool */\n      0x00\n        /* \"@openzeppelin/contracts/token/ERC20/ERC20.sol\":4530:4543  address owner */\n      dup1\n        /* \"@openzeppelin/contracts/token/ERC20/ERC20.sol\":4546:4558  _msgSender() */\n      tag_115\n        /* \"@openzeppelin/contracts/token/ERC20/ERC20.sol\":4546:4556  _msgSender */\n      tag_116\n        /* \"@openzeppelin/contracts/token/ERC20/ERC20.sol\":4546:4558  _msgSender() */\n      jump\t// in\n    tag_115:\n        /* \"@openzeppelin/contracts/token/ERC20/ERC20.sol\":4530:4558  address owner = _msgSender() */\n      swap1\n      pop\n        /* \"@openzeppelin/contracts/token/ERC20/ERC20.sol\":4568:4600  _approve(owner, spender, amount) */\n      tag_117\n        /* \"@openzeppelin/contracts/token/ERC20/ERC20.sol\":4577:4582  owner */\n      dup2\n        /* \"@openzeppelin/contracts/token/ERC20/ERC20.sol\":4584:4591  spender */\n      dup6\n        /* \"@openzeppelin/contracts/token/ERC20/ERC20.sol\":4593:4599  amount */\n      dup6\n        /* \"@openzeppelin/contracts/token/ERC20/ERC20.sol\":4568:4576  _approve */\n      tag_118\n        /* \"@openzeppelin/contracts/token/ERC20/ERC20.sol\":4568:4600  _approve(owner, spender, amount) */\n      jump\t// in\n    tag_117:\n        /* \"@openzeppelin/contracts/token/ERC20/ERC20.sol\":4617:4621  true */\n      0x01\n        /* \"@openzeppelin/contracts/token/ERC20/ERC20.sol\":4610:4621  return true */\n      swap2\n      pop\n      pop\n        /* \"@openzeppelin/contracts/token/ERC20/ERC20.sol\":4431:4628  function approve(address spender, uint256 amount) public virtual override returns (bool) {... */\n      swap3\n      swap2\n      pop\n      pop\n      jump\t// out\n        /* \"@openzeppelin/contracts/token/ERC20/ERC20.sol\":3242:3348  function totalSupply() public view virtual override returns (uint256) {... */\n    tag_38:\n        /* \"@openzeppelin/contracts/token/ERC20/ERC20.sol\":3303:3310  uint256 */\n      0x00\n        /* \"@openzeppelin/contracts/token/ERC20/ERC20.sol\":3329:3341  _totalSupply */\n      sload(0x02)\n        /* \"@openzeppelin/contracts/token/ERC20/ERC20.sol\":3322:3341  return _totalSupply */\n      swap1\n      pop\n        /* \"@openzeppelin/contracts/token/ERC20/ERC20.sol\":3242:3348  function totalSupply() public view virtual override returns (uint256) {... */\n      swap1\n      jump\t// out\n        /* \"contracts/SavvatoERC20.sol\":325:364  address payable public deployingAddress */\n    tag_43:\n      0x05\n      0x00\n      swap1\n      sload\n      swap1\n      0x0100\n      exp\n      swap1\n      div\n      0xffffffffffffffffffffffffffffffffffffffff\n      and\n      dup2\n      jump\t// out\n        /* \"@openzeppelin/contracts/token/ERC20/ERC20.sol\":5190:5476  function transferFrom(... */\n    tag_50:\n        /* \"@openzeppelin/contracts/token/ERC20/ERC20.sol\":5317:5321  bool */\n      0x00\n        /* \"@openzeppelin/contracts/token/ERC20/ERC20.sol\":5333:5348  address spender */\n      dup1\n        /* \"@openzeppelin/contracts/token/ERC20/ERC20.sol\":5351:5363  _msgSender() */\n      tag_121\n        /* \"@openzeppelin/contracts/token/ERC20/ERC20.sol\":5351:5361  _msgSender */\n      tag_116\n        /* \"@openzeppelin/contracts/token/ERC20/ERC20.sol\":5351:5363  _msgSender() */\n      jump\t// in\n    tag_121:\n        /* \"@openzeppelin/contracts/token/ERC20/ERC20.sol\":5333:5363  address spender = _msgSender() */\n      swap1\n      pop\n        /* \"@openzeppelin/contracts/token/ERC20/ERC20.sol\":5373:5411  _spendAllowance(from, spender, amount) */\n      tag_122\n        /* \"@openzeppelin/contracts/token/ERC20/ERC20.sol\":5389:5393  from */\n      dup6\n        /* \"@openzeppelin/contracts/token/ERC20/ERC20.sol\":5395:5402  spender */\n      dup3\n        /* \"@openzeppelin/contracts/token/ERC20/ERC20.sol\":5404:5410  amount */\n      dup6\n        /* \"@openzeppelin/contracts/token/ERC20/ERC20.sol\":5373:5388  _spendAllowance */\n      tag_123\n        /* \"@openzeppelin/contracts/token/ERC20/ERC20.sol\":5373:5411  _spendAllowance(from, spender, amount) */\n      jump\t// in\n    tag_122:\n        /* \"@openzeppelin/contracts/token/ERC20/ERC20.sol\":5421:5448  _transfer(from, to, amount) */\n      tag_124\n        /* \"@openzeppelin/contracts/token/ERC20/ERC20.sol\":5431:5435  from */\n      dup6\n        /* \"@openzeppelin/contracts/token/ERC20/ERC20.sol\":5437:5439  to */\n      dup6\n        /* \"@openzeppelin/contracts/token/ERC20/ERC20.sol\":5441:5447  amount */\n      dup6\n        /* \"@openzeppelin/contracts/token/ERC20/ERC20.sol\":5421:5430  _transfer */\n      tag_125\n        /* \"@openzeppelin/contracts/token/ERC20/ERC20.sol\":5421:5448  _transfer(from, to, amount) */\n      jump\t// in\n    tag_124:\n        /* \"@openzeppelin/contracts/token/ERC20/ERC20.sol\":5465:5469  true */\n      0x01\n        /* \"@openzeppelin/contracts/token/ERC20/ERC20.sol\":5458:5469  return true */\n      swap2\n      pop\n      pop\n        /* \"@openzeppelin/contracts/token/ERC20/ERC20.sol\":5190:5476  function transferFrom(... */\n      swap4\n      swap3\n      pop\n      pop\n      pop\n      jump\t// out\n        /* \"@openzeppelin/contracts/token/ERC20/ERC20.sol\":3091:3182  function decimals() public view virtual override returns (uint8) {... */\n    tag_54:\n        /* \"@openzeppelin/contracts/token/ERC20/ERC20.sol\":3149:3154  uint8 */\n      0x00\n        /* \"@openzeppelin/contracts/token/ERC20/ERC20.sol\":3173:3175  18 */\n      0x12\n        /* \"@openzeppelin/contracts/token/ERC20/ERC20.sol\":3166:3175  return 18 */\n      swap1\n      pop\n        /* \"@openzeppelin/contracts/token/ERC20/ERC20.sol\":3091:3182  function decimals() public view virtual override returns (uint8) {... */\n      swap1\n      jump\t// out\n        /* \"@openzeppelin/contracts/token/ERC20/ERC20.sol\":5871:6105  function increaseAllowance(address spender, uint256 addedValue) public virtual returns (bool) {... */\n    tag_60:\n        /* \"@openzeppelin/contracts/token/ERC20/ERC20.sol\":5959:5963  bool */\n      0x00\n        /* \"@openzeppelin/contracts/token/ERC20/ERC20.sol\":5975:5988  address owner */\n      dup1\n        /* \"@openzeppelin/contracts/token/ERC20/ERC20.sol\":5991:6003  _msgSender() */\n      tag_128\n        /* \"@openzeppelin/contracts/token/ERC20/ERC20.sol\":5991:6001  _msgSender */\n      tag_116\n        /* \"@openzeppelin/contracts/token/ERC20/ERC20.sol\":5991:6003  _msgSender() */\n      jump\t// in\n    tag_128:\n        /* \"@openzeppelin/contracts/token/ERC20/ERC20.sol\":5975:6003  address owner = _msgSender() */\n      swap1\n      pop\n        /* \"@openzeppelin/contracts/token/ERC20/ERC20.sol\":6013:6077  _approve(owner, spender, allowance(owner, spender) + addedValue) */\n      tag_129\n        /* \"@openzeppelin/contracts/token/ERC20/ERC20.sol\":6022:6027  owner */\n      dup2\n        /* \"@openzeppelin/contracts/token/ERC20/ERC20.sol\":6029:6036  spender */\n      dup6\n        /* \"@openzeppelin/contracts/token/ERC20/ERC20.sol\":6066:6076  addedValue */\n      dup6\n        /* \"@openzeppelin/contracts/token/ERC20/ERC20.sol\":6038:6063  allowance(owner, spender) */\n      tag_130\n        /* \"@openzeppelin/contracts/token/ERC20/ERC20.sol\":6048:6053  owner */\n      dup6\n        /* \"@openzeppelin/contracts/token/ERC20/ERC20.sol\":6055:6062  spender */\n      dup10\n        /* \"@openzeppelin/contracts/token/ERC20/ERC20.sol\":6038:6047  allowance */\n      tag_105\n        /* \"@openzeppelin/contracts/token/ERC20/ERC20.sol\":6038:6063  allowance(owner, spender) */\n      jump\t// in\n    tag_130:\n        /* \"@openzeppelin/contracts/token/ERC20/ERC20.sol\":6038:6076  allowance(owner, spender) + addedValue */\n      tag_131\n      swap2\n      swap1\n      tag_132\n      jump\t// in\n    tag_131:\n        /* \"@openzeppelin/contracts/token/ERC20/ERC20.sol\":6013:6021  _approve */\n      tag_118\n        /* \"@openzeppelin/contracts/token/ERC20/ERC20.sol\":6013:6077  _approve(owner, spender, allowance(owner, spender) + addedValue) */\n      jump\t// in\n    tag_129:\n        /* \"@openzeppelin/contracts/token/ERC20/ERC20.sol\":6094:6098  true */\n      0x01\n        /* \"@openzeppelin/contracts/token/ERC20/ERC20.sol\":6087:6098  return true */\n      swap2\n      pop\n      pop\n        /* \"@openzeppelin/contracts/token/ERC20/ERC20.sol\":5871:6105  function increaseAllowance(address spender, uint256 addedValue) public virtual returns (bool) {... */\n      swap3\n      swap2\n      pop\n      pop\n      jump\t// out\n        /* \"contracts/SavvatoERC20.sol\":923:1012  function pot() public view returns(uint256) {... */\n    tag_64:\n        /* \"contracts/SavvatoERC20.sol\":958:965  uint256 */\n      0x00\n        /* \"contracts/SavvatoERC20.sol\":984:1005  address(this).balance */\n      selfbalance\n        /* \"contracts/SavvatoERC20.sol\":977:1005  return address(this).balance */\n      swap1\n      pop\n        /* \"contracts/SavvatoERC20.sol\":923:1012  function pot() public view returns(uint256) {... */\n      swap1\n      jump\t// out\n        /* \"contracts/SavvatoERC20.sol\":629:917  function increaseBalance(address spender, uint256 amount) public returns(bool sufficient) {... */\n    tag_69:\n        /* \"contracts/SavvatoERC20.sol\":702:717  bool sufficient */\n      0x00\n        /* \"contracts/SavvatoERC20.sol\":761:771  msg.sender */\n      caller\n        /* \"contracts/SavvatoERC20.sol\":733:772  deployingAddress == payable(msg.sender) */\n      0xffffffffffffffffffffffffffffffffffffffff\n      and\n        /* \"contracts/SavvatoERC20.sol\":733:749  deployingAddress */\n      0x05\n      0x00\n      swap1\n      sload\n      swap1\n      0x0100\n      exp\n      swap1\n      div\n      0xffffffffffffffffffffffffffffffffffffffff\n      and\n        /* \"contracts/SavvatoERC20.sol\":733:772  deployingAddress == payable(msg.sender) */\n      0xffffffffffffffffffffffffffffffffffffffff\n      and\n      eq\n        /* \"contracts/SavvatoERC20.sol\":729:889  if (deployingAddress == payable(msg.sender)) {... */\n      iszero\n      tag_135\n      jumpi\n        /* \"contracts/SavvatoERC20.sol\":788:810  _mint(spender, amount) */\n      tag_136\n        /* \"contracts/SavvatoERC20.sol\":794:801  spender */\n      dup4\n        /* \"contracts/SavvatoERC20.sol\":803:809  amount */\n      dup4\n        /* \"contracts/SavvatoERC20.sol\":788:793  _mint */\n      tag_137\n        /* \"contracts/SavvatoERC20.sol\":788:810  _mint(spender, amount) */\n      jump\t// in\n    tag_136:\n        /* \"contracts/SavvatoERC20.sol\":850:857  spender */\n      dup3\n        /* \"contracts/SavvatoERC20.sol\":829:878  memberBalanceChanged(spender, balanceOf(spender)) */\n      0xffffffffffffffffffffffffffffffffffffffff\n      and\n      0xd1eb9126df5675c341b5e1f68f8e5fd0d29adce1d8aa44cef7e385eb3060559a\n        /* \"contracts/SavvatoERC20.sol\":859:877  balanceOf(spender) */\n      tag_138\n        /* \"contracts/SavvatoERC20.sol\":869:876  spender */\n      dup6\n        /* \"contracts/SavvatoERC20.sol\":859:868  balanceOf */\n      tag_80\n        /* \"contracts/SavvatoERC20.sol\":859:877  balanceOf(spender) */\n      jump\t// in\n    tag_138:\n        /* \"contracts/SavvatoERC20.sol\":829:878  memberBalanceChanged(spender, balanceOf(spender)) */\n      mload(0x40)\n      tag_139\n      swap2\n      swap1\n      tag_40\n      jump\t// in\n    tag_139:\n      mload(0x40)\n      dup1\n      swap2\n      sub\n      swap1\n      log2\n        /* \"contracts/SavvatoERC20.sol\":729:889  if (deployingAddress == payable(msg.sender)) {... */\n    tag_135:\n        /* \"contracts/SavvatoERC20.sol\":906:910  true */\n      0x01\n        /* \"contracts/SavvatoERC20.sol\":899:910  return true */\n      swap1\n      pop\n        /* \"contracts/SavvatoERC20.sol\":629:917  function increaseBalance(address spender, uint256 amount) public returns(bool sufficient) {... */\n      swap3\n      swap2\n      pop\n      pop\n      jump\t// out\n        /* \"contracts/SavvatoERC20.sol\":1242:1727  function cashOut(uint256 cashOutAmount) public payable returns(bool sufficient) {... */\n    tag_74:\n        /* \"contracts/SavvatoERC20.sol\":1305:1320  bool sufficient */\n      0x00\n        /* \"contracts/SavvatoERC20.sol\":1332:1359  address payable destAddress */\n      dup1\n        /* \"contracts/SavvatoERC20.sol\":1370:1380  msg.sender */\n      caller\n        /* \"contracts/SavvatoERC20.sol\":1332:1381  address payable destAddress = payable(msg.sender) */\n      swap1\n      pop\n        /* \"contracts/SavvatoERC20.sol\":1392:1413  uint totalEthInThePot */\n      0x00\n        /* \"contracts/SavvatoERC20.sol\":1416:1437  address(this).balance */\n      selfbalance\n        /* \"contracts/SavvatoERC20.sol\":1392:1437  uint totalEthInThePot = address(this).balance */\n      swap1\n      pop\n        /* \"contracts/SavvatoERC20.sol\":1447:1453  uint p */\n      0x00\n        /* \"contracts/SavvatoERC20.sol\":1492:1505  totalSupply() */\n      tag_141\n        /* \"contracts/SavvatoERC20.sol\":1492:1503  totalSupply */\n      tag_38\n        /* \"contracts/SavvatoERC20.sol\":1492:1505  totalSupply() */\n      jump\t// in\n    tag_141:\n        /* \"contracts/SavvatoERC20.sol\":1476:1489  cashOutAmount */\n      dup6\n        /* \"contracts/SavvatoERC20.sol\":1476:1505  cashOutAmount / totalSupply() */\n      tag_142\n      swap2\n      swap1\n      tag_143\n      jump\t// in\n    tag_142:\n        /* \"contracts/SavvatoERC20.sol\":1456:1472  totalEthInThePot */\n      dup3\n        /* \"contracts/SavvatoERC20.sol\":1456:1506  totalEthInThePot * (cashOutAmount / totalSupply()) */\n      tag_144\n      swap2\n      swap1\n      tag_145\n      jump\t// in\n    tag_144:\n        /* \"contracts/SavvatoERC20.sol\":1447:1506  uint p = totalEthInThePot * (cashOutAmount / totalSupply()) */\n      swap1\n      pop\n        /* \"contracts/SavvatoERC20.sol\":1517:1550  _burn(destAddress, cashOutAmount) */\n      tag_146\n        /* \"contracts/SavvatoERC20.sol\":1523:1534  destAddress */\n      dup4\n        /* \"contracts/SavvatoERC20.sol\":1536:1549  cashOutAmount */\n      dup7\n        /* \"contracts/SavvatoERC20.sol\":1517:1522  _burn */\n      tag_147\n        /* \"contracts/SavvatoERC20.sol\":1517:1550  _burn(destAddress, cashOutAmount) */\n      jump\t// in\n    tag_146:\n        /* \"contracts/SavvatoERC20.sol\":1675:1686  destAddress */\n      dup3\n        /* \"contracts/SavvatoERC20.sol\":1675:1695  destAddress.transfer */\n      0xffffffffffffffffffffffffffffffffffffffff\n      and\n        /* \"contracts/SavvatoERC20.sol\":1675:1698  destAddress.transfer(p) */\n      0x08fc\n        /* \"contracts/SavvatoERC20.sol\":1696:1697  p */\n      dup3\n        /* \"contracts/SavvatoERC20.sol\":1675:1698  destAddress.transfer(p) */\n      swap1\n      dup2\n      iszero\n      mul\n      swap1\n      mload(0x40)\n      0x00\n      mload(0x40)\n      dup1\n      dup4\n      sub\n      dup2\n      dup6\n      dup9\n      dup9\n      call\n      swap4\n      pop\n      pop\n      pop\n      pop\n      iszero\n      dup1\n      iszero\n      tag_149\n      jumpi\n      returndatasize\n      0x00\n      dup1\n      returndatacopy\n      revert(0x00, returndatasize)\n    tag_149:\n      pop\n        /* \"contracts/SavvatoERC20.sol\":1716:1720  true */\n      0x01\n        /* \"contracts/SavvatoERC20.sol\":1709:1720  return true */\n      swap4\n      pop\n      pop\n      pop\n      pop\n        /* \"contracts/SavvatoERC20.sol\":1242:1727  function cashOut(uint256 cashOutAmount) public payable returns(bool sufficient) {... */\n      swap2\n      swap1\n      pop\n      jump\t// out\n        /* \"@openzeppelin/contracts/token/ERC20/ERC20.sol\":3406:3531  function balanceOf(address account) public view virtual override returns (uint256) {... */\n    tag_80:\n        /* \"@openzeppelin/contracts/token/ERC20/ERC20.sol\":3480:3487  uint256 */\n      0x00\n        /* \"@openzeppelin/contracts/token/ERC20/ERC20.sol\":3506:3515  _balances */\n      dup1\n        /* \"@openzeppelin/contracts/token/ERC20/ERC20.sol\":3506:3524  _balances[account] */\n      0x00\n        /* \"@openzeppelin/contracts/token/ERC20/ERC20.sol\":3516:3523  account */\n      dup4\n        /* \"@openzeppelin/contracts/token/ERC20/ERC20.sol\":3506:3524  _balances[account] */\n      0xffffffffffffffffffffffffffffffffffffffff\n      and\n      0xffffffffffffffffffffffffffffffffffffffff\n      and\n      dup2\n      mstore\n      0x20\n      add\n      swap1\n      dup2\n      mstore\n      0x20\n      add\n      0x00\n      keccak256\n      sload\n        /* \"@openzeppelin/contracts/token/ERC20/ERC20.sol\":3499:3524  return _balances[account] */\n      swap1\n      pop\n        /* \"@openzeppelin/contracts/token/ERC20/ERC20.sol\":3406:3531  function balanceOf(address account) public view virtual override returns (uint256) {... */\n      swap2\n      swap1\n      pop\n      jump\t// out\n        /* \"@openzeppelin/contracts/token/ERC20/ERC20.sol\":2365:2467  function symbol() public view virtual override returns (string memory) {... */\n    tag_84:\n        /* \"@openzeppelin/contracts/token/ERC20/ERC20.sol\":2421:2434  string memory */\n      0x60\n        /* \"@openzeppelin/contracts/token/ERC20/ERC20.sol\":2453:2460  _symbol */\n      0x04\n        /* \"@openzeppelin/contracts/token/ERC20/ERC20.sol\":2446:2460  return _symbol */\n      dup1\n      sload\n      tag_152\n      swap1\n      tag_109\n      jump\t// in\n    tag_152:\n      dup1\n      0x1f\n      add\n      0x20\n      dup1\n      swap2\n      div\n      mul\n      0x20\n      add\n      mload(0x40)\n      swap1\n      dup2\n      add\n      0x40\n      mstore\n      dup1\n      swap3\n      swap2\n      swap1\n      dup2\n      dup2\n      mstore\n      0x20\n      add\n      dup3\n      dup1\n      sload\n      tag_153\n      swap1\n      tag_109\n      jump\t// in\n    tag_153:\n      dup1\n      iszero\n      tag_154\n      jumpi\n      dup1\n      0x1f\n      lt\n      tag_155\n      jumpi\n      0x0100\n      dup1\n      dup4\n      sload\n      div\n      mul\n      dup4\n      mstore\n      swap2\n      0x20\n      add\n      swap2\n      jump(tag_154)\n    tag_155:\n      dup3\n      add\n      swap2\n      swap1\n      0x00\n      mstore\n      keccak256(0x00, 0x20)\n      swap1\n    tag_156:\n      dup2\n      sload\n      dup2\n      mstore\n      swap1\n      0x01\n      add\n      swap1\n      0x20\n      add\n      dup1\n      dup4\n      gt\n      tag_156\n      jumpi\n      dup3\n      swap1\n      sub\n      0x1f\n      and\n      dup3\n      add\n      swap2\n    tag_154:\n      pop\n      pop\n      pop\n      pop\n      pop\n      swap1\n      pop\n        /* \"@openzeppelin/contracts/token/ERC20/ERC20.sol\":2365:2467  function symbol() public view virtual override returns (string memory) {... */\n      swap1\n      jump\t// out\n        /* \"@openzeppelin/contracts/token/ERC20/ERC20.sol\":6592:7019  function decreaseAllowance(address spender, uint256 subtractedValue) public virtual returns (bool) {... */\n    tag_89:\n        /* \"@openzeppelin/contracts/token/ERC20/ERC20.sol\":6685:6689  bool */\n      0x00\n        /* \"@openzeppelin/contracts/token/ERC20/ERC20.sol\":6701:6714  address owner */\n      dup1\n        /* \"@openzeppelin/contracts/token/ERC20/ERC20.sol\":6717:6729  _msgSender() */\n      tag_158\n        /* \"@openzeppelin/contracts/token/ERC20/ERC20.sol\":6717:6727  _msgSender */\n      tag_116\n        /* \"@openzeppelin/contracts/token/ERC20/ERC20.sol\":6717:6729  _msgSender() */\n      jump\t// in\n    tag_158:\n        /* \"@openzeppelin/contracts/token/ERC20/ERC20.sol\":6701:6729  address owner = _msgSender() */\n      swap1\n      pop\n        /* \"@openzeppelin/contracts/token/ERC20/ERC20.sol\":6739:6763  uint256 currentAllowance */\n      0x00\n        /* \"@openzeppelin/contracts/token/ERC20/ERC20.sol\":6766:6791  allowance(owner, spender) */\n      tag_159\n        /* \"@openzeppelin/contracts/token/ERC20/ERC20.sol\":6776:6781  owner */\n      dup3\n        /* \"@openzeppelin/contracts/token/ERC20/ERC20.sol\":6783:6790  spender */\n      dup7\n        /* \"@openzeppelin/contracts/token/ERC20/ERC20.sol\":6766:6775  allowance */\n      tag_105\n        /* \"@openzeppelin/contracts/token/ERC20/ERC20.sol\":6766:6791  allowance(owner, spender) */\n      jump\t// in\n    tag_159:\n        /* \"@openzeppelin/contracts/token/ERC20/ERC20.sol\":6739:6791  uint256 currentAllowance = allowance(owner, spender) */\n      swap1\n      pop\n        /* \"@openzeppelin/contracts/token/ERC20/ERC20.sol\":6829:6844  subtractedValue */\n      dup4\n        /* \"@openzeppelin/contracts/token/ERC20/ERC20.sol\":6809:6825  currentAllowance */\n      dup2\n        /* \"@openzeppelin/contracts/token/ERC20/ERC20.sol\":6809:6844  currentAllowance >= subtractedValue */\n      lt\n      iszero\n        /* \"@openzeppelin/contracts/token/ERC20/ERC20.sol\":6801:6886  require(currentAllowance >= subtractedValue, \"ERC20: decreased allowance below zero\") */\n      tag_160\n      jumpi\n      mload(0x40)\n      0x08c379a000000000000000000000000000000000000000000000000000000000\n      dup2\n      mstore\n      0x04\n      add\n      tag_161\n      swap1\n      tag_162\n      jump\t// in\n    tag_161:\n      mload(0x40)\n      dup1\n      swap2\n      sub\n      swap1\n      revert\n    tag_160:\n        /* \"@openzeppelin/contracts/token/ERC20/ERC20.sol\":6920:6980  _approve(owner, spender, currentAllowance - subtractedValue) */\n      tag_163\n        /* \"@openzeppelin/contracts/token/ERC20/ERC20.sol\":6929:6934  owner */\n      dup3\n        /* \"@openzeppelin/contracts/token/ERC20/ERC20.sol\":6936:6943  spender */\n      dup7\n        /* \"@openzeppelin/contracts/token/ERC20/ERC20.sol\":6964:6979  subtractedValue */\n      dup7\n        /* \"@openzeppelin/contracts/token/ERC20/ERC20.sol\":6945:6961  currentAllowance */\n      dup5\n        /* \"@openzeppelin/contracts/token/ERC20/ERC20.sol\":6945:6979  currentAllowance - subtractedValue */\n      sub\n        /* \"@openzeppelin/contracts/token/ERC20/ERC20.sol\":6920:6928  _approve */\n      tag_118\n        /* \"@openzeppelin/contracts/token/ERC20/ERC20.sol\":6920:6980  _approve(owner, spender, currentAllowance - subtractedValue) */\n      jump\t// in\n    tag_163:\n        /* \"@openzeppelin/contracts/token/ERC20/ERC20.sol\":7008:7012  true */\n      0x01\n        /* \"@openzeppelin/contracts/token/ERC20/ERC20.sol\":7001:7012  return true */\n      swap3\n      pop\n      pop\n      pop\n        /* \"@openzeppelin/contracts/token/ERC20/ERC20.sol\":6592:7019  function decreaseAllowance(address spender, uint256 subtractedValue) public virtual returns (bool) {... */\n      swap3\n      swap2\n      pop\n      pop\n      jump\t// out\n        /* \"contracts/SavvatoERC20.sol\":1018:1236  function portion(uint256 cashOutAmount) public view returns(uint256) {... */\n    tag_94:\n        /* \"contracts/SavvatoERC20.sol\":1078:1085  uint256 */\n      0x00\n        /* \"contracts/SavvatoERC20.sol\":1097:1118  uint totalEthInThePot */\n      dup1\n        /* \"contracts/SavvatoERC20.sol\":1121:1142  address(this).balance */\n      selfbalance\n        /* \"contracts/SavvatoERC20.sol\":1097:1142  uint totalEthInThePot = address(this).balance */\n      swap1\n      pop\n        /* \"contracts/SavvatoERC20.sol\":1152:1158  uint p */\n      0x00\n        /* \"contracts/SavvatoERC20.sol\":1197:1210  totalSupply() */\n      tag_165\n        /* \"contracts/SavvatoERC20.sol\":1197:1208  totalSupply */\n      tag_38\n        /* \"contracts/SavvatoERC20.sol\":1197:1210  totalSupply() */\n      jump\t// in\n    tag_165:\n        /* \"contracts/SavvatoERC20.sol\":1181:1194  cashOutAmount */\n      dup5\n        /* \"contracts/SavvatoERC20.sol\":1181:1210  cashOutAmount / totalSupply() */\n      tag_166\n      swap2\n      swap1\n      tag_143\n      jump\t// in\n    tag_166:\n        /* \"contracts/SavvatoERC20.sol\":1161:1177  totalEthInThePot */\n      dup3\n        /* \"contracts/SavvatoERC20.sol\":1161:1211  totalEthInThePot * (cashOutAmount / totalSupply()) */\n      tag_167\n      swap2\n      swap1\n      tag_145\n      jump\t// in\n    tag_167:\n        /* \"contracts/SavvatoERC20.sol\":1152:1211  uint p = totalEthInThePot * (cashOutAmount / totalSupply()) */\n      swap1\n      pop\n        /* \"contracts/SavvatoERC20.sol\":1228:1229  p */\n      dup1\n        /* \"contracts/SavvatoERC20.sol\":1221:1229  return p */\n      swap3\n      pop\n      pop\n      pop\n        /* \"contracts/SavvatoERC20.sol\":1018:1236  function portion(uint256 cashOutAmount) public view returns(uint256) {... */\n      swap2\n      swap1\n      pop\n      jump\t// out\n        /* \"@openzeppelin/contracts/token/ERC20/ERC20.sol\":3727:3916  function transfer(address to, uint256 amount) public virtual override returns (bool) {... */\n    tag_99:\n        /* \"@openzeppelin/contracts/token/ERC20/ERC20.sol\":3806:3810  bool */\n      0x00\n        /* \"@openzeppelin/contracts/token/ERC20/ERC20.sol\":3822:3835  address owner */\n      dup1\n        /* \"@openzeppelin/contracts/token/ERC20/ERC20.sol\":3838:3850  _msgSender() */\n      tag_169\n        /* \"@openzeppelin/contracts/token/ERC20/ERC20.sol\":3838:3848  _msgSender */\n      tag_116\n        /* \"@openzeppelin/contracts/token/ERC20/ERC20.sol\":3838:3850  _msgSender() */\n      jump\t// in\n    tag_169:\n        /* \"@openzeppelin/contracts/token/ERC20/ERC20.sol\":3822:3850  address owner = _msgSender() */\n      swap1\n      pop\n        /* \"@openzeppelin/contracts/token/ERC20/ERC20.sol\":3860:3888  _transfer(owner, to, amount) */\n      tag_170\n        /* \"@openzeppelin/contracts/token/ERC20/ERC20.sol\":3870:3875  owner */\n      dup2\n        /* \"@openzeppelin/contracts/token/ERC20/ERC20.sol\":3877:3879  to */\n      dup6\n        /* \"@openzeppelin/contracts/token/ERC20/ERC20.sol\":3881:3887  amount */\n      dup6\n        /* \"@openzeppelin/contracts/token/ERC20/ERC20.sol\":3860:3869  _transfer */\n      tag_125\n        /* \"@openzeppelin/contracts/token/ERC20/ERC20.sol\":3860:3888  _transfer(owner, to, amount) */\n      jump\t// in\n    tag_170:\n        /* \"@openzeppelin/contracts/token/ERC20/ERC20.sol\":3905:3909  true */\n      0x01\n        /* \"@openzeppelin/contracts/token/ERC20/ERC20.sol\":3898:3909  return true */\n      swap2\n      pop\n      pop\n        /* \"@openzeppelin/contracts/token/ERC20/ERC20.sol\":3727:3916  function transfer(address to, uint256 amount) public virtual override returns (bool) {... */\n      swap3\n      swap2\n      pop\n      pop\n      jump\t// out\n        /* \"@openzeppelin/contracts/token/ERC20/ERC20.sol\":3974:4123  function allowance(address owner, address spender) public view virtual override returns (uint256) {... */\n    tag_105:\n        /* \"@openzeppelin/contracts/token/ERC20/ERC20.sol\":4063:4070  uint256 */\n      0x00\n        /* \"@openzeppelin/contracts/token/ERC20/ERC20.sol\":4089:4100  _allowances */\n      0x01\n        /* \"@openzeppelin/contracts/token/ERC20/ERC20.sol\":4089:4107  _allowances[owner] */\n      0x00\n        /* \"@openzeppelin/contracts/token/ERC20/ERC20.sol\":4101:4106  owner */\n      dup5\n        /* \"@openzeppelin/contracts/token/ERC20/ERC20.sol\":4089:4107  _allowances[owner] */\n      0xffffffffffffffffffffffffffffffffffffffff\n      and\n      0xffffffffffffffffffffffffffffffffffffffff\n      and\n      dup2\n      mstore\n      0x20\n      add\n      swap1\n      dup2\n      mstore\n      0x20\n      add\n      0x00\n      keccak256\n        /* \"@openzeppelin/contracts/token/ERC20/ERC20.sol\":4089:4116  _allowances[owner][spender] */\n      0x00\n        /* \"@openzeppelin/contracts/token/ERC20/ERC20.sol\":4108:4115  spender */\n      dup4\n        /* \"@openzeppelin/contracts/token/ERC20/ERC20.sol\":4089:4116  _allowances[owner][spender] */\n      0xffffffffffffffffffffffffffffffffffffffff\n      and\n      0xffffffffffffffffffffffffffffffffffffffff\n      and\n      dup2\n      mstore\n      0x20\n      add\n      swap1\n      dup2\n      mstore\n      0x20\n      add\n      0x00\n      keccak256\n      sload\n        /* \"@openzeppelin/contracts/token/ERC20/ERC20.sol\":4082:4116  return _allowances[owner][spender] */\n      swap1\n      pop\n        /* \"@openzeppelin/contracts/token/ERC20/ERC20.sol\":3974:4123  function allowance(address owner, address spender) public view virtual override returns (uint256) {... */\n      swap3\n      swap2\n      pop\n      pop\n      jump\t// out\n        /* \"@openzeppelin/contracts/utils/Context.sol\":640:736  function _msgSender() internal view virtual returns (address) {... */\n    tag_116:\n        /* \"@openzeppelin/contracts/utils/Context.sol\":693:700  address */\n      0x00\n        /* \"@openzeppelin/contracts/utils/Context.sol\":719:729  msg.sender */\n      caller\n        /* \"@openzeppelin/contracts/utils/Context.sol\":712:729  return msg.sender */\n      swap1\n      pop\n        /* \"@openzeppelin/contracts/utils/Context.sol\":640:736  function _msgSender() internal view virtual returns (address) {... */\n      swap1\n      jump\t// out\n        /* \"@openzeppelin/contracts/token/ERC20/ERC20.sol\":10504:10874  function _approve(... */\n    tag_118:\n        /* \"@openzeppelin/contracts/token/ERC20/ERC20.sol\":10652:10653  0 */\n      0x00\n        /* \"@openzeppelin/contracts/token/ERC20/ERC20.sol\":10635:10654  owner != address(0) */\n      0xffffffffffffffffffffffffffffffffffffffff\n      and\n        /* \"@openzeppelin/contracts/token/ERC20/ERC20.sol\":10635:10640  owner */\n      dup4\n        /* \"@openzeppelin/contracts/token/ERC20/ERC20.sol\":10635:10654  owner != address(0) */\n      0xffffffffffffffffffffffffffffffffffffffff\n      and\n      eq\n      iszero\n        /* \"@openzeppelin/contracts/token/ERC20/ERC20.sol\":10627:10695  require(owner != address(0), \"ERC20: approve from the zero address\") */\n      tag_174\n      jumpi\n      mload(0x40)\n      0x08c379a000000000000000000000000000000000000000000000000000000000\n      dup2\n      mstore\n      0x04\n      add\n      tag_175\n      swap1\n      tag_176\n      jump\t// in\n    tag_175:\n      mload(0x40)\n      dup1\n      swap2\n      sub\n      swap1\n      revert\n    tag_174:\n        /* \"@openzeppelin/contracts/token/ERC20/ERC20.sol\":10732:10733  0 */\n      0x00\n        /* \"@openzeppelin/contracts/token/ERC20/ERC20.sol\":10713:10734  spender != address(0) */\n      0xffffffffffffffffffffffffffffffffffffffff\n      and\n        /* \"@openzeppelin/contracts/token/ERC20/ERC20.sol\":10713:10720  spender */\n      dup3\n        /* \"@openzeppelin/contracts/token/ERC20/ERC20.sol\":10713:10734  spender != address(0) */\n      0xffffffffffffffffffffffffffffffffffffffff\n      and\n      eq\n      iszero\n        /* \"@openzeppelin/contracts/token/ERC20/ERC20.sol\":10705:10773  require(spender != address(0), \"ERC20: approve to the zero address\") */\n      tag_177\n      jumpi\n      mload(0x40)\n      0x08c379a000000000000000000000000000000000000000000000000000000000\n      dup2\n      mstore\n      0x04\n      add\n      tag_178\n      swap1\n      tag_179\n      jump\t// in\n    tag_178:\n      mload(0x40)\n      dup1\n      swap2\n      sub\n      swap1\n      revert\n    tag_177:\n        /* \"@openzeppelin/contracts/token/ERC20/ERC20.sol\":10814:10820  amount */\n      dup1\n        /* \"@openzeppelin/contracts/token/ERC20/ERC20.sol\":10784:10795  _allowances */\n      0x01\n        /* \"@openzeppelin/contracts/token/ERC20/ERC20.sol\":10784:10802  _allowances[owner] */\n      0x00\n        /* \"@openzeppelin/contracts/token/ERC20/ERC20.sol\":10796:10801  owner */\n      dup6\n        /* \"@openzeppelin/contracts/token/ERC20/ERC20.sol\":10784:10802  _allowances[owner] */\n      0xffffffffffffffffffffffffffffffffffffffff\n      and\n      0xffffffffffffffffffffffffffffffffffffffff\n      and\n      dup2\n      mstore\n      0x20\n      add\n      swap1\n      dup2\n      mstore\n      0x20\n      add\n      0x00\n      keccak256\n        /* \"@openzeppelin/contracts/token/ERC20/ERC20.sol\":10784:10811  _allowances[owner][spender] */\n      0x00\n        /* \"@openzeppelin/contracts/token/ERC20/ERC20.sol\":10803:10810  spender */\n      dup5\n        /* \"@openzeppelin/contracts/token/ERC20/ERC20.sol\":10784:10811  _allowances[owner][spender] */\n      0xffffffffffffffffffffffffffffffffffffffff\n      and\n      0xffffffffffffffffffffffffffffffffffffffff\n      and\n      dup2\n      mstore\n      0x20\n      add\n      swap1\n      dup2\n      mstore\n      0x20\n      add\n      0x00\n      keccak256\n        /* \"@openzeppelin/contracts/token/ERC20/ERC20.sol\":10784:10820  _allowances[owner][spender] = amount */\n      dup2\n      swap1\n      sstore\n      pop\n        /* \"@openzeppelin/contracts/token/ERC20/ERC20.sol\":10851:10858  spender */\n      dup2\n        /* \"@openzeppelin/contracts/token/ERC20/ERC20.sol\":10835:10867  Approval(owner, spender, amount) */\n      0xffffffffffffffffffffffffffffffffffffffff\n      and\n        /* \"@openzeppelin/contracts/token/ERC20/ERC20.sol\":10844:10849  owner */\n      dup4\n        /* \"@openzeppelin/contracts/token/ERC20/ERC20.sol\":10835:10867  Approval(owner, spender, amount) */\n      0xffffffffffffffffffffffffffffffffffffffff\n      and\n      0x8c5be1e5ebec7d5bd14f71427d1e84f3dd0314c0f7b2291e5b200ac8c7c3b925\n        /* \"@openzeppelin/contracts/token/ERC20/ERC20.sol\":10860:10866  amount */\n      dup4\n        /* \"@openzeppelin/contracts/token/ERC20/ERC20.sol\":10835:10867  Approval(owner, spender, amount) */\n      mload(0x40)\n      tag_180\n      swap2\n      swap1\n      tag_40\n      jump\t// in\n    tag_180:\n      mload(0x40)\n      dup1\n      swap2\n      sub\n      swap1\n      log3\n        /* \"@openzeppelin/contracts/token/ERC20/ERC20.sol\":10504:10874  function _approve(... */\n      pop\n      pop\n      pop\n      jump\t// out\n        /* \"@openzeppelin/contracts/token/ERC20/ERC20.sol\":11155:11596  function _spendAllowance(... */\n    tag_123:\n        /* \"@openzeppelin/contracts/token/ERC20/ERC20.sol\":11285:11309  uint256 currentAllowance */\n      0x00\n        /* \"@openzeppelin/contracts/token/ERC20/ERC20.sol\":11312:11337  allowance(owner, spender) */\n      tag_182\n        /* \"@openzeppelin/contracts/token/ERC20/ERC20.sol\":11322:11327  owner */\n      dup5\n        /* \"@openzeppelin/contracts/token/ERC20/ERC20.sol\":11329:11336  spender */\n      dup5\n        /* \"@openzeppelin/contracts/token/ERC20/ERC20.sol\":11312:11321  allowance */\n      tag_105\n        /* \"@openzeppelin/contracts/token/ERC20/ERC20.sol\":11312:11337  allowance(owner, spender) */\n      jump\t// in\n    tag_182:\n        /* \"@openzeppelin/contracts/token/ERC20/ERC20.sol\":11285:11337  uint256 currentAllowance = allowance(owner, spender) */\n      swap1\n      pop\n        /* \"@openzeppelin/contracts/token/ERC20/ERC20.sol\":11371:11388  type(uint256).max */\n      0xffffffffffffffffffffffffffffffffffffffffffffffffffffffffffffffff\n        /* \"@openzeppelin/contracts/token/ERC20/ERC20.sol\":11351:11367  currentAllowance */\n      dup2\n        /* \"@openzeppelin/contracts/token/ERC20/ERC20.sol\":11351:11388  currentAllowance != type(uint256).max */\n      eq\n        /* \"@openzeppelin/contracts/token/ERC20/ERC20.sol\":11347:11590  if (currentAllowance != type(uint256).max) {... */\n      tag_183\n      jumpi\n        /* \"@openzeppelin/contracts/token/ERC20/ERC20.sol\":11432:11438  amount */\n      dup2\n        /* \"@openzeppelin/contracts/token/ERC20/ERC20.sol\":11412:11428  currentAllowance */\n      dup2\n        /* \"@openzeppelin/contracts/token/ERC20/ERC20.sol\":11412:11438  currentAllowance >= amount */\n      lt\n      iszero\n        /* \"@openzeppelin/contracts/token/ERC20/ERC20.sol\":11404:11472  require(currentAllowance >= amount, \"ERC20: insufficient allowance\") */\n      tag_184\n      jumpi\n      mload(0x40)\n      0x08c379a000000000000000000000000000000000000000000000000000000000\n      dup2\n      mstore\n      0x04\n      add\n      tag_185\n      swap1\n      tag_186\n      jump\t// in\n    tag_185:\n      mload(0x40)\n      dup1\n      swap2\n      sub\n      swap1\n      revert\n    tag_184:\n        /* \"@openzeppelin/contracts/token/ERC20/ERC20.sol\":11514:11565  _approve(owner, spender, currentAllowance - amount) */\n      tag_187\n        /* \"@openzeppelin/contracts/token/ERC20/ERC20.sol\":11523:11528  owner */\n      dup5\n        /* \"@openzeppelin/contracts/token/ERC20/ERC20.sol\":11530:11537  spender */\n      dup5\n        /* \"@openzeppelin/contracts/token/ERC20/ERC20.sol\":11558:11564  amount */\n      dup5\n        /* \"@openzeppelin/contracts/token/ERC20/ERC20.sol\":11539:11555  currentAllowance */\n      dup5\n        /* \"@openzeppelin/contracts/token/ERC20/ERC20.sol\":11539:11564  currentAllowance - amount */\n      sub\n        /* \"@openzeppelin/contracts/token/ERC20/ERC20.sol\":11514:11522  _approve */\n      tag_118\n        /* \"@openzeppelin/contracts/token/ERC20/ERC20.sol\":11514:11565  _approve(owner, spender, currentAllowance - amount) */\n      jump\t// in\n    tag_187:\n        /* \"@openzeppelin/contracts/token/ERC20/ERC20.sol\":11347:11590  if (currentAllowance != type(uint256).max) {... */\n    tag_183:\n        /* \"@openzeppelin/contracts/token/ERC20/ERC20.sol\":11275:11596  {... */\n      pop\n        /* \"@openzeppelin/contracts/token/ERC20/ERC20.sol\":11155:11596  function _spendAllowance(... */\n      pop\n      pop\n      pop\n      jump\t// out\n        /* \"@openzeppelin/contracts/token/ERC20/ERC20.sol\":7473:8291  function _transfer(... */\n    tag_125:\n        /* \"@openzeppelin/contracts/token/ERC20/ERC20.sol\":7615:7616  0 */\n      0x00\n        /* \"@openzeppelin/contracts/token/ERC20/ERC20.sol\":7599:7617  from != address(0) */\n      0xffffffffffffffffffffffffffffffffffffffff\n      and\n        /* \"@openzeppelin/contracts/token/ERC20/ERC20.sol\":7599:7603  from */\n      dup4\n        /* \"@openzeppelin/contracts/token/ERC20/ERC20.sol\":7599:7617  from != address(0) */\n      0xffffffffffffffffffffffffffffffffffffffff\n      and\n      eq\n      iszero\n        /* \"@openzeppelin/contracts/token/ERC20/ERC20.sol\":7591:7659  require(from != address(0), \"ERC20: transfer from the zero address\") */\n      tag_189\n      jumpi\n      mload(0x40)\n      0x08c379a000000000000000000000000000000000000000000000000000000000\n      dup2\n      mstore\n      0x04\n      add\n      tag_190\n      swap1\n      tag_191\n      jump\t// in\n    tag_190:\n      mload(0x40)\n      dup1\n      swap2\n      sub\n      swap1\n      revert\n    tag_189:\n        /* \"@openzeppelin/contracts/token/ERC20/ERC20.sol\":7691:7692  0 */\n      0x00\n        /* \"@openzeppelin/contracts/token/ERC20/ERC20.sol\":7677:7693  to != address(0) */\n      0xffffffffffffffffffffffffffffffffffffffff\n      and\n        /* \"@openzeppelin/contracts/token/ERC20/ERC20.sol\":7677:7679  to */\n      dup3\n        /* \"@openzeppelin/contracts/token/ERC20/ERC20.sol\":7677:7693  to != address(0) */\n      0xffffffffffffffffffffffffffffffffffffffff\n      and\n      eq\n      iszero\n        /* \"@openzeppelin/contracts/token/ERC20/ERC20.sol\":7669:7733  require(to != address(0), \"ERC20: transfer to the zero address\") */\n      tag_192\n      jumpi\n      mload(0x40)\n      0x08c379a000000000000000000000000000000000000000000000000000000000\n      dup2\n      mstore\n      0x04\n      add\n      tag_193\n      swap1\n      tag_194\n      jump\t// in\n    tag_193:\n      mload(0x40)\n      dup1\n      swap2\n      sub\n      swap1\n      revert\n    tag_192:\n        /* \"@openzeppelin/contracts/token/ERC20/ERC20.sol\":7744:7782  _beforeTokenTransfer(from, to, amount) */\n      tag_195\n        /* \"@openzeppelin/contracts/token/ERC20/ERC20.sol\":7765:7769  from */\n      dup4\n        /* \"@openzeppelin/contracts/token/ERC20/ERC20.sol\":7771:7773  to */\n      dup4\n        /* \"@openzeppelin/contracts/token/ERC20/ERC20.sol\":7775:7781  amount */\n      dup4\n        /* \"@openzeppelin/contracts/token/ERC20/ERC20.sol\":7744:7764  _beforeTokenTransfer */\n      tag_196\n        /* \"@openzeppelin/contracts/token/ERC20/ERC20.sol\":7744:7782  _beforeTokenTransfer(from, to, amount) */\n      jump\t// in\n    tag_195:\n        /* \"@openzeppelin/contracts/token/ERC20/ERC20.sol\":7793:7812  uint256 fromBalance */\n      0x00\n        /* \"@openzeppelin/contracts/token/ERC20/ERC20.sol\":7815:7824  _balances */\n      dup1\n        /* \"@openzeppelin/contracts/token/ERC20/ERC20.sol\":7815:7830  _balances[from] */\n      0x00\n        /* \"@openzeppelin/contracts/token/ERC20/ERC20.sol\":7825:7829  from */\n      dup6\n        /* \"@openzeppelin/contracts/token/ERC20/ERC20.sol\":7815:7830  _balances[from] */\n      0xffffffffffffffffffffffffffffffffffffffff\n      and\n      0xffffffffffffffffffffffffffffffffffffffff\n      and\n      dup2\n      mstore\n      0x20\n      add\n      swap1\n      dup2\n      mstore\n      0x20\n      add\n      0x00\n      keccak256\n      sload\n        /* \"@openzeppelin/contracts/token/ERC20/ERC20.sol\":7793:7830  uint256 fromBalance = _balances[from] */\n      swap1\n      pop\n        /* \"@openzeppelin/contracts/token/ERC20/ERC20.sol\":7863:7869  amount */\n      dup2\n        /* \"@openzeppelin/contracts/token/ERC20/ERC20.sol\":7848:7859  fromBalance */\n      dup2\n        /* \"@openzeppelin/contracts/token/ERC20/ERC20.sol\":7848:7869  fromBalance >= amount */\n      lt\n      iszero\n        /* \"@openzeppelin/contracts/token/ERC20/ERC20.sol\":7840:7912  require(fromBalance >= amount, \"ERC20: transfer amount exceeds balance\") */\n      tag_197\n      jumpi\n      mload(0x40)\n      0x08c379a000000000000000000000000000000000000000000000000000000000\n      dup2\n      mstore\n      0x04\n      add\n      tag_198\n      swap1\n      tag_199\n      jump\t// in\n    tag_198:\n      mload(0x40)\n      dup1\n      swap2\n      sub\n      swap1\n      revert\n    tag_197:\n        /* \"@openzeppelin/contracts/token/ERC20/ERC20.sol\":7978:7984  amount */\n      dup2\n        /* \"@openzeppelin/contracts/token/ERC20/ERC20.sol\":7964:7975  fromBalance */\n      dup2\n        /* \"@openzeppelin/contracts/token/ERC20/ERC20.sol\":7964:7984  fromBalance - amount */\n      sub\n        /* \"@openzeppelin/contracts/token/ERC20/ERC20.sol\":7946:7955  _balances */\n      0x00\n        /* \"@openzeppelin/contracts/token/ERC20/ERC20.sol\":7946:7961  _balances[from] */\n      dup1\n        /* \"@openzeppelin/contracts/token/ERC20/ERC20.sol\":7956:7960  from */\n      dup7\n        /* \"@openzeppelin/contracts/token/ERC20/ERC20.sol\":7946:7961  _balances[from] */\n      0xffffffffffffffffffffffffffffffffffffffff\n      and\n      0xffffffffffffffffffffffffffffffffffffffff\n      and\n      dup2\n      mstore\n      0x20\n      add\n      swap1\n      dup2\n      mstore\n      0x20\n      add\n      0x00\n      keccak256\n        /* \"@openzeppelin/contracts/token/ERC20/ERC20.sol\":7946:7984  _balances[from] = fromBalance - amount */\n      dup2\n      swap1\n      sstore\n      pop\n        /* \"@openzeppelin/contracts/token/ERC20/ERC20.sol\":8178:8184  amount */\n      dup2\n        /* \"@openzeppelin/contracts/token/ERC20/ERC20.sol\":8161:8170  _balances */\n      0x00\n        /* \"@openzeppelin/contracts/token/ERC20/ERC20.sol\":8161:8174  _balances[to] */\n      dup1\n        /* \"@openzeppelin/contracts/token/ERC20/ERC20.sol\":8171:8173  to */\n      dup6\n        /* \"@openzeppelin/contracts/token/ERC20/ERC20.sol\":8161:8174  _balances[to] */\n      0xffffffffffffffffffffffffffffffffffffffff\n      and\n      0xffffffffffffffffffffffffffffffffffffffff\n      and\n      dup2\n      mstore\n      0x20\n      add\n      swap1\n      dup2\n      mstore\n      0x20\n      add\n      0x00\n      keccak256\n      0x00\n        /* \"@openzeppelin/contracts/token/ERC20/ERC20.sol\":8161:8184  _balances[to] += amount */\n      dup3\n      dup3\n      sload\n      add\n      swap3\n      pop\n      pop\n      dup2\n      swap1\n      sstore\n      pop\n        /* \"@openzeppelin/contracts/token/ERC20/ERC20.sol\":8225:8227  to */\n      dup3\n        /* \"@openzeppelin/contracts/token/ERC20/ERC20.sol\":8210:8236  Transfer(from, to, amount) */\n      0xffffffffffffffffffffffffffffffffffffffff\n      and\n        /* \"@openzeppelin/contracts/token/ERC20/ERC20.sol\":8219:8223  from */\n      dup5\n        /* \"@openzeppelin/contracts/token/ERC20/ERC20.sol\":8210:8236  Transfer(from, to, amount) */\n      0xffffffffffffffffffffffffffffffffffffffff\n      and\n      0xddf252ad1be2c89b69c2b068fc378daa952ba7f163c4a11628f55a4df523b3ef\n        /* \"@openzeppelin/contracts/token/ERC20/ERC20.sol\":8229:8235  amount */\n      dup5\n        /* \"@openzeppelin/contracts/token/ERC20/ERC20.sol\":8210:8236  Transfer(from, to, amount) */\n      mload(0x40)\n      tag_200\n      swap2\n      swap1\n      tag_40\n      jump\t// in\n    tag_200:\n      mload(0x40)\n      dup1\n      swap2\n      sub\n      swap1\n      log3\n        /* \"@openzeppelin/contracts/token/ERC20/ERC20.sol\":8247:8284  _afterTokenTransfer(from, to, amount) */\n      tag_201\n        /* \"@openzeppelin/contracts/token/ERC20/ERC20.sol\":8267:8271  from */\n      dup5\n        /* \"@openzeppelin/contracts/token/ERC20/ERC20.sol\":8273:8275  to */\n      dup5\n        /* \"@openzeppelin/contracts/token/ERC20/ERC20.sol\":8277:8283  amount */\n      dup5\n        /* \"@openzeppelin/contracts/token/ERC20/ERC20.sol\":8247:8266  _afterTokenTransfer */\n      tag_202\n        /* \"@openzeppelin/contracts/token/ERC20/ERC20.sol\":8247:8284  _afterTokenTransfer(from, to, amount) */\n      jump\t// in\n    tag_201:\n        /* \"@openzeppelin/contracts/token/ERC20/ERC20.sol\":7581:8291  {... */\n      pop\n        /* \"@openzeppelin/contracts/token/ERC20/ERC20.sol\":7473:8291  function _transfer(... */\n      pop\n      pop\n      pop\n      jump\t// out\n        /* \"@openzeppelin/contracts/token/ERC20/ERC20.sol\":8567:9102  function _mint(address account, uint256 amount) internal virtual {... */\n    tag_137:\n        /* \"@openzeppelin/contracts/token/ERC20/ERC20.sol\":8669:8670  0 */\n      0x00\n        /* \"@openzeppelin/contracts/token/ERC20/ERC20.sol\":8650:8671  account != address(0) */\n      0xffffffffffffffffffffffffffffffffffffffff\n      and\n        /* \"@openzeppelin/contracts/token/ERC20/ERC20.sol\":8650:8657  account */\n      dup3\n        /* \"@openzeppelin/contracts/token/ERC20/ERC20.sol\":8650:8671  account != address(0) */\n      0xffffffffffffffffffffffffffffffffffffffff\n      and\n      eq\n      iszero\n        /* \"@openzeppelin/contracts/token/ERC20/ERC20.sol\":8642:8707  require(account != address(0), \"ERC20: mint to the zero address\") */\n      tag_204\n      jumpi\n      mload(0x40)\n      0x08c379a000000000000000000000000000000000000000000000000000000000\n      dup2\n      mstore\n      0x04\n      add\n      tag_205\n      swap1\n      tag_206\n      jump\t// in\n    tag_205:\n      mload(0x40)\n      dup1\n      swap2\n      sub\n      swap1\n      revert\n    tag_204:\n        /* \"@openzeppelin/contracts/token/ERC20/ERC20.sol\":8718:8767  _beforeTokenTransfer(address(0), account, amount) */\n      tag_207\n        /* \"@openzeppelin/contracts/token/ERC20/ERC20.sol\":8747:8748  0 */\n      0x00\n        /* \"@openzeppelin/contracts/token/ERC20/ERC20.sol\":8751:8758  account */\n      dup4\n        /* \"@openzeppelin/contracts/token/ERC20/ERC20.sol\":8760:8766  amount */\n      dup4\n        /* \"@openzeppelin/contracts/token/ERC20/ERC20.sol\":8718:8738  _beforeTokenTransfer */\n      tag_196\n        /* \"@openzeppelin/contracts/token/ERC20/ERC20.sol\":8718:8767  _beforeTokenTransfer(address(0), account, amount) */\n      jump\t// in\n    tag_207:\n        /* \"@openzeppelin/contracts/token/ERC20/ERC20.sol\":8794:8800  amount */\n      dup1\n        /* \"@openzeppelin/contracts/token/ERC20/ERC20.sol\":8778:8790  _totalSupply */\n      0x02\n      0x00\n        /* \"@openzeppelin/contracts/token/ERC20/ERC20.sol\":8778:8800  _totalSupply += amount */\n      dup3\n      dup3\n      sload\n      tag_208\n      swap2\n      swap1\n      tag_132\n      jump\t// in\n    tag_208:\n      swap3\n      pop\n      pop\n      dup2\n      swap1\n      sstore\n      pop\n        /* \"@openzeppelin/contracts/token/ERC20/ERC20.sol\":8968:8974  amount */\n      dup1\n        /* \"@openzeppelin/contracts/token/ERC20/ERC20.sol\":8946:8955  _balances */\n      0x00\n        /* \"@openzeppelin/contracts/token/ERC20/ERC20.sol\":8946:8964  _balances[account] */\n      dup1\n        /* \"@openzeppelin/contracts/token/ERC20/ERC20.sol\":8956:8963  account */\n      dup5\n        /* \"@openzeppelin/contracts/token/ERC20/ERC20.sol\":8946:8964  _balances[account] */\n      0xffffffffffffffffffffffffffffffffffffffff\n      and\n      0xffffffffffffffffffffffffffffffffffffffff\n      and\n      dup2\n      mstore\n      0x20\n      add\n      swap1\n      dup2\n      mstore\n      0x20\n      add\n      0x00\n      keccak256\n      0x00\n        /* \"@openzeppelin/contracts/token/ERC20/ERC20.sol\":8946:8974  _balances[account] += amount */\n      dup3\n      dup3\n      sload\n      add\n      swap3\n      pop\n      pop\n      dup2\n      swap1\n      sstore\n      pop\n        /* \"@openzeppelin/contracts/token/ERC20/ERC20.sol\":9020:9027  account */\n      dup2\n        /* \"@openzeppelin/contracts/token/ERC20/ERC20.sol\":8999:9036  Transfer(address(0), account, amount) */\n      0xffffffffffffffffffffffffffffffffffffffff\n      and\n        /* \"@openzeppelin/contracts/token/ERC20/ERC20.sol\":9016:9017  0 */\n      0x00\n        /* \"@openzeppelin/contracts/token/ERC20/ERC20.sol\":8999:9036  Transfer(address(0), account, amount) */\n      0xffffffffffffffffffffffffffffffffffffffff\n      and\n      0xddf252ad1be2c89b69c2b068fc378daa952ba7f163c4a11628f55a4df523b3ef\n        /* \"@openzeppelin/contracts/token/ERC20/ERC20.sol\":9029:9035  amount */\n      dup4\n        /* \"@openzeppelin/contracts/token/ERC20/ERC20.sol\":8999:9036  Transfer(address(0), account, amount) */\n      mload(0x40)\n      tag_209\n      swap2\n      swap1\n      tag_40\n      jump\t// in\n    tag_209:\n      mload(0x40)\n      dup1\n      swap2\n      sub\n      swap1\n      log3\n        /* \"@openzeppelin/contracts/token/ERC20/ERC20.sol\":9047:9095  _afterTokenTransfer(address(0), account, amount) */\n      tag_210\n        /* \"@openzeppelin/contracts/token/ERC20/ERC20.sol\":9075:9076  0 */\n      0x00\n        /* \"@openzeppelin/contracts/token/ERC20/ERC20.sol\":9079:9086  account */\n      dup4\n        /* \"@openzeppelin/contracts/token/ERC20/ERC20.sol\":9088:9094  amount */\n      dup4\n        /* \"@openzeppelin/contracts/token/ERC20/ERC20.sol\":9047:9066  _afterTokenTransfer */\n      tag_202\n        /* \"@openzeppelin/contracts/token/ERC20/ERC20.sol\":9047:9095  _afterTokenTransfer(address(0), account, amount) */\n      jump\t// in\n    tag_210:\n        /* \"@openzeppelin/contracts/token/ERC20/ERC20.sol\":8567:9102  function _mint(address account, uint256 amount) internal virtual {... */\n      pop\n      pop\n      jump\t// out\n        /* \"@openzeppelin/contracts/token/ERC20/ERC20.sol\":9422:10081  function _burn(address account, uint256 amount) internal virtual {... */\n    tag_147:\n        /* \"@openzeppelin/contracts/token/ERC20/ERC20.sol\":9524:9525  0 */\n      0x00\n        /* \"@openzeppelin/contracts/token/ERC20/ERC20.sol\":9505:9526  account != address(0) */\n      0xffffffffffffffffffffffffffffffffffffffff\n      and\n        /* \"@openzeppelin/contracts/token/ERC20/ERC20.sol\":9505:9512  account */\n      dup3\n        /* \"@openzeppelin/contracts/token/ERC20/ERC20.sol\":9505:9526  account != address(0) */\n      0xffffffffffffffffffffffffffffffffffffffff\n      and\n      eq\n      iszero\n        /* \"@openzeppelin/contracts/token/ERC20/ERC20.sol\":9497:9564  require(account != address(0), \"ERC20: burn from the zero address\") */\n      tag_212\n      jumpi\n      mload(0x40)\n      0x08c379a000000000000000000000000000000000000000000000000000000000\n      dup2\n      mstore\n      0x04\n      add\n      tag_213\n      swap1\n      tag_214\n      jump\t// in\n    tag_213:\n      mload(0x40)\n      dup1\n      swap2\n      sub\n      swap1\n      revert\n    tag_212:\n        /* \"@openzeppelin/contracts/token/ERC20/ERC20.sol\":9575:9624  _beforeTokenTransfer(account, address(0), amount) */\n      tag_215\n        /* \"@openzeppelin/contracts/token/ERC20/ERC20.sol\":9596:9603  account */\n      dup3\n        /* \"@openzeppelin/contracts/token/ERC20/ERC20.sol\":9613:9614  0 */\n      0x00\n        /* \"@openzeppelin/contracts/token/ERC20/ERC20.sol\":9617:9623  amount */\n      dup4\n        /* \"@openzeppelin/contracts/token/ERC20/ERC20.sol\":9575:9595  _beforeTokenTransfer */\n      tag_196\n        /* \"@openzeppelin/contracts/token/ERC20/ERC20.sol\":9575:9624  _beforeTokenTransfer(account, address(0), amount) */\n      jump\t// in\n    tag_215:\n        /* \"@openzeppelin/contracts/token/ERC20/ERC20.sol\":9635:9657  uint256 accountBalance */\n      0x00\n        /* \"@openzeppelin/contracts/token/ERC20/ERC20.sol\":9660:9669  _balances */\n      dup1\n        /* \"@openzeppelin/contracts/token/ERC20/ERC20.sol\":9660:9678  _balances[account] */\n      0x00\n        /* \"@openzeppelin/contracts/token/ERC20/ERC20.sol\":9670:9677  account */\n      dup5\n        /* \"@openzeppelin/contracts/token/ERC20/ERC20.sol\":9660:9678  _balances[account] */\n      0xffffffffffffffffffffffffffffffffffffffff\n      and\n      0xffffffffffffffffffffffffffffffffffffffff\n      and\n      dup2\n      mstore\n      0x20\n      add\n      swap1\n      dup2\n      mstore\n      0x20\n      add\n      0x00\n      keccak256\n      sload\n        /* \"@openzeppelin/contracts/token/ERC20/ERC20.sol\":9635:9678  uint256 accountBalance = _balances[account] */\n      swap1\n      pop\n        /* \"@openzeppelin/contracts/token/ERC20/ERC20.sol\":9714:9720  amount */\n      dup2\n        /* \"@openzeppelin/contracts/token/ERC20/ERC20.sol\":9696:9710  accountBalance */\n      dup2\n        /* \"@openzeppelin/contracts/token/ERC20/ERC20.sol\":9696:9720  accountBalance >= amount */\n      lt\n      iszero\n        /* \"@openzeppelin/contracts/token/ERC20/ERC20.sol\":9688:9759  require(accountBalance >= amount, \"ERC20: burn amount exceeds balance\") */\n      tag_216\n      jumpi\n      mload(0x40)\n      0x08c379a000000000000000000000000000000000000000000000000000000000\n      dup2\n      mstore\n      0x04\n      add\n      tag_217\n      swap1\n      tag_218\n      jump\t// in\n    tag_217:\n      mload(0x40)\n      dup1\n      swap2\n      sub\n      swap1\n      revert\n    tag_216:\n        /* \"@openzeppelin/contracts/token/ERC20/ERC20.sol\":9831:9837  amount */\n      dup2\n        /* \"@openzeppelin/contracts/token/ERC20/ERC20.sol\":9814:9828  accountBalance */\n      dup2\n        /* \"@openzeppelin/contracts/token/ERC20/ERC20.sol\":9814:9837  accountBalance - amount */\n      sub\n        /* \"@openzeppelin/contracts/token/ERC20/ERC20.sol\":9793:9802  _balances */\n      0x00\n        /* \"@openzeppelin/contracts/token/ERC20/ERC20.sol\":9793:9811  _balances[account] */\n      dup1\n        /* \"@openzeppelin/contracts/token/ERC20/ERC20.sol\":9803:9810  account */\n      dup6\n        /* \"@openzeppelin/contracts/token/ERC20/ERC20.sol\":9793:9811  _balances[account] */\n      0xffffffffffffffffffffffffffffffffffffffff\n      and\n      0xffffffffffffffffffffffffffffffffffffffff\n      and\n      dup2\n      mstore\n      0x20\n      add\n      swap1\n      dup2\n      mstore\n      0x20\n      add\n      0x00\n      keccak256\n        /* \"@openzeppelin/contracts/token/ERC20/ERC20.sol\":9793:9837  _balances[account] = accountBalance - amount */\n      dup2\n      swap1\n      sstore\n      pop\n        /* \"@openzeppelin/contracts/token/ERC20/ERC20.sol\":9946:9952  amount */\n      dup2\n        /* \"@openzeppelin/contracts/token/ERC20/ERC20.sol\":9930:9942  _totalSupply */\n      0x02\n      0x00\n        /* \"@openzeppelin/contracts/token/ERC20/ERC20.sol\":9930:9952  _totalSupply -= amount */\n      dup3\n      dup3\n      sload\n      sub\n      swap3\n      pop\n      pop\n      dup2\n      swap1\n      sstore\n      pop\n        /* \"@openzeppelin/contracts/token/ERC20/ERC20.sol\":10004:10005  0 */\n      0x00\n        /* \"@openzeppelin/contracts/token/ERC20/ERC20.sol\":9978:10015  Transfer(account, address(0), amount) */\n      0xffffffffffffffffffffffffffffffffffffffff\n      and\n        /* \"@openzeppelin/contracts/token/ERC20/ERC20.sol\":9987:9994  account */\n      dup4\n        /* \"@openzeppelin/contracts/token/ERC20/ERC20.sol\":9978:10015  Transfer(account, address(0), amount) */\n      0xffffffffffffffffffffffffffffffffffffffff\n      and\n      0xddf252ad1be2c89b69c2b068fc378daa952ba7f163c4a11628f55a4df523b3ef\n        /* \"@openzeppelin/contracts/token/ERC20/ERC20.sol\":10008:10014  amount */\n      dup5\n        /* \"@openzeppelin/contracts/token/ERC20/ERC20.sol\":9978:10015  Transfer(account, address(0), amount) */\n      mload(0x40)\n      tag_219\n      swap2\n      swap1\n      tag_40\n      jump\t// in\n    tag_219:\n      mload(0x40)\n      dup1\n      swap2\n      sub\n      swap1\n      log3\n        /* \"@openzeppelin/contracts/token/ERC20/ERC20.sol\":10026:10074  _afterTokenTransfer(account, address(0), amount) */\n      tag_220\n        /* \"@openzeppelin/contracts/token/ERC20/ERC20.sol\":10046:10053  account */\n      dup4\n        /* \"@openzeppelin/contracts/token/ERC20/ERC20.sol\":10063:10064  0 */\n      0x00\n        /* \"@openzeppelin/contracts/token/ERC20/ERC20.sol\":10067:10073  amount */\n      dup5\n        /* \"@openzeppelin/contracts/token/ERC20/ERC20.sol\":10026:10045  _afterTokenTransfer */\n      tag_202\n        /* \"@openzeppelin/contracts/token/ERC20/ERC20.sol\":10026:10074  _afterTokenTransfer(account, address(0), amount) */\n      jump\t// in\n    tag_220:\n        /* \"@openzeppelin/contracts/token/ERC20/ERC20.sol\":9487:10081  {... */\n      pop\n        /* \"@openzeppelin/contracts/token/ERC20/ERC20.sol\":9422:10081  function _burn(address account, uint256 amount) internal virtual {... */\n      pop\n      pop\n      jump\t// out\n        /* \"@openzeppelin/contracts/token/ERC20/ERC20.sol\":12180:12301  function _beforeTokenTransfer(... */\n    tag_196:\n      pop\n      pop\n      pop\n      jump\t// out\n        /* \"@openzeppelin/contracts/token/ERC20/ERC20.sol\":12889:13009  function _afterTokenTransfer(... */\n    tag_202:\n      pop\n      pop\n      pop\n      jump\t// out\n        /* \"#utility.yul\":7:146   */\n    tag_224:\n        /* \"#utility.yul\":53:58   */\n      0x00\n        /* \"#utility.yul\":91:97   */\n      dup2\n        /* \"#utility.yul\":78:98   */\n      calldataload\n        /* \"#utility.yul\":69:98   */\n      swap1\n      pop\n        /* \"#utility.yul\":107:140   */\n      tag_226\n        /* \"#utility.yul\":134:139   */\n      dup2\n        /* \"#utility.yul\":107:140   */\n      tag_227\n      jump\t// in\n    tag_226:\n        /* \"#utility.yul\":7:146   */\n      swap3\n      swap2\n      pop\n      pop\n      jump\t// out\n        /* \"#utility.yul\":152:291   */\n    tag_228:\n        /* \"#utility.yul\":198:203   */\n      0x00\n        /* \"#utility.yul\":236:242   */\n      dup2\n        /* \"#utility.yul\":223:243   */\n      calldataload\n        /* \"#utility.yul\":214:243   */\n      swap1\n      pop\n        /* \"#utility.yul\":252:285   */\n      tag_230\n        /* \"#utility.yul\":279:284   */\n      dup2\n        /* \"#utility.yul\":252:285   */\n      tag_231\n      jump\t// in\n    tag_230:\n        /* \"#utility.yul\":152:291   */\n      swap3\n      swap2\n      pop\n      pop\n      jump\t// out\n        /* \"#utility.yul\":297:626   */\n    tag_79:\n        /* \"#utility.yul\":356:362   */\n      0x00\n        /* \"#utility.yul\":405:407   */\n      0x20\n        /* \"#utility.yul\":393:402   */\n      dup3\n        /* \"#utility.yul\":384:391   */\n      dup5\n        /* \"#utility.yul\":380:403   */\n      sub\n        /* \"#utility.yul\":376:408   */\n      slt\n        /* \"#utility.yul\":373:492   */\n      iszero\n      tag_233\n      jumpi\n        /* \"#utility.yul\":411:490   */\n      tag_234\n      tag_235\n      jump\t// in\n    tag_234:\n        /* \"#utility.yul\":373:492   */\n    tag_233:\n        /* \"#utility.yul\":531:532   */\n      0x00\n        /* \"#utility.yul\":556:609   */\n      tag_236\n        /* \"#utility.yul\":601:608   */\n      dup5\n        /* \"#utility.yul\":592:598   */\n      dup3\n        /* \"#utility.yul\":581:590   */\n      dup6\n        /* \"#utility.yul\":577:599   */\n      add\n        /* \"#utility.yul\":556:609   */\n      tag_224\n      jump\t// in\n    tag_236:\n        /* \"#utility.yul\":546:609   */\n      swap2\n      pop\n        /* \"#utility.yul\":502:619   */\n      pop\n        /* \"#utility.yul\":297:626   */\n      swap3\n      swap2\n      pop\n      pop\n      jump\t// out\n        /* \"#utility.yul\":632:1106   */\n    tag_104:\n        /* \"#utility.yul\":700:706   */\n      0x00\n        /* \"#utility.yul\":708:714   */\n      dup1\n        /* \"#utility.yul\":757:759   */\n      0x40\n        /* \"#utility.yul\":745:754   */\n      dup4\n        /* \"#utility.yul\":736:743   */\n      dup6\n        /* \"#utility.yul\":732:755   */\n      sub\n        /* \"#utility.yul\":728:760   */\n      slt\n        /* \"#utility.yul\":725:844   */\n      iszero\n      tag_238\n      jumpi\n        /* \"#utility.yul\":763:842   */\n      tag_239\n      tag_235\n      jump\t// in\n    tag_239:\n        /* \"#utility.yul\":725:844   */\n    tag_238:\n        /* \"#utility.yul\":883:884   */\n      0x00\n        /* \"#utility.yul\":908:961   */\n      tag_240\n        /* \"#utility.yul\":953:960   */\n      dup6\n        /* \"#utility.yul\":944:950   */\n      dup3\n        /* \"#utility.yul\":933:942   */\n      dup7\n        /* \"#utility.yul\":929:951   */\n      add\n        /* \"#utility.yul\":908:961   */\n      tag_224\n      jump\t// in\n    tag_240:\n        /* \"#utility.yul\":898:961   */\n      swap3\n      pop\n        /* \"#utility.yul\":854:971   */\n      pop\n        /* \"#utility.yul\":1010:1012   */\n      0x20\n        /* \"#utility.yul\":1036:1089   */\n      tag_241\n        /* \"#utility.yul\":1081:1088   */\n      dup6\n        /* \"#utility.yul\":1072:1078   */\n      dup3\n        /* \"#utility.yul\":1061:1070   */\n      dup7\n        /* \"#utility.yul\":1057:1079   */\n      add\n        /* \"#utility.yul\":1036:1089   */\n      tag_224\n      jump\t// in\n    tag_241:\n        /* \"#utility.yul\":1026:1089   */\n      swap2\n      pop\n        /* \"#utility.yul\":981:1099   */\n      pop\n        /* \"#utility.yul\":632:1106   */\n      swap3\n      pop\n      swap3\n      swap1\n      pop\n      jump\t// out\n        /* \"#utility.yul\":1112:1731   */\n    tag_49:\n        /* \"#utility.yul\":1189:1195   */\n      0x00\n        /* \"#utility.yul\":1197:1203   */\n      dup1\n        /* \"#utility.yul\":1205:1211   */\n      0x00\n        /* \"#utility.yul\":1254:1256   */\n      0x60\n        /* \"#utility.yul\":1242:1251   */\n      dup5\n        /* \"#utility.yul\":1233:1240   */\n      dup7\n        /* \"#utility.yul\":1229:1252   */\n      sub\n        /* \"#utility.yul\":1225:1257   */\n      slt\n        /* \"#utility.yul\":1222:1341   */\n      iszero\n      tag_243\n      jumpi\n        /* \"#utility.yul\":1260:1339   */\n      tag_244\n      tag_235\n      jump\t// in\n    tag_244:\n        /* \"#utility.yul\":1222:1341   */\n    tag_243:\n        /* \"#utility.yul\":1380:1381   */\n      0x00\n        /* \"#utility.yul\":1405:1458   */\n      tag_245\n        /* \"#utility.yul\":1450:1457   */\n      dup7\n        /* \"#utility.yul\":1441:1447   */\n      dup3\n        /* \"#utility.yul\":1430:1439   */\n      dup8\n        /* \"#utility.yul\":1426:1448   */\n      add\n        /* \"#utility.yul\":1405:1458   */\n      tag_224\n      jump\t// in\n    tag_245:\n        /* \"#utility.yul\":1395:1458   */\n      swap4\n      pop\n        /* \"#utility.yul\":1351:1468   */\n      pop\n        /* \"#utility.yul\":1507:1509   */\n      0x20\n        /* \"#utility.yul\":1533:1586   */\n      tag_246\n        /* \"#utility.yul\":1578:1585   */\n      dup7\n        /* \"#utility.yul\":1569:1575   */\n      dup3\n        /* \"#utility.yul\":1558:1567   */\n      dup8\n        /* \"#utility.yul\":1554:1576   */\n      add\n        /* \"#utility.yul\":1533:1586   */\n      tag_224\n      jump\t// in\n    tag_246:\n        /* \"#utility.yul\":1523:1586   */\n      swap3\n      pop\n        /* \"#utility.yul\":1478:1596   */\n      pop\n        /* \"#utility.yul\":1635:1637   */\n      0x40\n        /* \"#utility.yul\":1661:1714   */\n      tag_247\n        /* \"#utility.yul\":1706:1713   */\n      dup7\n        /* \"#utility.yul\":1697:1703   */\n      dup3\n        /* \"#utility.yul\":1686:1695   */\n      dup8\n        /* \"#utility.yul\":1682:1704   */\n      add\n        /* \"#utility.yul\":1661:1714   */\n      tag_228\n      jump\t// in\n    tag_247:\n        /* \"#utility.yul\":1651:1714   */\n      swap2\n      pop\n        /* \"#utility.yul\":1606:1724   */\n      pop\n        /* \"#utility.yul\":1112:1731   */\n      swap3\n      pop\n      swap3\n      pop\n      swap3\n      jump\t// out\n        /* \"#utility.yul\":1737:2211   */\n    tag_32:\n        /* \"#utility.yul\":1805:1811   */\n      0x00\n        /* \"#utility.yul\":1813:1819   */\n      dup1\n        /* \"#utility.yul\":1862:1864   */\n      0x40\n        /* \"#utility.yul\":1850:1859   */\n      dup4\n        /* \"#utility.yul\":1841:1848   */\n      dup6\n        /* \"#utility.yul\":1837:1860   */\n      sub\n        /* \"#utility.yul\":1833:1865   */\n      slt\n        /* \"#utility.yul\":1830:1949   */\n      iszero\n      tag_249\n      jumpi\n        /* \"#utility.yul\":1868:1947   */\n      tag_250\n      tag_235\n      jump\t// in\n    tag_250:\n        /* \"#utility.yul\":1830:1949   */\n    tag_249:\n        /* \"#utility.yul\":1988:1989   */\n      0x00\n        /* \"#utility.yul\":2013:2066   */\n      tag_251\n        /* \"#utility.yul\":2058:2065   */\n      dup6\n        /* \"#utility.yul\":2049:2055   */\n      dup3\n        /* \"#utility.yul\":2038:2047   */\n      dup7\n        /* \"#utility.yul\":2034:2056   */\n      add\n        /* \"#utility.yul\":2013:2066   */\n      tag_224\n      jump\t// in\n    tag_251:\n        /* \"#utility.yul\":2003:2066   */\n      swap3\n      pop\n        /* \"#utility.yul\":1959:2076   */\n      pop\n        /* \"#utility.yul\":2115:2117   */\n      0x20\n        /* \"#utility.yul\":2141:2194   */\n      tag_252\n        /* \"#utility.yul\":2186:2193   */\n      dup6\n        /* \"#utility.yul\":2177:2183   */\n      dup3\n        /* \"#utility.yul\":2166:2175   */\n      dup7\n        /* \"#utility.yul\":2162:2184   */\n      add\n        /* \"#utility.yul\":2141:2194   */\n      tag_228\n      jump\t// in\n    tag_252:\n        /* \"#utility.yul\":2131:2194   */\n      swap2\n      pop\n        /* \"#utility.yul\":2086:2204   */\n      pop\n        /* \"#utility.yul\":1737:2211   */\n      swap3\n      pop\n      swap3\n      swap1\n      pop\n      jump\t// out\n        /* \"#utility.yul\":2217:2546   */\n    tag_73:\n        /* \"#utility.yul\":2276:2282   */\n      0x00\n        /* \"#utility.yul\":2325:2327   */\n      0x20\n        /* \"#utility.yul\":2313:2322   */\n      dup3\n        /* \"#utility.yul\":2304:2311   */\n      dup5\n        /* \"#utility.yul\":2300:2323   */\n      sub\n        /* \"#utility.yul\":2296:2328   */\n      slt\n        /* \"#utility.yul\":2293:2412   */\n      iszero\n      tag_254\n      jumpi\n        /* \"#utility.yul\":2331:2410   */\n      tag_255\n      tag_235\n      jump\t// in\n    tag_255:\n        /* \"#utility.yul\":2293:2412   */\n    tag_254:\n        /* \"#utility.yul\":2451:2452   */\n      0x00\n        /* \"#utility.yul\":2476:2529   */\n      tag_256\n        /* \"#utility.yul\":2521:2528   */\n      dup5\n        /* \"#utility.yul\":2512:2518   */\n      dup3\n        /* \"#utility.yul\":2501:2510   */\n      dup6\n        /* \"#utility.yul\":2497:2519   */\n      add\n        /* \"#utility.yul\":2476:2529   */\n      tag_228\n      jump\t// in\n    tag_256:\n        /* \"#utility.yul\":2466:2529   */\n      swap2\n      pop\n        /* \"#utility.yul\":2422:2539   */\n      pop\n        /* \"#utility.yul\":2217:2546   */\n      swap3\n      swap2\n      pop\n      pop\n      jump\t// out\n        /* \"#utility.yul\":2552:2694   */\n    tag_257:\n        /* \"#utility.yul\":2655:2687   */\n      tag_259\n        /* \"#utility.yul\":2681:2686   */\n      dup2\n        /* \"#utility.yul\":2655:2687   */\n      tag_260\n      jump\t// in\n    tag_259:\n        /* \"#utility.yul\":2650:2653   */\n      dup3\n        /* \"#utility.yul\":2643:2688   */\n      mstore\n        /* \"#utility.yul\":2552:2694   */\n      pop\n      pop\n      jump\t// out\n        /* \"#utility.yul\":2700:2809   */\n    tag_261:\n        /* \"#utility.yul\":2781:2802   */\n      tag_263\n        /* \"#utility.yul\":2796:2801   */\n      dup2\n        /* \"#utility.yul\":2781:2802   */\n      tag_264\n      jump\t// in\n    tag_263:\n        /* \"#utility.yul\":2776:2779   */\n      dup3\n        /* \"#utility.yul\":2769:2803   */\n      mstore\n        /* \"#utility.yul\":2700:2809   */\n      pop\n      pop\n      jump\t// out\n        /* \"#utility.yul\":2815:3179   */\n    tag_265:\n        /* \"#utility.yul\":2903:2906   */\n      0x00\n        /* \"#utility.yul\":2931:2970   */\n      tag_267\n        /* \"#utility.yul\":2964:2969   */\n      dup3\n        /* \"#utility.yul\":2931:2970   */\n      tag_268\n      jump\t// in\n    tag_267:\n        /* \"#utility.yul\":2986:3057   */\n      tag_269\n        /* \"#utility.yul\":3050:3056   */\n      dup2\n        /* \"#utility.yul\":3045:3048   */\n      dup6\n        /* \"#utility.yul\":2986:3057   */\n      tag_270\n      jump\t// in\n    tag_269:\n        /* \"#utility.yul\":2979:3057   */\n      swap4\n      pop\n        /* \"#utility.yul\":3066:3118   */\n      tag_271\n        /* \"#utility.yul\":3111:3117   */\n      dup2\n        /* \"#utility.yul\":3106:3109   */\n      dup6\n        /* \"#utility.yul\":3099:3103   */\n      0x20\n        /* \"#utility.yul\":3092:3097   */\n      dup7\n        /* \"#utility.yul\":3088:3104   */\n      add\n        /* \"#utility.yul\":3066:3118   */\n      tag_272\n      jump\t// in\n    tag_271:\n        /* \"#utility.yul\":3143:3172   */\n      tag_273\n        /* \"#utility.yul\":3165:3171   */\n      dup2\n        /* \"#utility.yul\":3143:3172   */\n      tag_274\n      jump\t// in\n    tag_273:\n        /* \"#utility.yul\":3138:3141   */\n      dup5\n        /* \"#utility.yul\":3134:3173   */\n      add\n        /* \"#utility.yul\":3127:3173   */\n      swap2\n      pop\n        /* \"#utility.yul\":2907:3179   */\n      pop\n        /* \"#utility.yul\":2815:3179   */\n      swap3\n      swap2\n      pop\n      pop\n      jump\t// out\n        /* \"#utility.yul\":3185:3551   */\n    tag_275:\n        /* \"#utility.yul\":3327:3330   */\n      0x00\n        /* \"#utility.yul\":3348:3415   */\n      tag_277\n        /* \"#utility.yul\":3412:3414   */\n      0x23\n        /* \"#utility.yul\":3407:3410   */\n      dup4\n        /* \"#utility.yul\":3348:3415   */\n      tag_270\n      jump\t// in\n    tag_277:\n        /* \"#utility.yul\":3341:3415   */\n      swap2\n      pop\n        /* \"#utility.yul\":3424:3517   */\n      tag_278\n        /* \"#utility.yul\":3513:3516   */\n      dup3\n        /* \"#utility.yul\":3424:3517   */\n      tag_279\n      jump\t// in\n    tag_278:\n        /* \"#utility.yul\":3542:3544   */\n      0x40\n        /* \"#utility.yul\":3537:3540   */\n      dup3\n        /* \"#utility.yul\":3533:3545   */\n      add\n        /* \"#utility.yul\":3526:3545   */\n      swap1\n      pop\n        /* \"#utility.yul\":3185:3551   */\n      swap2\n      swap1\n      pop\n      jump\t// out\n        /* \"#utility.yul\":3557:3923   */\n    tag_280:\n        /* \"#utility.yul\":3699:3702   */\n      0x00\n        /* \"#utility.yul\":3720:3787   */\n      tag_282\n        /* \"#utility.yul\":3784:3786   */\n      0x22\n        /* \"#utility.yul\":3779:3782   */\n      dup4\n        /* \"#utility.yul\":3720:3787   */\n      tag_270\n      jump\t// in\n    tag_282:\n        /* \"#utility.yul\":3713:3787   */\n      swap2\n      pop\n        /* \"#utility.yul\":3796:3889   */\n      tag_283\n        /* \"#utility.yul\":3885:3888   */\n      dup3\n        /* \"#utility.yul\":3796:3889   */\n      tag_284\n      jump\t// in\n    tag_283:\n        /* \"#utility.yul\":3914:3916   */\n      0x40\n        /* \"#utility.yul\":3909:3912   */\n      dup3\n        /* \"#utility.yul\":3905:3917   */\n      add\n        /* \"#utility.yul\":3898:3917   */\n      swap1\n      pop\n        /* \"#utility.yul\":3557:3923   */\n      swap2\n      swap1\n      pop\n      jump\t// out\n        /* \"#utility.yul\":3929:4295   */\n    tag_285:\n        /* \"#utility.yul\":4071:4074   */\n      0x00\n        /* \"#utility.yul\":4092:4159   */\n      tag_287\n        /* \"#utility.yul\":4156:4158   */\n      0x22\n        /* \"#utility.yul\":4151:4154   */\n      dup4\n        /* \"#utility.yul\":4092:4159   */\n      tag_270\n      jump\t// in\n    tag_287:\n        /* \"#utility.yul\":4085:4159   */\n      swap2\n      pop\n        /* \"#utility.yul\":4168:4261   */\n      tag_288\n        /* \"#utility.yul\":4257:4260   */\n      dup3\n        /* \"#utility.yul\":4168:4261   */\n      tag_289\n      jump\t// in\n    tag_288:\n        /* \"#utility.yul\":4286:4288   */\n      0x40\n        /* \"#utility.yul\":4281:4284   */\n      dup3\n        /* \"#utility.yul\":4277:4289   */\n      add\n        /* \"#utility.yul\":4270:4289   */\n      swap1\n      pop\n        /* \"#utility.yul\":3929:4295   */\n      swap2\n      swap1\n      pop\n      jump\t// out\n        /* \"#utility.yul\":4301:4667   */\n    tag_290:\n        /* \"#utility.yul\":4443:4446   */\n      0x00\n        /* \"#utility.yul\":4464:4531   */\n      tag_292\n        /* \"#utility.yul\":4528:4530   */\n      0x1d\n        /* \"#utility.yul\":4523:4526   */\n      dup4\n        /* \"#utility.yul\":4464:4531   */\n      tag_270\n      jump\t// in\n    tag_292:\n        /* \"#utility.yul\":4457:4531   */\n      swap2\n      pop\n        /* \"#utility.yul\":4540:4633   */\n      tag_293\n        /* \"#utility.yul\":4629:4632   */\n      dup3\n        /* \"#utility.yul\":4540:4633   */\n      tag_294\n      jump\t// in\n    tag_293:\n        /* \"#utility.yul\":4658:4660   */\n      0x20\n        /* \"#utility.yul\":4653:4656   */\n      dup3\n        /* \"#utility.yul\":4649:4661   */\n      add\n        /* \"#utility.yul\":4642:4661   */\n      swap1\n      pop\n        /* \"#utility.yul\":4301:4667   */\n      swap2\n      swap1\n      pop\n      jump\t// out\n        /* \"#utility.yul\":4673:5039   */\n    tag_295:\n        /* \"#utility.yul\":4815:4818   */\n      0x00\n        /* \"#utility.yul\":4836:4903   */\n      tag_297\n        /* \"#utility.yul\":4900:4902   */\n      0x26\n        /* \"#utility.yul\":4895:4898   */\n      dup4\n        /* \"#utility.yul\":4836:4903   */\n      tag_270\n      jump\t// in\n    tag_297:\n        /* \"#utility.yul\":4829:4903   */\n      swap2\n      pop\n        /* \"#utility.yul\":4912:5005   */\n      tag_298\n        /* \"#utility.yul\":5001:5004   */\n      dup3\n        /* \"#utility.yul\":4912:5005   */\n      tag_299\n      jump\t// in\n    tag_298:\n        /* \"#utility.yul\":5030:5032   */\n      0x40\n        /* \"#utility.yul\":5025:5028   */\n      dup3\n        /* \"#utility.yul\":5021:5033   */\n      add\n        /* \"#utility.yul\":5014:5033   */\n      swap1\n      pop\n        /* \"#utility.yul\":4673:5039   */\n      swap2\n      swap1\n      pop\n      jump\t// out\n        /* \"#utility.yul\":5045:5411   */\n    tag_300:\n        /* \"#utility.yul\":5187:5190   */\n      0x00\n        /* \"#utility.yul\":5208:5275   */\n      tag_302\n        /* \"#utility.yul\":5272:5274   */\n      0x21\n        /* \"#utility.yul\":5267:5270   */\n      dup4\n        /* \"#utility.yul\":5208:5275   */\n      tag_270\n      jump\t// in\n    tag_302:\n        /* \"#utility.yul\":5201:5275   */\n      swap2\n      pop\n        /* \"#utility.yul\":5284:5377   */\n      tag_303\n        /* \"#utility.yul\":5373:5376   */\n      dup3\n        /* \"#utility.yul\":5284:5377   */\n      tag_304\n      jump\t// in\n    tag_303:\n        /* \"#utility.yul\":5402:5404   */\n      0x40\n        /* \"#utility.yul\":5397:5400   */\n      dup3\n        /* \"#utility.yul\":5393:5405   */\n      add\n        /* \"#utility.yul\":5386:5405   */\n      swap1\n      pop\n        /* \"#utility.yul\":5045:5411   */\n      swap2\n      swap1\n      pop\n      jump\t// out\n        /* \"#utility.yul\":5417:5783   */\n    tag_305:\n        /* \"#utility.yul\":5559:5562   */\n      0x00\n        /* \"#utility.yul\":5580:5647   */\n      tag_307\n        /* \"#utility.yul\":5644:5646   */\n      0x25\n        /* \"#utility.yul\":5639:5642   */\n      dup4\n        /* \"#utility.yul\":5580:5647   */\n      tag_270\n      jump\t// in\n    tag_307:\n        /* \"#utility.yul\":5573:5647   */\n      swap2\n      pop\n        /* \"#utility.yul\":5656:5749   */\n      tag_308\n        /* \"#utility.yul\":5745:5748   */\n      dup3\n        /* \"#utility.yul\":5656:5749   */\n      tag_309\n      jump\t// in\n    tag_308:\n        /* \"#utility.yul\":5774:5776   */\n      0x40\n        /* \"#utility.yul\":5769:5772   */\n      dup3\n        /* \"#utility.yul\":5765:5777   */\n      add\n        /* \"#utility.yul\":5758:5777   */\n      swap1\n      pop\n        /* \"#utility.yul\":5417:5783   */\n      swap2\n      swap1\n      pop\n      jump\t// out\n        /* \"#utility.yul\":5789:6155   */\n    tag_310:\n        /* \"#utility.yul\":5931:5934   */\n      0x00\n        /* \"#utility.yul\":5952:6019   */\n      tag_312\n        /* \"#utility.yul\":6016:6018   */\n      0x24\n        /* \"#utility.yul\":6011:6014   */\n      dup4\n        /* \"#utility.yul\":5952:6019   */\n      tag_270\n      jump\t// in\n    tag_312:\n        /* \"#utility.yul\":5945:6019   */\n      swap2\n      pop\n        /* \"#utility.yul\":6028:6121   */\n      tag_313\n        /* \"#utility.yul\":6117:6120   */\n      dup3\n        /* \"#utility.yul\":6028:6121   */\n      tag_314\n      jump\t// in\n    tag_313:\n        /* \"#utility.yul\":6146:6148   */\n      0x40\n        /* \"#utility.yul\":6141:6144   */\n      dup3\n        /* \"#utility.yul\":6137:6149   */\n      add\n        /* \"#utility.yul\":6130:6149   */\n      swap1\n      pop\n        /* \"#utility.yul\":5789:6155   */\n      swap2\n      swap1\n      pop\n      jump\t// out\n        /* \"#utility.yul\":6161:6527   */\n    tag_315:\n        /* \"#utility.yul\":6303:6306   */\n      0x00\n        /* \"#utility.yul\":6324:6391   */\n      tag_317\n        /* \"#utility.yul\":6388:6390   */\n      0x25\n        /* \"#utility.yul\":6383:6386   */\n      dup4\n        /* \"#utility.yul\":6324:6391   */\n      tag_270\n      jump\t// in\n    tag_317:\n        /* \"#utility.yul\":6317:6391   */\n      swap2\n      pop\n        /* \"#utility.yul\":6400:6493   */\n      tag_318\n        /* \"#utility.yul\":6489:6492   */\n      dup3\n        /* \"#utility.yul\":6400:6493   */\n      tag_319\n      jump\t// in\n    tag_318:\n        /* \"#utility.yul\":6518:6520   */\n      0x40\n        /* \"#utility.yul\":6513:6516   */\n      dup3\n        /* \"#utility.yul\":6509:6521   */\n      add\n        /* \"#utility.yul\":6502:6521   */\n      swap1\n      pop\n        /* \"#utility.yul\":6161:6527   */\n      swap2\n      swap1\n      pop\n      jump\t// out\n        /* \"#utility.yul\":6533:6899   */\n    tag_320:\n        /* \"#utility.yul\":6675:6678   */\n      0x00\n        /* \"#utility.yul\":6696:6763   */\n      tag_322\n        /* \"#utility.yul\":6760:6762   */\n      0x1f\n        /* \"#utility.yul\":6755:6758   */\n      dup4\n        /* \"#utility.yul\":6696:6763   */\n      tag_270\n      jump\t// in\n    tag_322:\n        /* \"#utility.yul\":6689:6763   */\n      swap2\n      pop\n        /* \"#utility.yul\":6772:6865   */\n      tag_323\n        /* \"#utility.yul\":6861:6864   */\n      dup3\n        /* \"#utility.yul\":6772:6865   */\n      tag_324\n      jump\t// in\n    tag_323:\n        /* \"#utility.yul\":6890:6892   */\n      0x20\n        /* \"#utility.yul\":6885:6888   */\n      dup3\n        /* \"#utility.yul\":6881:6893   */\n      add\n        /* \"#utility.yul\":6874:6893   */\n      swap1\n      pop\n        /* \"#utility.yul\":6533:6899   */\n      swap2\n      swap1\n      pop\n      jump\t// out\n        /* \"#utility.yul\":6905:7023   */\n    tag_325:\n        /* \"#utility.yul\":6992:7016   */\n      tag_327\n        /* \"#utility.yul\":7010:7015   */\n      dup2\n        /* \"#utility.yul\":6992:7016   */\n      tag_328\n      jump\t// in\n    tag_327:\n        /* \"#utility.yul\":6987:6990   */\n      dup3\n        /* \"#utility.yul\":6980:7017   */\n      mstore\n        /* \"#utility.yul\":6905:7023   */\n      pop\n      pop\n      jump\t// out\n        /* \"#utility.yul\":7029:7141   */\n    tag_329:\n        /* \"#utility.yul\":7112:7134   */\n      tag_331\n        /* \"#utility.yul\":7128:7133   */\n      dup2\n        /* \"#utility.yul\":7112:7134   */\n      tag_332\n      jump\t// in\n    tag_331:\n        /* \"#utility.yul\":7107:7110   */\n      dup3\n        /* \"#utility.yul\":7100:7135   */\n      mstore\n        /* \"#utility.yul\":7029:7141   */\n      pop\n      pop\n      jump\t// out\n        /* \"#utility.yul\":7147:7401   */\n    tag_45:\n        /* \"#utility.yul\":7256:7260   */\n      0x00\n        /* \"#utility.yul\":7294:7296   */\n      0x20\n        /* \"#utility.yul\":7283:7292   */\n      dup3\n        /* \"#utility.yul\":7279:7297   */\n      add\n        /* \"#utility.yul\":7271:7297   */\n      swap1\n      pop\n        /* \"#utility.yul\":7307:7394   */\n      tag_334\n        /* \"#utility.yul\":7391:7392   */\n      0x00\n        /* \"#utility.yul\":7380:7389   */\n      dup4\n        /* \"#utility.yul\":7376:7393   */\n      add\n        /* \"#utility.yul\":7367:7373   */\n      dup5\n        /* \"#utility.yul\":7307:7394   */\n      tag_257\n      jump\t// in\n    tag_334:\n        /* \"#utility.yul\":7147:7401   */\n      swap3\n      swap2\n      pop\n      pop\n      jump\t// out\n        /* \"#utility.yul\":7407:7617   */\n    tag_35:\n        /* \"#utility.yul\":7494:7498   */\n      0x00\n        /* \"#utility.yul\":7532:7534   */\n      0x20\n        /* \"#utility.yul\":7521:7530   */\n      dup3\n        /* \"#utility.yul\":7517:7535   */\n      add\n        /* \"#utility.yul\":7509:7535   */\n      swap1\n      pop\n        /* \"#utility.yul\":7545:7610   */\n      tag_336\n        /* \"#utility.yul\":7607:7608   */\n      0x00\n        /* \"#utility.yul\":7596:7605   */\n      dup4\n        /* \"#utility.yul\":7592:7609   */\n      add\n        /* \"#utility.yul\":7583:7589   */\n      dup5\n        /* \"#utility.yul\":7545:7610   */\n      tag_261\n      jump\t// in\n    tag_336:\n        /* \"#utility.yul\":7407:7617   */\n      swap3\n      swap2\n      pop\n      pop\n      jump\t// out\n        /* \"#utility.yul\":7623:7936   */\n    tag_28:\n        /* \"#utility.yul\":7736:7740   */\n      0x00\n        /* \"#utility.yul\":7774:7776   */\n      0x20\n        /* \"#utility.yul\":7763:7772   */\n      dup3\n        /* \"#utility.yul\":7759:7777   */\n      add\n        /* \"#utility.yul\":7751:7777   */\n      swap1\n      pop\n        /* \"#utility.yul\":7823:7832   */\n      dup2\n        /* \"#utility.yul\":7817:7821   */\n      dup2\n        /* \"#utility.yul\":7813:7833   */\n      sub\n        /* \"#utility.yul\":7809:7810   */\n      0x00\n        /* \"#utility.yul\":7798:7807   */\n      dup4\n        /* \"#utility.yul\":7794:7811   */\n      add\n        /* \"#utility.yul\":7787:7834   */\n      mstore\n        /* \"#utility.yul\":7851:7929   */\n      tag_338\n        /* \"#utility.yul\":7924:7928   */\n      dup2\n        /* \"#utility.yul\":7915:7921   */\n      dup5\n        /* \"#utility.yul\":7851:7929   */\n      tag_265\n      jump\t// in\n    tag_338:\n        /* \"#utility.yul\":7843:7929   */\n      swap1\n      pop\n        /* \"#utility.yul\":7623:7936   */\n      swap3\n      swap2\n      pop\n      pop\n      jump\t// out\n        /* \"#utility.yul\":7942:8361   */\n    tag_194:\n        /* \"#utility.yul\":8108:8112   */\n      0x00\n        /* \"#utility.yul\":8146:8148   */\n      0x20\n        /* \"#utility.yul\":8135:8144   */\n      dup3\n        /* \"#utility.yul\":8131:8149   */\n      add\n        /* \"#utility.yul\":8123:8149   */\n      swap1\n      pop\n        /* \"#utility.yul\":8195:8204   */\n      dup2\n        /* \"#utility.yul\":8189:8193   */\n      dup2\n        /* \"#utility.yul\":8185:8205   */\n      sub\n        /* \"#utility.yul\":8181:8182   */\n      0x00\n        /* \"#utility.yul\":8170:8179   */\n      dup4\n        /* \"#utility.yul\":8166:8183   */\n      add\n        /* \"#utility.yul\":8159:8206   */\n      mstore\n        /* \"#utility.yul\":8223:8354   */\n      tag_340\n        /* \"#utility.yul\":8349:8353   */\n      dup2\n        /* \"#utility.yul\":8223:8354   */\n      tag_275\n      jump\t// in\n    tag_340:\n        /* \"#utility.yul\":8215:8354   */\n      swap1\n      pop\n        /* \"#utility.yul\":7942:8361   */\n      swap2\n      swap1\n      pop\n      jump\t// out\n        /* \"#utility.yul\":8367:8786   */\n    tag_218:\n        /* \"#utility.yul\":8533:8537   */\n      0x00\n        /* \"#utility.yul\":8571:8573   */\n      0x20\n        /* \"#utility.yul\":8560:8569   */\n      dup3\n        /* \"#utility.yul\":8556:8574   */\n      add\n        /* \"#utility.yul\":8548:8574   */\n      swap1\n      pop\n        /* \"#utility.yul\":8620:8629   */\n      dup2\n        /* \"#utility.yul\":8614:8618   */\n      dup2\n        /* \"#utility.yul\":8610:8630   */\n      sub\n        /* \"#utility.yul\":8606:8607   */\n      0x00\n        /* \"#utility.yul\":8595:8604   */\n      dup4\n        /* \"#utility.yul\":8591:8608   */\n      add\n        /* \"#utility.yul\":8584:8631   */\n      mstore\n        /* \"#utility.yul\":8648:8779   */\n      tag_342\n        /* \"#utility.yul\":8774:8778   */\n      dup2\n        /* \"#utility.yul\":8648:8779   */\n      tag_280\n      jump\t// in\n    tag_342:\n        /* \"#utility.yul\":8640:8779   */\n      swap1\n      pop\n        /* \"#utility.yul\":8367:8786   */\n      swap2\n      swap1\n      pop\n      jump\t// out\n        /* \"#utility.yul\":8792:9211   */\n    tag_179:\n        /* \"#utility.yul\":8958:8962   */\n      0x00\n        /* \"#utility.yul\":8996:8998   */\n      0x20\n        /* \"#utility.yul\":8985:8994   */\n      dup3\n        /* \"#utility.yul\":8981:8999   */\n      add\n        /* \"#utility.yul\":8973:8999   */\n      swap1\n      pop\n        /* \"#utility.yul\":9045:9054   */\n      dup2\n        /* \"#utility.yul\":9039:9043   */\n      dup2\n        /* \"#utility.yul\":9035:9055   */\n      sub\n        /* \"#utility.yul\":9031:9032   */\n      0x00\n        /* \"#utility.yul\":9020:9029   */\n      dup4\n        /* \"#utility.yul\":9016:9033   */\n      add\n        /* \"#utility.yul\":9009:9056   */\n      mstore\n        /* \"#utility.yul\":9073:9204   */\n      tag_344\n        /* \"#utility.yul\":9199:9203   */\n      dup2\n        /* \"#utility.yul\":9073:9204   */\n      tag_285\n      jump\t// in\n    tag_344:\n        /* \"#utility.yul\":9065:9204   */\n      swap1\n      pop\n        /* \"#utility.yul\":8792:9211   */\n      swap2\n      swap1\n      pop\n      jump\t// out\n        /* \"#utility.yul\":9217:9636   */\n    tag_186:\n        /* \"#utility.yul\":9383:9387   */\n      0x00\n        /* \"#utility.yul\":9421:9423   */\n      0x20\n        /* \"#utility.yul\":9410:9419   */\n      dup3\n        /* \"#utility.yul\":9406:9424   */\n      add\n        /* \"#utility.yul\":9398:9424   */\n      swap1\n      pop\n        /* \"#utility.yul\":9470:9479   */\n      dup2\n        /* \"#utility.yul\":9464:9468   */\n      dup2\n        /* \"#utility.yul\":9460:9480   */\n      sub\n        /* \"#utility.yul\":9456:9457   */\n      0x00\n        /* \"#utility.yul\":9445:9454   */\n      dup4\n        /* \"#utility.yul\":9441:9458   */\n      add\n        /* \"#utility.yul\":9434:9481   */\n      mstore\n        /* \"#utility.yul\":9498:9629   */\n      tag_346\n        /* \"#utility.yul\":9624:9628   */\n      dup2\n        /* \"#utility.yul\":9498:9629   */\n      tag_290\n      jump\t// in\n    tag_346:\n        /* \"#utility.yul\":9490:9629   */\n      swap1\n      pop\n        /* \"#utility.yul\":9217:9636   */\n      swap2\n      swap1\n      pop\n      jump\t// out\n        /* \"#utility.yul\":9642:10061   */\n    tag_199:\n        /* \"#utility.yul\":9808:9812   */\n      0x00\n        /* \"#utility.yul\":9846:9848   */\n      0x20\n        /* \"#utility.yul\":9835:9844   */\n      dup3\n        /* \"#utility.yul\":9831:9849   */\n      add\n        /* \"#utility.yul\":9823:9849   */\n      swap1\n      pop\n        /* \"#utility.yul\":9895:9904   */\n      dup2\n        /* \"#utility.yul\":9889:9893   */\n      dup2\n        /* \"#utility.yul\":9885:9905   */\n      sub\n        /* \"#utility.yul\":9881:9882   */\n      0x00\n        /* \"#utility.yul\":9870:9879   */\n      dup4\n        /* \"#utility.yul\":9866:9883   */\n      add\n        /* \"#utility.yul\":9859:9906   */\n      mstore\n        /* \"#utility.yul\":9923:10054   */\n      tag_348\n        /* \"#utility.yul\":10049:10053   */\n      dup2\n        /* \"#utility.yul\":9923:10054   */\n      tag_295\n      jump\t// in\n    tag_348:\n        /* \"#utility.yul\":9915:10054   */\n      swap1\n      pop\n        /* \"#utility.yul\":9642:10061   */\n      swap2\n      swap1\n      pop\n      jump\t// out\n        /* \"#utility.yul\":10067:10486   */\n    tag_214:\n        /* \"#utility.yul\":10233:10237   */\n      0x00\n        /* \"#utility.yul\":10271:10273   */\n      0x20\n        /* \"#utility.yul\":10260:10269   */\n      dup3\n        /* \"#utility.yul\":10256:10274   */\n      add\n        /* \"#utility.yul\":10248:10274   */\n      swap1\n      pop\n        /* \"#utility.yul\":10320:10329   */\n      dup2\n        /* \"#utility.yul\":10314:10318   */\n      dup2\n        /* \"#utility.yul\":10310:10330   */\n      sub\n        /* \"#utility.yul\":10306:10307   */\n      0x00\n        /* \"#utility.yul\":10295:10304   */\n      dup4\n        /* \"#utility.yul\":10291:10308   */\n      add\n        /* \"#utility.yul\":10284:10331   */\n      mstore\n        /* \"#utility.yul\":10348:10479   */\n      tag_350\n        /* \"#utility.yul\":10474:10478   */\n      dup2\n        /* \"#utility.yul\":10348:10479   */\n      tag_300\n      jump\t// in\n    tag_350:\n        /* \"#utility.yul\":10340:10479   */\n      swap1\n      pop\n        /* \"#utility.yul\":10067:10486   */\n      swap2\n      swap1\n      pop\n      jump\t// out\n        /* \"#utility.yul\":10492:10911   */\n    tag_191:\n        /* \"#utility.yul\":10658:10662   */\n      0x00\n        /* \"#utility.yul\":10696:10698   */\n      0x20\n        /* \"#utility.yul\":10685:10694   */\n      dup3\n        /* \"#utility.yul\":10681:10699   */\n      add\n        /* \"#utility.yul\":10673:10699   */\n      swap1\n      pop\n        /* \"#utility.yul\":10745:10754   */\n      dup2\n        /* \"#utility.yul\":10739:10743   */\n      dup2\n        /* \"#utility.yul\":10735:10755   */\n      sub\n        /* \"#utility.yul\":10731:10732   */\n      0x00\n        /* \"#utility.yul\":10720:10729   */\n      dup4\n        /* \"#utility.yul\":10716:10733   */\n      add\n        /* \"#utility.yul\":10709:10756   */\n      mstore\n        /* \"#utility.yul\":10773:10904   */\n      tag_352\n        /* \"#utility.yul\":10899:10903   */\n      dup2\n        /* \"#utility.yul\":10773:10904   */\n      tag_305\n      jump\t// in\n    tag_352:\n        /* \"#utility.yul\":10765:10904   */\n      swap1\n      pop\n        /* \"#utility.yul\":10492:10911   */\n      swap2\n      swap1\n      pop\n      jump\t// out\n        /* \"#utility.yul\":10917:11336   */\n    tag_176:\n        /* \"#utility.yul\":11083:11087   */\n      0x00\n        /* \"#utility.yul\":11121:11123   */\n      0x20\n        /* \"#utility.yul\":11110:11119   */\n      dup3\n        /* \"#utility.yul\":11106:11124   */\n      add\n        /* \"#utility.yul\":11098:11124   */\n      swap1\n      pop\n        /* \"#utility.yul\":11170:11179   */\n      dup2\n        /* \"#utility.yul\":11164:11168   */\n      dup2\n        /* \"#utility.yul\":11160:11180   */\n      sub\n        /* \"#utility.yul\":11156:11157   */\n      0x00\n        /* \"#utility.yul\":11145:11154   */\n      dup4\n        /* \"#utility.yul\":11141:11158   */\n      add\n        /* \"#utility.yul\":11134:11181   */\n      mstore\n        /* \"#utility.yul\":11198:11329   */\n      tag_354\n        /* \"#utility.yul\":11324:11328   */\n      dup2\n        /* \"#utility.yul\":11198:11329   */\n      tag_310\n      jump\t// in\n    tag_354:\n        /* \"#utility.yul\":11190:11329   */\n      swap1\n      pop\n        /* \"#utility.yul\":10917:11336   */\n      swap2\n      swap1\n      pop\n      jump\t// out\n        /* \"#utility.yul\":11342:11761   */\n    tag_162:\n        /* \"#utility.yul\":11508:11512   */\n      0x00\n        /* \"#utility.yul\":11546:11548   */\n      0x20\n        /* \"#utility.yul\":11535:11544   */\n      dup3\n        /* \"#utility.yul\":11531:11549   */\n      add\n        /* \"#utility.yul\":11523:11549   */\n      swap1\n      pop\n        /* \"#utility.yul\":11595:11604   */\n      dup2\n        /* \"#utility.yul\":11589:11593   */\n      dup2\n        /* \"#utility.yul\":11585:11605   */\n      sub\n        /* \"#utility.yul\":11581:11582   */\n      0x00\n        /* \"#utility.yul\":11570:11579   */\n      dup4\n        /* \"#utility.yul\":11566:11583   */\n      add\n        /* \"#utility.yul\":11559:11606   */\n      mstore\n        /* \"#utility.yul\":11623:11754   */\n      tag_356\n        /* \"#utility.yul\":11749:11753   */\n      dup2\n        /* \"#utility.yul\":11623:11754   */\n      tag_315\n      jump\t// in\n    tag_356:\n        /* \"#utility.yul\":11615:11754   */\n      swap1\n      pop\n        /* \"#utility.yul\":11342:11761   */\n      swap2\n      swap1\n      pop\n      jump\t// out\n        /* \"#utility.yul\":11767:12186   */\n    tag_206:\n        /* \"#utility.yul\":11933:11937   */\n      0x00\n        /* \"#utility.yul\":11971:11973   */\n      0x20\n        /* \"#utility.yul\":11960:11969   */\n      dup3\n        /* \"#utility.yul\":11956:11974   */\n      add\n        /* \"#utility.yul\":11948:11974   */\n      swap1\n      pop\n        /* \"#utility.yul\":12020:12029   */\n      dup2\n        /* \"#utility.yul\":12014:12018   */\n      dup2\n        /* \"#utility.yul\":12010:12030   */\n      sub\n        /* \"#utility.yul\":12006:12007   */\n      0x00\n        /* \"#utility.yul\":11995:12004   */\n      dup4\n        /* \"#utility.yul\":11991:12008   */\n      add\n        /* \"#utility.yul\":11984:12031   */\n      mstore\n        /* \"#utility.yul\":12048:12179   */\n      tag_358\n        /* \"#utility.yul\":12174:12178   */\n      dup2\n        /* \"#utility.yul\":12048:12179   */\n      tag_320\n      jump\t// in\n    tag_358:\n        /* \"#utility.yul\":12040:12179   */\n      swap1\n      pop\n        /* \"#utility.yul\":11767:12186   */\n      swap2\n      swap1\n      pop\n      jump\t// out\n        /* \"#utility.yul\":12192:12414   */\n    tag_40:\n        /* \"#utility.yul\":12285:12289   */\n      0x00\n        /* \"#utility.yul\":12323:12325   */\n      0x20\n        /* \"#utility.yul\":12312:12321   */\n      dup3\n        /* \"#utility.yul\":12308:12326   */\n      add\n        /* \"#utility.yul\":12300:12326   */\n      swap1\n      pop\n        /* \"#utility.yul\":12336:12407   */\n      tag_360\n        /* \"#utility.yul\":12404:12405   */\n      0x00\n        /* \"#utility.yul\":12393:12402   */\n      dup4\n        /* \"#utility.yul\":12389:12406   */\n      add\n        /* \"#utility.yul\":12380:12386   */\n      dup5\n        /* \"#utility.yul\":12336:12407   */\n      tag_325\n      jump\t// in\n    tag_360:\n        /* \"#utility.yul\":12192:12414   */\n      swap3\n      swap2\n      pop\n      pop\n      jump\t// out\n        /* \"#utility.yul\":12420:12634   */\n    tag_56:\n        /* \"#utility.yul\":12509:12513   */\n      0x00\n        /* \"#utility.yul\":12547:12549   */\n      0x20\n        /* \"#utility.yul\":12536:12545   */\n      dup3\n        /* \"#utility.yul\":12532:12550   */\n      add\n        /* \"#utility.yul\":12524:12550   */\n      swap1\n      pop\n        /* \"#utility.yul\":12560:12627   */\n      tag_362\n        /* \"#utility.yul\":12624:12625   */\n      0x00\n        /* \"#utility.yul\":12613:12622   */\n      dup4\n        /* \"#utility.yul\":12609:12626   */\n      add\n        /* \"#utility.yul\":12600:12606   */\n      dup5\n        /* \"#utility.yul\":12560:12627   */\n      tag_329\n      jump\t// in\n    tag_362:\n        /* \"#utility.yul\":12420:12634   */\n      swap3\n      swap2\n      pop\n      pop\n      jump\t// out\n        /* \"#utility.yul\":12721:12820   */\n    tag_268:\n        /* \"#utility.yul\":12773:12779   */\n      0x00\n        /* \"#utility.yul\":12807:12812   */\n      dup2\n        /* \"#utility.yul\":12801:12813   */\n      mload\n        /* \"#utility.yul\":12791:12813   */\n      swap1\n      pop\n        /* \"#utility.yul\":12721:12820   */\n      swap2\n      swap1\n      pop\n      jump\t// out\n        /* \"#utility.yul\":12826:12995   */\n    tag_270:\n        /* \"#utility.yul\":12910:12921   */\n      0x00\n        /* \"#utility.yul\":12944:12950   */\n      dup3\n        /* \"#utility.yul\":12939:12942   */\n      dup3\n        /* \"#utility.yul\":12932:12951   */\n      mstore\n        /* \"#utility.yul\":12984:12988   */\n      0x20\n        /* \"#utility.yul\":12979:12982   */\n      dup3\n        /* \"#utility.yul\":12975:12989   */\n      add\n        /* \"#utility.yul\":12960:12989   */\n      swap1\n      pop\n        /* \"#utility.yul\":12826:12995   */\n      swap3\n      swap2\n      pop\n      pop\n      jump\t// out\n        /* \"#utility.yul\":13001:13306   */\n    tag_132:\n        /* \"#utility.yul\":13041:13044   */\n      0x00\n        /* \"#utility.yul\":13060:13080   */\n      tag_368\n        /* \"#utility.yul\":13078:13079   */\n      dup3\n        /* \"#utility.yul\":13060:13080   */\n      tag_328\n      jump\t// in\n    tag_368:\n        /* \"#utility.yul\":13055:13080   */\n      swap2\n      pop\n        /* \"#utility.yul\":13094:13114   */\n      tag_369\n        /* \"#utility.yul\":13112:13113   */\n      dup4\n        /* \"#utility.yul\":13094:13114   */\n      tag_328\n      jump\t// in\n    tag_369:\n        /* \"#utility.yul\":13089:13114   */\n      swap3\n      pop\n        /* \"#utility.yul\":13248:13249   */\n      dup3\n        /* \"#utility.yul\":13180:13246   */\n      0xffffffffffffffffffffffffffffffffffffffffffffffffffffffffffffffff\n        /* \"#utility.yul\":13176:13250   */\n      sub\n        /* \"#utility.yul\":13173:13174   */\n      dup3\n        /* \"#utility.yul\":13170:13251   */\n      gt\n        /* \"#utility.yul\":13167:13274   */\n      iszero\n      tag_370\n      jumpi\n        /* \"#utility.yul\":13254:13272   */\n      tag_371\n      tag_372\n      jump\t// in\n    tag_371:\n        /* \"#utility.yul\":13167:13274   */\n    tag_370:\n        /* \"#utility.yul\":13298:13299   */\n      dup3\n        /* \"#utility.yul\":13295:13296   */\n      dup3\n        /* \"#utility.yul\":13291:13300   */\n      add\n        /* \"#utility.yul\":13284:13300   */\n      swap1\n      pop\n        /* \"#utility.yul\":13001:13306   */\n      swap3\n      swap2\n      pop\n      pop\n      jump\t// out\n        /* \"#utility.yul\":13312:13497   */\n    tag_143:\n        /* \"#utility.yul\":13352:13353   */\n      0x00\n        /* \"#utility.yul\":13369:13389   */\n      tag_374\n        /* \"#utility.yul\":13387:13388   */\n      dup3\n        /* \"#utility.yul\":13369:13389   */\n      tag_328\n      jump\t// in\n    tag_374:\n        /* \"#utility.yul\":13364:13389   */\n      swap2\n      pop\n        /* \"#utility.yul\":13403:13423   */\n      tag_375\n        /* \"#utility.yul\":13421:13422   */\n      dup4\n        /* \"#utility.yul\":13403:13423   */\n      tag_328\n      jump\t// in\n    tag_375:\n        /* \"#utility.yul\":13398:13423   */\n      swap3\n      pop\n        /* \"#utility.yul\":13442:13443   */\n      dup3\n        /* \"#utility.yul\":13432:13467   */\n      tag_376\n      jumpi\n        /* \"#utility.yul\":13447:13465   */\n      tag_377\n      tag_378\n      jump\t// in\n    tag_377:\n        /* \"#utility.yul\":13432:13467   */\n    tag_376:\n        /* \"#utility.yul\":13489:13490   */\n      dup3\n        /* \"#utility.yul\":13486:13487   */\n      dup3\n        /* \"#utility.yul\":13482:13491   */\n      div\n        /* \"#utility.yul\":13477:13491   */\n      swap1\n      pop\n        /* \"#utility.yul\":13312:13497   */\n      swap3\n      swap2\n      pop\n      pop\n      jump\t// out\n        /* \"#utility.yul\":13503:13851   */\n    tag_145:\n        /* \"#utility.yul\":13543:13550   */\n      0x00\n        /* \"#utility.yul\":13566:13586   */\n      tag_380\n        /* \"#utility.yul\":13584:13585   */\n      dup3\n        /* \"#utility.yul\":13566:13586   */\n      tag_328\n      jump\t// in\n    tag_380:\n        /* \"#utility.yul\":13561:13586   */\n      swap2\n      pop\n        /* \"#utility.yul\":13600:13620   */\n      tag_381\n        /* \"#utility.yul\":13618:13619   */\n      dup4\n        /* \"#utility.yul\":13600:13620   */\n      tag_328\n      jump\t// in\n    tag_381:\n        /* \"#utility.yul\":13595:13620   */\n      swap3\n      pop\n        /* \"#utility.yul\":13788:13789   */\n      dup2\n        /* \"#utility.yul\":13720:13786   */\n      0xffffffffffffffffffffffffffffffffffffffffffffffffffffffffffffffff\n        /* \"#utility.yul\":13716:13790   */\n      div\n        /* \"#utility.yul\":13713:13714   */\n      dup4\n        /* \"#utility.yul\":13710:13791   */\n      gt\n        /* \"#utility.yul\":13705:13706   */\n      dup3\n        /* \"#utility.yul\":13698:13707   */\n      iszero\n        /* \"#utility.yul\":13691:13708   */\n      iszero\n        /* \"#utility.yul\":13687:13792   */\n      and\n        /* \"#utility.yul\":13684:13815   */\n      iszero\n      tag_382\n      jumpi\n        /* \"#utility.yul\":13795:13813   */\n      tag_383\n      tag_372\n      jump\t// in\n    tag_383:\n        /* \"#utility.yul\":13684:13815   */\n    tag_382:\n        /* \"#utility.yul\":13843:13844   */\n      dup3\n        /* \"#utility.yul\":13840:13841   */\n      dup3\n        /* \"#utility.yul\":13836:13845   */\n      mul\n        /* \"#utility.yul\":13825:13845   */\n      swap1\n      pop\n        /* \"#utility.yul\":13503:13851   */\n      swap3\n      swap2\n      pop\n      pop\n      jump\t// out\n        /* \"#utility.yul\":13857:13953   */\n    tag_384:\n        /* \"#utility.yul\":13894:13901   */\n      0x00\n        /* \"#utility.yul\":13923:13947   */\n      tag_386\n        /* \"#utility.yul\":13941:13946   */\n      dup3\n        /* \"#utility.yul\":13923:13947   */\n      tag_387\n      jump\t// in\n    tag_386:\n        /* \"#utility.yul\":13912:13947   */\n      swap1\n      pop\n        /* \"#utility.yul\":13857:13953   */\n      swap2\n      swap1\n      pop\n      jump\t// out\n        /* \"#utility.yul\":13959:14063   */\n    tag_260:\n        /* \"#utility.yul\":14004:14011   */\n      0x00\n        /* \"#utility.yul\":14033:14057   */\n      tag_389\n        /* \"#utility.yul\":14051:14056   */\n      dup3\n        /* \"#utility.yul\":14033:14057   */\n      tag_387\n      jump\t// in\n    tag_389:\n        /* \"#utility.yul\":14022:14057   */\n      swap1\n      pop\n        /* \"#utility.yul\":13959:14063   */\n      swap2\n      swap1\n      pop\n      jump\t// out\n        /* \"#utility.yul\":14069:14159   */\n    tag_264:\n        /* \"#utility.yul\":14103:14110   */\n      0x00\n        /* \"#utility.yul\":14146:14151   */\n      dup2\n        /* \"#utility.yul\":14139:14152   */\n      iszero\n        /* \"#utility.yul\":14132:14153   */\n      iszero\n        /* \"#utility.yul\":14121:14153   */\n      swap1\n      pop\n        /* \"#utility.yul\":14069:14159   */\n      swap2\n      swap1\n      pop\n      jump\t// out\n        /* \"#utility.yul\":14165:14291   */\n    tag_387:\n        /* \"#utility.yul\":14202:14209   */\n      0x00\n        /* \"#utility.yul\":14242:14284   */\n      0xffffffffffffffffffffffffffffffffffffffff\n        /* \"#utility.yul\":14235:14240   */\n      dup3\n        /* \"#utility.yul\":14231:14285   */\n      and\n        /* \"#utility.yul\":14220:14285   */\n      swap1\n      pop\n        /* \"#utility.yul\":14165:14291   */\n      swap2\n      swap1\n      pop\n      jump\t// out\n        /* \"#utility.yul\":14297:14374   */\n    tag_328:\n        /* \"#utility.yul\":14334:14341   */\n      0x00\n        /* \"#utility.yul\":14363:14368   */\n      dup2\n        /* \"#utility.yul\":14352:14368   */\n      swap1\n      pop\n        /* \"#utility.yul\":14297:14374   */\n      swap2\n      swap1\n      pop\n      jump\t// out\n        /* \"#utility.yul\":14380:14466   */\n    tag_332:\n        /* \"#utility.yul\":14415:14422   */\n      0x00\n        /* \"#utility.yul\":14455:14459   */\n      0xff\n        /* \"#utility.yul\":14448:14453   */\n      dup3\n        /* \"#utility.yul\":14444:14460   */\n      and\n        /* \"#utility.yul\":14433:14460   */\n      swap1\n      pop\n        /* \"#utility.yul\":14380:14466   */\n      swap2\n      swap1\n      pop\n      jump\t// out\n        /* \"#utility.yul\":14472:14779   */\n    tag_272:\n        /* \"#utility.yul\":14540:14541   */\n      0x00\n        /* \"#utility.yul\":14550:14663   */\n    tag_395:\n        /* \"#utility.yul\":14564:14570   */\n      dup4\n        /* \"#utility.yul\":14561:14562   */\n      dup2\n        /* \"#utility.yul\":14558:14571   */\n      lt\n        /* \"#utility.yul\":14550:14663   */\n      iszero\n      tag_397\n      jumpi\n        /* \"#utility.yul\":14649:14650   */\n      dup1\n        /* \"#utility.yul\":14644:14647   */\n      dup3\n        /* \"#utility.yul\":14640:14651   */\n      add\n        /* \"#utility.yul\":14634:14652   */\n      mload\n        /* \"#utility.yul\":14630:14631   */\n      dup2\n        /* \"#utility.yul\":14625:14628   */\n      dup5\n        /* \"#utility.yul\":14621:14632   */\n      add\n        /* \"#utility.yul\":14614:14653   */\n      mstore\n        /* \"#utility.yul\":14586:14588   */\n      0x20\n        /* \"#utility.yul\":14583:14584   */\n      dup2\n        /* \"#utility.yul\":14579:14589   */\n      add\n        /* \"#utility.yul\":14574:14589   */\n      swap1\n      pop\n        /* \"#utility.yul\":14550:14663   */\n      jump(tag_395)\n    tag_397:\n        /* \"#utility.yul\":14681:14687   */\n      dup4\n        /* \"#utility.yul\":14678:14679   */\n      dup2\n        /* \"#utility.yul\":14675:14688   */\n      gt\n        /* \"#utility.yul\":14672:14773   */\n      iszero\n      tag_398\n      jumpi\n        /* \"#utility.yul\":14761:14762   */\n      0x00\n        /* \"#utility.yul\":14752:14758   */\n      dup5\n        /* \"#utility.yul\":14747:14750   */\n      dup5\n        /* \"#utility.yul\":14743:14759   */\n      add\n        /* \"#utility.yul\":14736:14763   */\n      mstore\n        /* \"#utility.yul\":14672:14773   */\n    tag_398:\n        /* \"#utility.yul\":14521:14779   */\n      pop\n        /* \"#utility.yul\":14472:14779   */\n      pop\n      pop\n      pop\n      jump\t// out\n        /* \"#utility.yul\":14785:15105   */\n    tag_109:\n        /* \"#utility.yul\":14829:14835   */\n      0x00\n        /* \"#utility.yul\":14866:14867   */\n      0x02\n        /* \"#utility.yul\":14860:14864   */\n      dup3\n        /* \"#utility.yul\":14856:14868   */\n      div\n        /* \"#utility.yul\":14846:14868   */\n      swap1\n      pop\n        /* \"#utility.yul\":14913:14914   */\n      0x01\n        /* \"#utility.yul\":14907:14911   */\n      dup3\n        /* \"#utility.yul\":14903:14915   */\n      and\n        /* \"#utility.yul\":14934:14952   */\n      dup1\n        /* \"#utility.yul\":14924:15005   */\n      tag_400\n      jumpi\n        /* \"#utility.yul\":14990:14994   */\n      0x7f\n        /* \"#utility.yul\":14982:14988   */\n      dup3\n        /* \"#utility.yul\":14978:14995   */\n      and\n        /* \"#utility.yul\":14968:14995   */\n      swap2\n      pop\n        /* \"#utility.yul\":14924:15005   */\n    tag_400:\n        /* \"#utility.yul\":15052:15054   */\n      0x20\n        /* \"#utility.yul\":15044:15050   */\n      dup3\n        /* \"#utility.yul\":15041:15055   */\n      lt\n        /* \"#utility.yul\":15021:15039   */\n      dup2\n        /* \"#utility.yul\":15018:15056   */\n      eq\n        /* \"#utility.yul\":15015:15099   */\n      iszero\n      tag_401\n      jumpi\n        /* \"#utility.yul\":15071:15089   */\n      tag_402\n      tag_403\n      jump\t// in\n    tag_402:\n        /* \"#utility.yul\":15015:15099   */\n    tag_401:\n        /* \"#utility.yul\":14836:15105   */\n      pop\n        /* \"#utility.yul\":14785:15105   */\n      swap2\n      swap1\n      pop\n      jump\t// out\n        /* \"#utility.yul\":15111:15291   */\n    tag_372:\n        /* \"#utility.yul\":15159:15236   */\n      0x4e487b7100000000000000000000000000000000000000000000000000000000\n        /* \"#utility.yul\":15156:15157   */\n      0x00\n        /* \"#utility.yul\":15149:15237   */\n      mstore\n        /* \"#utility.yul\":15256:15260   */\n      0x11\n        /* \"#utility.yul\":15253:15254   */\n      0x04\n        /* \"#utility.yul\":15246:15261   */\n      mstore\n        /* \"#utility.yul\":15280:15284   */\n      0x24\n        /* \"#utility.yul\":15277:15278   */\n      0x00\n        /* \"#utility.yul\":15270:15285   */\n      revert\n        /* \"#utility.yul\":15297:15477   */\n    tag_378:\n        /* \"#utility.yul\":15345:15422   */\n      0x4e487b7100000000000000000000000000000000000000000000000000000000\n        /* \"#utility.yul\":15342:15343   */\n      0x00\n        /* \"#utility.yul\":15335:15423   */\n      mstore\n        /* \"#utility.yul\":15442:15446   */\n      0x12\n        /* \"#utility.yul\":15439:15440   */\n      0x04\n        /* \"#utility.yul\":15432:15447   */\n      mstore\n        /* \"#utility.yul\":15466:15470   */\n      0x24\n        /* \"#utility.yul\":15463:15464   */\n      0x00\n        /* \"#utility.yul\":15456:15471   */\n      revert\n        /* \"#utility.yul\":15483:15663   */\n    tag_403:\n        /* \"#utility.yul\":15531:15608   */\n      0x4e487b7100000000000000000000000000000000000000000000000000000000\n        /* \"#utility.yul\":15528:15529   */\n      0x00\n        /* \"#utility.yul\":15521:15609   */\n      mstore\n        /* \"#utility.yul\":15628:15632   */\n      0x22\n        /* \"#utility.yul\":15625:15626   */\n      0x04\n        /* \"#utility.yul\":15618:15633   */\n      mstore\n        /* \"#utility.yul\":15652:15656   */\n      0x24\n        /* \"#utility.yul\":15649:15650   */\n      0x00\n        /* \"#utility.yul\":15642:15657   */\n      revert\n        /* \"#utility.yul\":15792:15909   */\n    tag_235:\n        /* \"#utility.yul\":15901:15902   */\n      0x00\n        /* \"#utility.yul\":15898:15899   */\n      dup1\n        /* \"#utility.yul\":15891:15903   */\n      revert\n        /* \"#utility.yul\":15915:16017   */\n    tag_274:\n        /* \"#utility.yul\":15956:15962   */\n      0x00\n        /* \"#utility.yul\":16007:16009   */\n      0x1f\n        /* \"#utility.yul\":16003:16010   */\n      not\n        /* \"#utility.yul\":15998:16000   */\n      0x1f\n        /* \"#utility.yul\":15991:15996   */\n      dup4\n        /* \"#utility.yul\":15987:16001   */\n      add\n        /* \"#utility.yul\":15983:16011   */\n      and\n        /* \"#utility.yul\":15973:16011   */\n      swap1\n      pop\n        /* \"#utility.yul\":15915:16017   */\n      swap2\n      swap1\n      pop\n      jump\t// out\n        /* \"#utility.yul\":16023:16245   */\n    tag_279:\n        /* \"#utility.yul\":16163:16197   */\n      0x45524332303a207472616e7366657220746f20746865207a65726f2061646472\n        /* \"#utility.yul\":16159:16160   */\n      0x00\n        /* \"#utility.yul\":16151:16157   */\n      dup3\n        /* \"#utility.yul\":16147:16161   */\n      add\n        /* \"#utility.yul\":16140:16198   */\n      mstore\n        /* \"#utility.yul\":16232:16237   */\n      0x6573730000000000000000000000000000000000000000000000000000000000\n        /* \"#utility.yul\":16227:16229   */\n      0x20\n        /* \"#utility.yul\":16219:16225   */\n      dup3\n        /* \"#utility.yul\":16215:16230   */\n      add\n        /* \"#utility.yul\":16208:16238   */\n      mstore\n        /* \"#utility.yul\":16023:16245   */\n      pop\n      jump\t// out\n        /* \"#utility.yul\":16251:16472   */\n    tag_284:\n        /* \"#utility.yul\":16391:16425   */\n      0x45524332303a206275726e20616d6f756e7420657863656564732062616c616e\n        /* \"#utility.yul\":16387:16388   */\n      0x00\n        /* \"#utility.yul\":16379:16385   */\n      dup3\n        /* \"#utility.yul\":16375:16389   */\n      add\n        /* \"#utility.yul\":16368:16426   */\n      mstore\n        /* \"#utility.yul\":16460:16464   */\n      0x6365000000000000000000000000000000000000000000000000000000000000\n        /* \"#utility.yul\":16455:16457   */\n      0x20\n        /* \"#utility.yul\":16447:16453   */\n      dup3\n        /* \"#utility.yul\":16443:16458   */\n      add\n        /* \"#utility.yul\":16436:16465   */\n      mstore\n        /* \"#utility.yul\":16251:16472   */\n      pop\n      jump\t// out\n        /* \"#utility.yul\":16478:16699   */\n    tag_289:\n        /* \"#utility.yul\":16618:16652   */\n      0x45524332303a20617070726f766520746f20746865207a65726f206164647265\n        /* \"#utility.yul\":16614:16615   */\n      0x00\n        /* \"#utility.yul\":16606:16612   */\n      dup3\n        /* \"#utility.yul\":16602:16616   */\n      add\n        /* \"#utility.yul\":16595:16653   */\n      mstore\n        /* \"#utility.yul\":16687:16691   */\n      0x7373000000000000000000000000000000000000000000000000000000000000\n        /* \"#utility.yul\":16682:16684   */\n      0x20\n        /* \"#utility.yul\":16674:16680   */\n      dup3\n        /* \"#utility.yul\":16670:16685   */\n      add\n        /* \"#utility.yul\":16663:16692   */\n      mstore\n        /* \"#utility.yul\":16478:16699   */\n      pop\n      jump\t// out\n        /* \"#utility.yul\":16705:16884   */\n    tag_294:\n        /* \"#utility.yul\":16845:16876   */\n      0x45524332303a20696e73756666696369656e7420616c6c6f77616e6365000000\n        /* \"#utility.yul\":16841:16842   */\n      0x00\n        /* \"#utility.yul\":16833:16839   */\n      dup3\n        /* \"#utility.yul\":16829:16843   */\n      add\n        /* \"#utility.yul\":16822:16877   */\n      mstore\n        /* \"#utility.yul\":16705:16884   */\n      pop\n      jump\t// out\n        /* \"#utility.yul\":16890:17115   */\n    tag_299:\n        /* \"#utility.yul\":17030:17064   */\n      0x45524332303a207472616e7366657220616d6f756e7420657863656564732062\n        /* \"#utility.yul\":17026:17027   */\n      0x00\n        /* \"#utility.yul\":17018:17024   */\n      dup3\n        /* \"#utility.yul\":17014:17028   */\n      add\n        /* \"#utility.yul\":17007:17065   */\n      mstore\n        /* \"#utility.yul\":17099:17107   */\n      0x616c616e63650000000000000000000000000000000000000000000000000000\n        /* \"#utility.yul\":17094:17096   */\n      0x20\n        /* \"#utility.yul\":17086:17092   */\n      dup3\n        /* \"#utility.yul\":17082:17097   */\n      add\n        /* \"#utility.yul\":17075:17108   */\n      mstore\n        /* \"#utility.yul\":16890:17115   */\n      pop\n      jump\t// out\n        /* \"#utility.yul\":17121:17341   */\n    tag_304:\n        /* \"#utility.yul\":17261:17295   */\n      0x45524332303a206275726e2066726f6d20746865207a65726f20616464726573\n        /* \"#utility.yul\":17257:17258   */\n      0x00\n        /* \"#utility.yul\":17249:17255   */\n      dup3\n        /* \"#utility.yul\":17245:17259   */\n      add\n        /* \"#utility.yul\":17238:17296   */\n      mstore\n        /* \"#utility.yul\":17330:17333   */\n      0x7300000000000000000000000000000000000000000000000000000000000000\n        /* \"#utility.yul\":17325:17327   */\n      0x20\n        /* \"#utility.yul\":17317:17323   */\n      dup3\n        /* \"#utility.yul\":17313:17328   */\n      add\n        /* \"#utility.yul\":17306:17334   */\n      mstore\n        /* \"#utility.yul\":17121:17341   */\n      pop\n      jump\t// out\n        /* \"#utility.yul\":17347:17571   */\n    tag_309:\n        /* \"#utility.yul\":17487:17521   */\n      0x45524332303a207472616e736665722066726f6d20746865207a65726f206164\n        /* \"#utility.yul\":17483:17484   */\n      0x00\n        /* \"#utility.yul\":17475:17481   */\n      dup3\n        /* \"#utility.yul\":17471:17485   */\n      add\n        /* \"#utility.yul\":17464:17522   */\n      mstore\n        /* \"#utility.yul\":17556:17563   */\n      0x6472657373000000000000000000000000000000000000000000000000000000\n        /* \"#utility.yul\":17551:17553   */\n      0x20\n        /* \"#utility.yul\":17543:17549   */\n      dup3\n        /* \"#utility.yul\":17539:17554   */\n      add\n        /* \"#utility.yul\":17532:17564   */\n      mstore\n        /* \"#utility.yul\":17347:17571   */\n      pop\n      jump\t// out\n        /* \"#utility.yul\":17577:17800   */\n    tag_314:\n        /* \"#utility.yul\":17717:17751   */\n      0x45524332303a20617070726f76652066726f6d20746865207a65726f20616464\n        /* \"#utility.yul\":17713:17714   */\n      0x00\n        /* \"#utility.yul\":17705:17711   */\n      dup3\n        /* \"#utility.yul\":17701:17715   */\n      add\n        /* \"#utility.yul\":17694:17752   */\n      mstore\n        /* \"#utility.yul\":17786:17792   */\n      0x7265737300000000000000000000000000000000000000000000000000000000\n        /* \"#utility.yul\":17781:17783   */\n      0x20\n        /* \"#utility.yul\":17773:17779   */\n      dup3\n        /* \"#utility.yul\":17769:17784   */\n      add\n        /* \"#utility.yul\":17762:17793   */\n      mstore\n        /* \"#utility.yul\":17577:17800   */\n      pop\n      jump\t// out\n        /* \"#utility.yul\":17806:18030   */\n    tag_319:\n        /* \"#utility.yul\":17946:17980   */\n      0x45524332303a2064656372656173656420616c6c6f77616e63652062656c6f77\n        /* \"#utility.yul\":17942:17943   */\n      0x00\n        /* \"#utility.yul\":17934:17940   */\n      dup3\n        /* \"#utility.yul\":17930:17944   */\n      add\n        /* \"#utility.yul\":17923:17981   */\n      mstore\n        /* \"#utility.yul\":18015:18022   */\n      0x207a65726f000000000000000000000000000000000000000000000000000000\n        /* \"#utility.yul\":18010:18012   */\n      0x20\n        /* \"#utility.yul\":18002:18008   */\n      dup3\n        /* \"#utility.yul\":17998:18013   */\n      add\n        /* \"#utility.yul\":17991:18023   */\n      mstore\n        /* \"#utility.yul\":17806:18030   */\n      pop\n      jump\t// out\n        /* \"#utility.yul\":18036:18217   */\n    tag_324:\n        /* \"#utility.yul\":18176:18209   */\n      0x45524332303a206d696e7420746f20746865207a65726f206164647265737300\n        /* \"#utility.yul\":18172:18173   */\n      0x00\n        /* \"#utility.yul\":18164:18170   */\n      dup3\n        /* \"#utility.yul\":18160:18174   */\n      add\n        /* \"#utility.yul\":18153:18210   */\n      mstore\n        /* \"#utility.yul\":18036:18217   */\n      pop\n      jump\t// out\n        /* \"#utility.yul\":18223:18345   */\n    tag_227:\n        /* \"#utility.yul\":18296:18320   */\n      tag_422\n        /* \"#utility.yul\":18314:18319   */\n      dup2\n        /* \"#utility.yul\":18296:18320   */\n      tag_384\n      jump\t// in\n    tag_422:\n        /* \"#utility.yul\":18289:18294   */\n      dup2\n        /* \"#utility.yul\":18286:18321   */\n      eq\n        /* \"#utility.yul\":18276:18339   */\n      tag_423\n      jumpi\n        /* \"#utility.yul\":18335:18336   */\n      0x00\n        /* \"#utility.yul\":18332:18333   */\n      dup1\n        /* \"#utility.yul\":18325:18337   */\n      revert\n        /* \"#utility.yul\":18276:18339   */\n    tag_423:\n        /* \"#utility.yul\":18223:18345   */\n      pop\n      jump\t// out\n        /* \"#utility.yul\":18351:18473   */\n    tag_231:\n        /* \"#utility.yul\":18424:18448   */\n      tag_425\n        /* \"#utility.yul\":18442:18447   */\n      dup2\n        /* \"#utility.yul\":18424:18448   */\n      tag_328\n      jump\t// in\n    tag_425:\n        /* \"#utility.yul\":18417:18422   */\n      dup2\n        /* \"#utility.yul\":18414:18449   */\n      eq\n        /* \"#utility.yul\":18404:18467   */\n      tag_426\n      jumpi\n        /* \"#utility.yul\":18463:18464   */\n      0x00\n        /* \"#utility.yul\":18460:18461   */\n      dup1\n        /* \"#utility.yul\":18453:18465   */\n      revert\n        /* \"#utility.yul\":18404:18467   */\n    tag_426:\n        /* \"#utility.yul\":18351:18473   */\n      pop\n      jump\t// out\n\n    auxdata: 0xa264697066735822122004606f02f53af40f715b422a60408c6d95d23bb73576e761dc041c9de84460de64736f6c63430008070033\n}\n",
				"bytecode": {
					"linkReferences": {},
					"object": "608060405260405162001fb738038062001fb78339818101604052810190620000299190620001d6565b8181816003908051906020019062000043929190620000a8565b5080600490805190602001906200005c929190620000a8565b50505033600560006101000a81548173ffffffffffffffffffffffffffffffffffffffff021916908373ffffffffffffffffffffffffffffffffffffffff1602179055505050620003df565b828054620000b690620002f0565b90600052602060002090601f016020900481019282620000da576000855562000126565b82601f10620000f557805160ff191683800117855562000126565b8280016001018555821562000126579182015b828111156200012557825182559160200191906001019062000108565b5b50905062000135919062000139565b5090565b5b80821115620001545760008160009055506001016200013a565b5090565b60006200016f620001698462000284565b6200025b565b9050828152602081018484840111156200018e576200018d620003bf565b5b6200019b848285620002ba565b509392505050565b600082601f830112620001bb57620001ba620003ba565b5b8151620001cd84826020860162000158565b91505092915050565b60008060408385031215620001f057620001ef620003c9565b5b600083015167ffffffffffffffff811115620002115762000210620003c4565b5b6200021f85828601620001a3565b925050602083015167ffffffffffffffff811115620002435762000242620003c4565b5b6200025185828601620001a3565b9150509250929050565b6000620002676200027a565b905062000275828262000326565b919050565b6000604051905090565b600067ffffffffffffffff821115620002a257620002a16200038b565b5b620002ad82620003ce565b9050602081019050919050565b60005b83811015620002da578082015181840152602081019050620002bd565b83811115620002ea576000848401525b50505050565b600060028204905060018216806200030957607f821691505b6020821081141562000320576200031f6200035c565b5b50919050565b6200033182620003ce565b810181811067ffffffffffffffff821117156200035357620003526200038b565b5b80604052505050565b7f4e487b7100000000000000000000000000000000000000000000000000000000600052602260045260246000fd5b7f4e487b7100000000000000000000000000000000000000000000000000000000600052604160045260246000fd5b600080fd5b600080fd5b600080fd5b600080fd5b6000601f19601f8301169050919050565b611bc880620003ef6000396000f3fe6080604052600436106100f75760003560e01c80635b86f5991161008a578063a457c2d711610059578063a457c2d714610366578063a579a914146103a3578063a9059cbb146103e0578063dd62ed3e1461041d576100fe565b80635b86f599146102915780635c7b79f5146102ce57806370a08231146102fe57806395d89b411461033b576100fe565b806323b872dd116100c657806323b872dd146101c1578063313ce567146101fe57806339509351146102295780634ba2363a14610266576100fe565b806306fdde0314610103578063095ea7b31461012e57806318160ddd1461016b57806321dd501b14610196576100fe565b366100fe57005b600080fd5b34801561010f57600080fd5b5061011861045a565b6040516101259190611496565b60405180910390f35b34801561013a57600080fd5b5061015560048036038101906101509190611220565b6104ec565b604051610162919061147b565b60405180910390f35b34801561017757600080fd5b5061018061050f565b60405161018d91906115f8565b60405180910390f35b3480156101a257600080fd5b506101ab610519565b6040516101b89190611460565b60405180910390f35b3480156101cd57600080fd5b506101e860048036038101906101e391906111cd565b61053f565b6040516101f5919061147b565b60405180910390f35b34801561020a57600080fd5b5061021361056e565b6040516102209190611613565b60405180910390f35b34801561023557600080fd5b50610250600480360381019061024b9190611220565b610577565b60405161025d919061147b565b60405180910390f35b34801561027257600080fd5b5061027b6105ae565b60405161028891906115f8565b60405180910390f35b34801561029d57600080fd5b506102b860048036038101906102b39190611220565b6105b6565b6040516102c5919061147b565b60405180910390f35b6102e860048036038101906102e39190611260565b610679565b6040516102f5919061147b565b60405180910390f35b34801561030a57600080fd5b5061032560048036038101906103209190611160565b610703565b60405161033291906115f8565b60405180910390f35b34801561034757600080fd5b5061035061074b565b60405161035d9190611496565b60405180910390f35b34801561037257600080fd5b5061038d60048036038101906103889190611220565b6107dd565b60405161039a919061147b565b60405180910390f35b3480156103af57600080fd5b506103ca60048036038101906103c59190611260565b610854565b6040516103d791906115f8565b60405180910390f35b3480156103ec57600080fd5b5061040760048036038101906104029190611220565b610886565b604051610414919061147b565b60405180910390f35b34801561042957600080fd5b50610444600480360381019061043f919061118d565b6108a9565b60405161045191906115f8565b60405180910390f35b606060038054610469906117c5565b80601f0160208091040260200160405190810160405280929190818152602001828054610495906117c5565b80156104e25780601f106104b7576101008083540402835291602001916104e2565b820191906000526020600020905b8154815290600101906020018083116104c557829003601f168201915b5050505050905090565b6000806104f7610930565b9050610504818585610938565b600191505092915050565b6000600254905090565b600560009054906101000a900473ffffffffffffffffffffffffffffffffffffffff1681565b60008061054a610930565b9050610557858285610b03565b610562858585610b8f565b60019150509392505050565b60006012905090565b600080610582610930565b90506105a381858561059485896108a9565b61059e919061164a565b610938565b600191505092915050565b600047905090565b60003373ffffffffffffffffffffffffffffffffffffffff16600560009054906101000a900473ffffffffffffffffffffffffffffffffffffffff1673ffffffffffffffffffffffffffffffffffffffff16141561066f576106188383610e07565b8273ffffffffffffffffffffffffffffffffffffffff167fd1eb9126df5675c341b5e1f68f8e5fd0d29adce1d8aa44cef7e385eb3060559a61065985610703565b60405161066691906115f8565b60405180910390a25b6001905092915050565b6000803390506000479050600061068e61050f565b8561069991906116a0565b826106a491906116d1565b90506106b08386610f5e565b8273ffffffffffffffffffffffffffffffffffffffff166108fc829081150290604051600060405180830381858888f193505050501580156106f6573d6000803e3d6000fd5b5060019350505050919050565b60008060008373ffffffffffffffffffffffffffffffffffffffff1673ffffffffffffffffffffffffffffffffffffffff168152602001908152602001600020549050919050565b60606004805461075a906117c5565b80601f0160208091040260200160405190810160405280929190818152602001828054610786906117c5565b80156107d35780601f106107a8576101008083540402835291602001916107d3565b820191906000526020600020905b8154815290600101906020018083116107b657829003601f168201915b5050505050905090565b6000806107e8610930565b905060006107f682866108a9565b90508381101561083b576040517f08c379a0000000000000000000000000000000000000000000000000000000008152600401610832906115b8565b60405180910390fd5b6108488286868403610938565b60019250505092915050565b600080479050600061086461050f565b8461086f91906116a0565b8261087a91906116d1565b90508092505050919050565b600080610891610930565b905061089e818585610b8f565b600191505092915050565b6000600160008473ffffffffffffffffffffffffffffffffffffffff1673ffffffffffffffffffffffffffffffffffffffff16815260200190815260200160002060008373ffffffffffffffffffffffffffffffffffffffff1673ffffffffffffffffffffffffffffffffffffffff16815260200190815260200160002054905092915050565b600033905090565b600073ffffffffffffffffffffffffffffffffffffffff168373ffffffffffffffffffffffffffffffffffffffff1614156109a8576040517f08c379a000000000000000000000000000000000000000000000000000000000815260040161099f90611598565b60405180910390fd5b600073ffffffffffffffffffffffffffffffffffffffff168273ffffffffffffffffffffffffffffffffffffffff161415610a18576040517f08c379a0000000000000000000000000000000000000000000000000000000008152600401610a0f906114f8565b60405180910390fd5b80600160008573ffffffffffffffffffffffffffffffffffffffff1673ffffffffffffffffffffffffffffffffffffffff16815260200190815260200160002060008473ffffffffffffffffffffffffffffffffffffffff1673ffffffffffffffffffffffffffffffffffffffff168152602001908152602001600020819055508173ffffffffffffffffffffffffffffffffffffffff168373ffffffffffffffffffffffffffffffffffffffff167f8c5be1e5ebec7d5bd14f71427d1e84f3dd0314c0f7b2291e5b200ac8c7c3b92583604051610af691906115f8565b60405180910390a3505050565b6000610b0f84846108a9565b90507fffffffffffffffffffffffffffffffffffffffffffffffffffffffffffffffff8114610b895781811015610b7b576040517f08c379a0000000000000000000000000000000000000000000000000000000008152600401610b7290611518565b60405180910390fd5b610b888484848403610938565b5b50505050565b600073ffffffffffffffffffffffffffffffffffffffff168373ffffffffffffffffffffffffffffffffffffffff161415610bff576040517f08c379a0000000000000000000000000000000000000000000000000000000008152600401610bf690611578565b60405180910390fd5b600073ffffffffffffffffffffffffffffffffffffffff168273ffffffffffffffffffffffffffffffffffffffff161415610c6f576040517f08c379a0000000000000000000000000000000000000000000000000000000008152600401610c66906114b8565b60405180910390fd5b610c7a83838361112c565b60008060008573ffffffffffffffffffffffffffffffffffffffff1673ffffffffffffffffffffffffffffffffffffffff16815260200190815260200160002054905081811015610d00576040517f08c379a0000000000000000000000000000000000000000000000000000000008152600401610cf790611538565b60405180910390fd5b8181036000808673ffffffffffffffffffffffffffffffffffffffff1673ffffffffffffffffffffffffffffffffffffffff16815260200190815260200160002081905550816000808573ffffffffffffffffffffffffffffffffffffffff1673ffffffffffffffffffffffffffffffffffffffff168152602001908152602001600020600082825401925050819055508273ffffffffffffffffffffffffffffffffffffffff168473ffffffffffffffffffffffffffffffffffffffff167fddf252ad1be2c89b69c2b068fc378daa952ba7f163c4a11628f55a4df523b3ef84604051610dee91906115f8565b60405180910390a3610e01848484611131565b50505050565b600073ffffffffffffffffffffffffffffffffffffffff168273ffffffffffffffffffffffffffffffffffffffff161415610e77576040517f08c379a0000000000000000000000000000000000000000000000000000000008152600401610e6e906115d8565b60405180910390fd5b610e836000838361112c565b8060026000828254610e95919061164a565b92505081905550806000808473ffffffffffffffffffffffffffffffffffffffff1673ffffffffffffffffffffffffffffffffffffffff168152602001908152602001600020600082825401925050819055508173ffffffffffffffffffffffffffffffffffffffff16600073ffffffffffffffffffffffffffffffffffffffff167fddf252ad1be2c89b69c2b068fc378daa952ba7f163c4a11628f55a4df523b3ef83604051610f4691906115f8565b60405180910390a3610f5a60008383611131565b5050565b600073ffffffffffffffffffffffffffffffffffffffff168273ffffffffffffffffffffffffffffffffffffffff161415610fce576040517f08c379a0000000000000000000000000000000000000000000000000000000008152600401610fc590611558565b60405180910390fd5b610fda8260008361112c565b60008060008473ffffffffffffffffffffffffffffffffffffffff1673ffffffffffffffffffffffffffffffffffffffff16815260200190815260200160002054905081811015611060576040517f08c379a0000000000000000000000000000000000000000000000000000000008152600401611057906114d8565b60405180910390fd5b8181036000808573ffffffffffffffffffffffffffffffffffffffff1673ffffffffffffffffffffffffffffffffffffffff1681526020019081526020016000208190555081600260008282540392505081905550600073ffffffffffffffffffffffffffffffffffffffff168373ffffffffffffffffffffffffffffffffffffffff167fddf252ad1be2c89b69c2b068fc378daa952ba7f163c4a11628f55a4df523b3ef8460405161111391906115f8565b60405180910390a361112783600084611131565b505050565b505050565b505050565b60008135905061114581611b64565b92915050565b60008135905061115a81611b7b565b92915050565b60006020828403121561117657611175611884565b5b600061118484828501611136565b91505092915050565b600080604083850312156111a4576111a3611884565b5b60006111b285828601611136565b92505060206111c385828601611136565b9150509250929050565b6000806000606084860312156111e6576111e5611884565b5b60006111f486828701611136565b935050602061120586828701611136565b92505060406112168682870161114b565b9150509250925092565b6000806040838503121561123757611236611884565b5b600061124585828601611136565b92505060206112568582860161114b565b9150509250929050565b60006020828403121561127657611275611884565b5b60006112848482850161114b565b91505092915050565b6112968161173d565b82525050565b6112a58161174f565b82525050565b60006112b68261162e565b6112c08185611639565b93506112d0818560208601611792565b6112d981611889565b840191505092915050565b60006112f1602383611639565b91506112fc8261189a565b604082019050919050565b6000611314602283611639565b915061131f826118e9565b604082019050919050565b6000611337602283611639565b915061134282611938565b604082019050919050565b600061135a601d83611639565b915061136582611987565b602082019050919050565b600061137d602683611639565b9150611388826119b0565b604082019050919050565b60006113a0602183611639565b91506113ab826119ff565b604082019050919050565b60006113c3602583611639565b91506113ce82611a4e565b604082019050919050565b60006113e6602483611639565b91506113f182611a9d565b604082019050919050565b6000611409602583611639565b915061141482611aec565b604082019050919050565b600061142c601f83611639565b915061143782611b3b565b602082019050919050565b61144b8161177b565b82525050565b61145a81611785565b82525050565b6000602082019050611475600083018461128d565b92915050565b6000602082019050611490600083018461129c565b92915050565b600060208201905081810360008301526114b081846112ab565b905092915050565b600060208201905081810360008301526114d1816112e4565b9050919050565b600060208201905081810360008301526114f181611307565b9050919050565b600060208201905081810360008301526115118161132a565b9050919050565b600060208201905081810360008301526115318161134d565b9050919050565b6000602082019050818103600083015261155181611370565b9050919050565b6000602082019050818103600083015261157181611393565b9050919050565b60006020820190508181036000830152611591816113b6565b9050919050565b600060208201905081810360008301526115b1816113d9565b9050919050565b600060208201905081810360008301526115d1816113fc565b9050919050565b600060208201905081810360008301526115f18161141f565b9050919050565b600060208201905061160d6000830184611442565b92915050565b60006020820190506116286000830184611451565b92915050565b600081519050919050565b600082825260208201905092915050565b60006116558261177b565b91506116608361177b565b9250827fffffffffffffffffffffffffffffffffffffffffffffffffffffffffffffffff03821115611695576116946117f7565b5b828201905092915050565b60006116ab8261177b565b91506116b68361177b565b9250826116c6576116c5611826565b5b828204905092915050565b60006116dc8261177b565b91506116e78361177b565b9250817fffffffffffffffffffffffffffffffffffffffffffffffffffffffffffffffff04831182151516156117205761171f6117f7565b5b828202905092915050565b60006117368261175b565b9050919050565b60006117488261175b565b9050919050565b60008115159050919050565b600073ffffffffffffffffffffffffffffffffffffffff82169050919050565b6000819050919050565b600060ff82169050919050565b60005b838110156117b0578082015181840152602081019050611795565b838111156117bf576000848401525b50505050565b600060028204905060018216806117dd57607f821691505b602082108114156117f1576117f0611855565b5b50919050565b7f4e487b7100000000000000000000000000000000000000000000000000000000600052601160045260246000fd5b7f4e487b7100000000000000000000000000000000000000000000000000000000600052601260045260246000fd5b7f4e487b7100000000000000000000000000000000000000000000000000000000600052602260045260246000fd5b600080fd5b6000601f19601f8301169050919050565b7f45524332303a207472616e7366657220746f20746865207a65726f206164647260008201527f6573730000000000000000000000000000000000000000000000000000000000602082015250565b7f45524332303a206275726e20616d6f756e7420657863656564732062616c616e60008201527f6365000000000000000000000000000000000000000000000000000000000000602082015250565b7f45524332303a20617070726f766520746f20746865207a65726f20616464726560008201527f7373000000000000000000000000000000000000000000000000000000000000602082015250565b7f45524332303a20696e73756666696369656e7420616c6c6f77616e6365000000600082015250565b7f45524332303a207472616e7366657220616d6f756e742065786365656473206260008201527f616c616e63650000000000000000000000000000000000000000000000000000602082015250565b7f45524332303a206275726e2066726f6d20746865207a65726f2061646472657360008201527f7300000000000000000000000000000000000000000000000000000000000000602082015250565b7f45524332303a207472616e736665722066726f6d20746865207a65726f20616460008201527f6472657373000000000000000000000000000000000000000000000000000000602082015250565b7f45524332303a20617070726f76652066726f6d20746865207a65726f2061646460008201527f7265737300000000000000000000000000000000000000000000000000000000602082015250565b7f45524332303a2064656372656173656420616c6c6f77616e63652062656c6f7760008201527f207a65726f000000000000000000000000000000000000000000000000000000602082015250565b7f45524332303a206d696e7420746f20746865207a65726f206164647265737300600082015250565b611b6d8161172b565b8114611b7857600080fd5b50565b611b848161177b565b8114611b8f57600080fd5b5056fea264697066735822122004606f02f53af40f715b422a60408c6d95d23bb73576e761dc041c9de84460de64736f6c63430008070033",
					"opcodes": "PUSH1 0x80 PUSH1 0x40 MSTORE PUSH1 0x40 MLOAD PUSH3 0x1FB7 CODESIZE SUB DUP1 PUSH3 0x1FB7 DUP4 CODECOPY DUP2 DUP2 ADD PUSH1 0x40 MSTORE DUP2 ADD SWAP1 PUSH3 0x29 SWAP2 SWAP1 PUSH3 0x1D6 JUMP JUMPDEST DUP2 DUP2 DUP2 PUSH1 0x3 SWAP1 DUP1 MLOAD SWAP1 PUSH1 0x20 ADD SWAP1 PUSH3 0x43 SWAP3 SWAP2 SWAP1 PUSH3 0xA8 JUMP JUMPDEST POP DUP1 PUSH1 0x4 SWAP1 DUP1 MLOAD SWAP1 PUSH1 0x20 ADD SWAP1 PUSH3 0x5C SWAP3 SWAP2 SWAP1 PUSH3 0xA8 JUMP JUMPDEST POP POP POP CALLER PUSH1 0x5 PUSH1 0x0 PUSH2 0x100 EXP DUP2 SLOAD DUP2 PUSH20 0xFFFFFFFFFFFFFFFFFFFFFFFFFFFFFFFFFFFFFFFF MUL NOT AND SWAP1 DUP4 PUSH20 0xFFFFFFFFFFFFFFFFFFFFFFFFFFFFFFFFFFFFFFFF AND MUL OR SWAP1 SSTORE POP POP POP PUSH3 0x3DF JUMP JUMPDEST DUP3 DUP1 SLOAD PUSH3 0xB6 SWAP1 PUSH3 0x2F0 JUMP JUMPDEST SWAP1 PUSH1 0x0 MSTORE PUSH1 0x20 PUSH1 0x0 KECCAK256 SWAP1 PUSH1 0x1F ADD PUSH1 0x20 SWAP1 DIV DUP2 ADD SWAP3 DUP3 PUSH3 0xDA JUMPI PUSH1 0x0 DUP6 SSTORE PUSH3 0x126 JUMP JUMPDEST DUP3 PUSH1 0x1F LT PUSH3 0xF5 JUMPI DUP1 MLOAD PUSH1 0xFF NOT AND DUP4 DUP1 ADD OR DUP6 SSTORE PUSH3 0x126 JUMP JUMPDEST DUP3 DUP1 ADD PUSH1 0x1 ADD DUP6 SSTORE DUP3 ISZERO PUSH3 0x126 JUMPI SWAP2 DUP3 ADD JUMPDEST DUP3 DUP2 GT ISZERO PUSH3 0x125 JUMPI DUP3 MLOAD DUP3 SSTORE SWAP2 PUSH1 0x20 ADD SWAP2 SWAP1 PUSH1 0x1 ADD SWAP1 PUSH3 0x108 JUMP JUMPDEST JUMPDEST POP SWAP1 POP PUSH3 0x135 SWAP2 SWAP1 PUSH3 0x139 JUMP JUMPDEST POP SWAP1 JUMP JUMPDEST JUMPDEST DUP1 DUP3 GT ISZERO PUSH3 0x154 JUMPI PUSH1 0x0 DUP2 PUSH1 0x0 SWAP1 SSTORE POP PUSH1 0x1 ADD PUSH3 0x13A JUMP JUMPDEST POP SWAP1 JUMP JUMPDEST PUSH1 0x0 PUSH3 0x16F PUSH3 0x169 DUP5 PUSH3 0x284 JUMP JUMPDEST PUSH3 0x25B JUMP JUMPDEST SWAP1 POP DUP3 DUP2 MSTORE PUSH1 0x20 DUP2 ADD DUP5 DUP5 DUP5 ADD GT ISZERO PUSH3 0x18E JUMPI PUSH3 0x18D PUSH3 0x3BF JUMP JUMPDEST JUMPDEST PUSH3 0x19B DUP5 DUP3 DUP6 PUSH3 0x2BA JUMP JUMPDEST POP SWAP4 SWAP3 POP POP POP JUMP JUMPDEST PUSH1 0x0 DUP3 PUSH1 0x1F DUP4 ADD SLT PUSH3 0x1BB JUMPI PUSH3 0x1BA PUSH3 0x3BA JUMP JUMPDEST JUMPDEST DUP2 MLOAD PUSH3 0x1CD DUP5 DUP3 PUSH1 0x20 DUP7 ADD PUSH3 0x158 JUMP JUMPDEST SWAP2 POP POP SWAP3 SWAP2 POP POP JUMP JUMPDEST PUSH1 0x0 DUP1 PUSH1 0x40 DUP4 DUP6 SUB SLT ISZERO PUSH3 0x1F0 JUMPI PUSH3 0x1EF PUSH3 0x3C9 JUMP JUMPDEST JUMPDEST PUSH1 0x0 DUP4 ADD MLOAD PUSH8 0xFFFFFFFFFFFFFFFF DUP2 GT ISZERO PUSH3 0x211 JUMPI PUSH3 0x210 PUSH3 0x3C4 JUMP JUMPDEST JUMPDEST PUSH3 0x21F DUP6 DUP3 DUP7 ADD PUSH3 0x1A3 JUMP JUMPDEST SWAP3 POP POP PUSH1 0x20 DUP4 ADD MLOAD PUSH8 0xFFFFFFFFFFFFFFFF DUP2 GT ISZERO PUSH3 0x243 JUMPI PUSH3 0x242 PUSH3 0x3C4 JUMP JUMPDEST JUMPDEST PUSH3 0x251 DUP6 DUP3 DUP7 ADD PUSH3 0x1A3 JUMP JUMPDEST SWAP2 POP POP SWAP3 POP SWAP3 SWAP1 POP JUMP JUMPDEST PUSH1 0x0 PUSH3 0x267 PUSH3 0x27A JUMP JUMPDEST SWAP1 POP PUSH3 0x275 DUP3 DUP3 PUSH3 0x326 JUMP JUMPDEST SWAP2 SWAP1 POP JUMP JUMPDEST PUSH1 0x0 PUSH1 0x40 MLOAD SWAP1 POP SWAP1 JUMP JUMPDEST PUSH1 0x0 PUSH8 0xFFFFFFFFFFFFFFFF DUP3 GT ISZERO PUSH3 0x2A2 JUMPI PUSH3 0x2A1 PUSH3 0x38B JUMP JUMPDEST JUMPDEST PUSH3 0x2AD DUP3 PUSH3 0x3CE JUMP JUMPDEST SWAP1 POP PUSH1 0x20 DUP2 ADD SWAP1 POP SWAP2 SWAP1 POP JUMP JUMPDEST PUSH1 0x0 JUMPDEST DUP4 DUP2 LT ISZERO PUSH3 0x2DA JUMPI DUP1 DUP3 ADD MLOAD DUP2 DUP5 ADD MSTORE PUSH1 0x20 DUP2 ADD SWAP1 POP PUSH3 0x2BD JUMP JUMPDEST DUP4 DUP2 GT ISZERO PUSH3 0x2EA JUMPI PUSH1 0x0 DUP5 DUP5 ADD MSTORE JUMPDEST POP POP POP POP JUMP JUMPDEST PUSH1 0x0 PUSH1 0x2 DUP3 DIV SWAP1 POP PUSH1 0x1 DUP3 AND DUP1 PUSH3 0x309 JUMPI PUSH1 0x7F DUP3 AND SWAP2 POP JUMPDEST PUSH1 0x20 DUP3 LT DUP2 EQ ISZERO PUSH3 0x320 JUMPI PUSH3 0x31F PUSH3 0x35C JUMP JUMPDEST JUMPDEST POP SWAP2 SWAP1 POP JUMP JUMPDEST PUSH3 0x331 DUP3 PUSH3 0x3CE JUMP JUMPDEST DUP2 ADD DUP2 DUP2 LT PUSH8 0xFFFFFFFFFFFFFFFF DUP3 GT OR ISZERO PUSH3 0x353 JUMPI PUSH3 0x352 PUSH3 0x38B JUMP JUMPDEST JUMPDEST DUP1 PUSH1 0x40 MSTORE POP POP POP JUMP JUMPDEST PUSH32 0x4E487B7100000000000000000000000000000000000000000000000000000000 PUSH1 0x0 MSTORE PUSH1 0x22 PUSH1 0x4 MSTORE PUSH1 0x24 PUSH1 0x0 REVERT JUMPDEST PUSH32 0x4E487B7100000000000000000000000000000000000000000000000000000000 PUSH1 0x0 MSTORE PUSH1 0x41 PUSH1 0x4 MSTORE PUSH1 0x24 PUSH1 0x0 REVERT JUMPDEST PUSH1 0x0 DUP1 REVERT JUMPDEST PUSH1 0x0 DUP1 REVERT JUMPDEST PUSH1 0x0 DUP1 REVERT JUMPDEST PUSH1 0x0 DUP1 REVERT JUMPDEST PUSH1 0x0 PUSH1 0x1F NOT PUSH1 0x1F DUP4 ADD AND SWAP1 POP SWAP2 SWAP1 POP JUMP JUMPDEST PUSH2 0x1BC8 DUP1 PUSH3 0x3EF PUSH1 0x0 CODECOPY PUSH1 0x0 RETURN INVALID PUSH1 0x80 PUSH1 0x40 MSTORE PUSH1 0x4 CALLDATASIZE LT PUSH2 0xF7 JUMPI PUSH1 0x0 CALLDATALOAD PUSH1 0xE0 SHR DUP1 PUSH4 0x5B86F599 GT PUSH2 0x8A JUMPI DUP1 PUSH4 0xA457C2D7 GT PUSH2 0x59 JUMPI DUP1 PUSH4 0xA457C2D7 EQ PUSH2 0x366 JUMPI DUP1 PUSH4 0xA579A914 EQ PUSH2 0x3A3 JUMPI DUP1 PUSH4 0xA9059CBB EQ PUSH2 0x3E0 JUMPI DUP1 PUSH4 0xDD62ED3E EQ PUSH2 0x41D JUMPI PUSH2 0xFE JUMP JUMPDEST DUP1 PUSH4 0x5B86F599 EQ PUSH2 0x291 JUMPI DUP1 PUSH4 0x5C7B79F5 EQ PUSH2 0x2CE JUMPI DUP1 PUSH4 0x70A08231 EQ PUSH2 0x2FE JUMPI DUP1 PUSH4 0x95D89B41 EQ PUSH2 0x33B JUMPI PUSH2 0xFE JUMP JUMPDEST DUP1 PUSH4 0x23B872DD GT PUSH2 0xC6 JUMPI DUP1 PUSH4 0x23B872DD EQ PUSH2 0x1C1 JUMPI DUP1 PUSH4 0x313CE567 EQ PUSH2 0x1FE JUMPI DUP1 PUSH4 0x39509351 EQ PUSH2 0x229 JUMPI DUP1 PUSH4 0x4BA2363A EQ PUSH2 0x266 JUMPI PUSH2 0xFE JUMP JUMPDEST DUP1 PUSH4 0x6FDDE03 EQ PUSH2 0x103 JUMPI DUP1 PUSH4 0x95EA7B3 EQ PUSH2 0x12E JUMPI DUP1 PUSH4 0x18160DDD EQ PUSH2 0x16B JUMPI DUP1 PUSH4 0x21DD501B EQ PUSH2 0x196 JUMPI PUSH2 0xFE JUMP JUMPDEST CALLDATASIZE PUSH2 0xFE JUMPI STOP JUMPDEST PUSH1 0x0 DUP1 REVERT JUMPDEST CALLVALUE DUP1 ISZERO PUSH2 0x10F JUMPI PUSH1 0x0 DUP1 REVERT JUMPDEST POP PUSH2 0x118 PUSH2 0x45A JUMP JUMPDEST PUSH1 0x40 MLOAD PUSH2 0x125 SWAP2 SWAP1 PUSH2 0x1496 JUMP JUMPDEST PUSH1 0x40 MLOAD DUP1 SWAP2 SUB SWAP1 RETURN JUMPDEST CALLVALUE DUP1 ISZERO PUSH2 0x13A JUMPI PUSH1 0x0 DUP1 REVERT JUMPDEST POP PUSH2 0x155 PUSH1 0x4 DUP1 CALLDATASIZE SUB DUP2 ADD SWAP1 PUSH2 0x150 SWAP2 SWAP1 PUSH2 0x1220 JUMP JUMPDEST PUSH2 0x4EC JUMP JUMPDEST PUSH1 0x40 MLOAD PUSH2 0x162 SWAP2 SWAP1 PUSH2 0x147B JUMP JUMPDEST PUSH1 0x40 MLOAD DUP1 SWAP2 SUB SWAP1 RETURN JUMPDEST CALLVALUE DUP1 ISZERO PUSH2 0x177 JUMPI PUSH1 0x0 DUP1 REVERT JUMPDEST POP PUSH2 0x180 PUSH2 0x50F JUMP JUMPDEST PUSH1 0x40 MLOAD PUSH2 0x18D SWAP2 SWAP1 PUSH2 0x15F8 JUMP JUMPDEST PUSH1 0x40 MLOAD DUP1 SWAP2 SUB SWAP1 RETURN JUMPDEST CALLVALUE DUP1 ISZERO PUSH2 0x1A2 JUMPI PUSH1 0x0 DUP1 REVERT JUMPDEST POP PUSH2 0x1AB PUSH2 0x519 JUMP JUMPDEST PUSH1 0x40 MLOAD PUSH2 0x1B8 SWAP2 SWAP1 PUSH2 0x1460 JUMP JUMPDEST PUSH1 0x40 MLOAD DUP1 SWAP2 SUB SWAP1 RETURN JUMPDEST CALLVALUE DUP1 ISZERO PUSH2 0x1CD JUMPI PUSH1 0x0 DUP1 REVERT JUMPDEST POP PUSH2 0x1E8 PUSH1 0x4 DUP1 CALLDATASIZE SUB DUP2 ADD SWAP1 PUSH2 0x1E3 SWAP2 SWAP1 PUSH2 0x11CD JUMP JUMPDEST PUSH2 0x53F JUMP JUMPDEST PUSH1 0x40 MLOAD PUSH2 0x1F5 SWAP2 SWAP1 PUSH2 0x147B JUMP JUMPDEST PUSH1 0x40 MLOAD DUP1 SWAP2 SUB SWAP1 RETURN JUMPDEST CALLVALUE DUP1 ISZERO PUSH2 0x20A JUMPI PUSH1 0x0 DUP1 REVERT JUMPDEST POP PUSH2 0x213 PUSH2 0x56E JUMP JUMPDEST PUSH1 0x40 MLOAD PUSH2 0x220 SWAP2 SWAP1 PUSH2 0x1613 JUMP JUMPDEST PUSH1 0x40 MLOAD DUP1 SWAP2 SUB SWAP1 RETURN JUMPDEST CALLVALUE DUP1 ISZERO PUSH2 0x235 JUMPI PUSH1 0x0 DUP1 REVERT JUMPDEST POP PUSH2 0x250 PUSH1 0x4 DUP1 CALLDATASIZE SUB DUP2 ADD SWAP1 PUSH2 0x24B SWAP2 SWAP1 PUSH2 0x1220 JUMP JUMPDEST PUSH2 0x577 JUMP JUMPDEST PUSH1 0x40 MLOAD PUSH2 0x25D SWAP2 SWAP1 PUSH2 0x147B JUMP JUMPDEST PUSH1 0x40 MLOAD DUP1 SWAP2 SUB SWAP1 RETURN JUMPDEST CALLVALUE DUP1 ISZERO PUSH2 0x272 JUMPI PUSH1 0x0 DUP1 REVERT JUMPDEST POP PUSH2 0x27B PUSH2 0x5AE JUMP JUMPDEST PUSH1 0x40 MLOAD PUSH2 0x288 SWAP2 SWAP1 PUSH2 0x15F8 JUMP JUMPDEST PUSH1 0x40 MLOAD DUP1 SWAP2 SUB SWAP1 RETURN JUMPDEST CALLVALUE DUP1 ISZERO PUSH2 0x29D JUMPI PUSH1 0x0 DUP1 REVERT JUMPDEST POP PUSH2 0x2B8 PUSH1 0x4 DUP1 CALLDATASIZE SUB DUP2 ADD SWAP1 PUSH2 0x2B3 SWAP2 SWAP1 PUSH2 0x1220 JUMP JUMPDEST PUSH2 0x5B6 JUMP JUMPDEST PUSH1 0x40 MLOAD PUSH2 0x2C5 SWAP2 SWAP1 PUSH2 0x147B JUMP JUMPDEST PUSH1 0x40 MLOAD DUP1 SWAP2 SUB SWAP1 RETURN JUMPDEST PUSH2 0x2E8 PUSH1 0x4 DUP1 CALLDATASIZE SUB DUP2 ADD SWAP1 PUSH2 0x2E3 SWAP2 SWAP1 PUSH2 0x1260 JUMP JUMPDEST PUSH2 0x679 JUMP JUMPDEST PUSH1 0x40 MLOAD PUSH2 0x2F5 SWAP2 SWAP1 PUSH2 0x147B JUMP JUMPDEST PUSH1 0x40 MLOAD DUP1 SWAP2 SUB SWAP1 RETURN JUMPDEST CALLVALUE DUP1 ISZERO PUSH2 0x30A JUMPI PUSH1 0x0 DUP1 REVERT JUMPDEST POP PUSH2 0x325 PUSH1 0x4 DUP1 CALLDATASIZE SUB DUP2 ADD SWAP1 PUSH2 0x320 SWAP2 SWAP1 PUSH2 0x1160 JUMP JUMPDEST PUSH2 0x703 JUMP JUMPDEST PUSH1 0x40 MLOAD PUSH2 0x332 SWAP2 SWAP1 PUSH2 0x15F8 JUMP JUMPDEST PUSH1 0x40 MLOAD DUP1 SWAP2 SUB SWAP1 RETURN JUMPDEST CALLVALUE DUP1 ISZERO PUSH2 0x347 JUMPI PUSH1 0x0 DUP1 REVERT JUMPDEST POP PUSH2 0x350 PUSH2 0x74B JUMP JUMPDEST PUSH1 0x40 MLOAD PUSH2 0x35D SWAP2 SWAP1 PUSH2 0x1496 JUMP JUMPDEST PUSH1 0x40 MLOAD DUP1 SWAP2 SUB SWAP1 RETURN JUMPDEST CALLVALUE DUP1 ISZERO PUSH2 0x372 JUMPI PUSH1 0x0 DUP1 REVERT JUMPDEST POP PUSH2 0x38D PUSH1 0x4 DUP1 CALLDATASIZE SUB DUP2 ADD SWAP1 PUSH2 0x388 SWAP2 SWAP1 PUSH2 0x1220 JUMP JUMPDEST PUSH2 0x7DD JUMP JUMPDEST PUSH1 0x40 MLOAD PUSH2 0x39A SWAP2 SWAP1 PUSH2 0x147B JUMP JUMPDEST PUSH1 0x40 MLOAD DUP1 SWAP2 SUB SWAP1 RETURN JUMPDEST CALLVALUE DUP1 ISZERO PUSH2 0x3AF JUMPI PUSH1 0x0 DUP1 REVERT JUMPDEST POP PUSH2 0x3CA PUSH1 0x4 DUP1 CALLDATASIZE SUB DUP2 ADD SWAP1 PUSH2 0x3C5 SWAP2 SWAP1 PUSH2 0x1260 JUMP JUMPDEST PUSH2 0x854 JUMP JUMPDEST PUSH1 0x40 MLOAD PUSH2 0x3D7 SWAP2 SWAP1 PUSH2 0x15F8 JUMP JUMPDEST PUSH1 0x40 MLOAD DUP1 SWAP2 SUB SWAP1 RETURN JUMPDEST CALLVALUE DUP1 ISZERO PUSH2 0x3EC JUMPI PUSH1 0x0 DUP1 REVERT JUMPDEST POP PUSH2 0x407 PUSH1 0x4 DUP1 CALLDATASIZE SUB DUP2 ADD SWAP1 PUSH2 0x402 SWAP2 SWAP1 PUSH2 0x1220 JUMP JUMPDEST PUSH2 0x886 JUMP JUMPDEST PUSH1 0x40 MLOAD PUSH2 0x414 SWAP2 SWAP1 PUSH2 0x147B JUMP JUMPDEST PUSH1 0x40 MLOAD DUP1 SWAP2 SUB SWAP1 RETURN JUMPDEST CALLVALUE DUP1 ISZERO PUSH2 0x429 JUMPI PUSH1 0x0 DUP1 REVERT JUMPDEST POP PUSH2 0x444 PUSH1 0x4 DUP1 CALLDATASIZE SUB DUP2 ADD SWAP1 PUSH2 0x43F SWAP2 SWAP1 PUSH2 0x118D JUMP JUMPDEST PUSH2 0x8A9 JUMP JUMPDEST PUSH1 0x40 MLOAD PUSH2 0x451 SWAP2 SWAP1 PUSH2 0x15F8 JUMP JUMPDEST PUSH1 0x40 MLOAD DUP1 SWAP2 SUB SWAP1 RETURN JUMPDEST PUSH1 0x60 PUSH1 0x3 DUP1 SLOAD PUSH2 0x469 SWAP1 PUSH2 0x17C5 JUMP JUMPDEST DUP1 PUSH1 0x1F ADD PUSH1 0x20 DUP1 SWAP2 DIV MUL PUSH1 0x20 ADD PUSH1 0x40 MLOAD SWAP1 DUP2 ADD PUSH1 0x40 MSTORE DUP1 SWAP3 SWAP2 SWAP1 DUP2 DUP2 MSTORE PUSH1 0x20 ADD DUP3 DUP1 SLOAD PUSH2 0x495 SWAP1 PUSH2 0x17C5 JUMP JUMPDEST DUP1 ISZERO PUSH2 0x4E2 JUMPI DUP1 PUSH1 0x1F LT PUSH2 0x4B7 JUMPI PUSH2 0x100 DUP1 DUP4 SLOAD DIV MUL DUP4 MSTORE SWAP2 PUSH1 0x20 ADD SWAP2 PUSH2 0x4E2 JUMP JUMPDEST DUP3 ADD SWAP2 SWAP1 PUSH1 0x0 MSTORE PUSH1 0x20 PUSH1 0x0 KECCAK256 SWAP1 JUMPDEST DUP2 SLOAD DUP2 MSTORE SWAP1 PUSH1 0x1 ADD SWAP1 PUSH1 0x20 ADD DUP1 DUP4 GT PUSH2 0x4C5 JUMPI DUP3 SWAP1 SUB PUSH1 0x1F AND DUP3 ADD SWAP2 JUMPDEST POP POP POP POP POP SWAP1 POP SWAP1 JUMP JUMPDEST PUSH1 0x0 DUP1 PUSH2 0x4F7 PUSH2 0x930 JUMP JUMPDEST SWAP1 POP PUSH2 0x504 DUP2 DUP6 DUP6 PUSH2 0x938 JUMP JUMPDEST PUSH1 0x1 SWAP2 POP POP SWAP3 SWAP2 POP POP JUMP JUMPDEST PUSH1 0x0 PUSH1 0x2 SLOAD SWAP1 POP SWAP1 JUMP JUMPDEST PUSH1 0x5 PUSH1 0x0 SWAP1 SLOAD SWAP1 PUSH2 0x100 EXP SWAP1 DIV PUSH20 0xFFFFFFFFFFFFFFFFFFFFFFFFFFFFFFFFFFFFFFFF AND DUP2 JUMP JUMPDEST PUSH1 0x0 DUP1 PUSH2 0x54A PUSH2 0x930 JUMP JUMPDEST SWAP1 POP PUSH2 0x557 DUP6 DUP3 DUP6 PUSH2 0xB03 JUMP JUMPDEST PUSH2 0x562 DUP6 DUP6 DUP6 PUSH2 0xB8F JUMP JUMPDEST PUSH1 0x1 SWAP2 POP POP SWAP4 SWAP3 POP POP POP JUMP JUMPDEST PUSH1 0x0 PUSH1 0x12 SWAP1 POP SWAP1 JUMP JUMPDEST PUSH1 0x0 DUP1 PUSH2 0x582 PUSH2 0x930 JUMP JUMPDEST SWAP1 POP PUSH2 0x5A3 DUP2 DUP6 DUP6 PUSH2 0x594 DUP6 DUP10 PUSH2 0x8A9 JUMP JUMPDEST PUSH2 0x59E SWAP2 SWAP1 PUSH2 0x164A JUMP JUMPDEST PUSH2 0x938 JUMP JUMPDEST PUSH1 0x1 SWAP2 POP POP SWAP3 SWAP2 POP POP JUMP JUMPDEST PUSH1 0x0 SELFBALANCE SWAP1 POP SWAP1 JUMP JUMPDEST PUSH1 0x0 CALLER PUSH20 0xFFFFFFFFFFFFFFFFFFFFFFFFFFFFFFFFFFFFFFFF AND PUSH1 0x5 PUSH1 0x0 SWAP1 SLOAD SWAP1 PUSH2 0x100 EXP SWAP1 DIV PUSH20 0xFFFFFFFFFFFFFFFFFFFFFFFFFFFFFFFFFFFFFFFF AND PUSH20 0xFFFFFFFFFFFFFFFFFFFFFFFFFFFFFFFFFFFFFFFF AND EQ ISZERO PUSH2 0x66F JUMPI PUSH2 0x618 DUP4 DUP4 PUSH2 0xE07 JUMP JUMPDEST DUP3 PUSH20 0xFFFFFFFFFFFFFFFFFFFFFFFFFFFFFFFFFFFFFFFF AND PUSH32 0xD1EB9126DF5675C341B5E1F68F8E5FD0D29ADCE1D8AA44CEF7E385EB3060559A PUSH2 0x659 DUP6 PUSH2 0x703 JUMP JUMPDEST PUSH1 0x40 MLOAD PUSH2 0x666 SWAP2 SWAP1 PUSH2 0x15F8 JUMP JUMPDEST PUSH1 0x40 MLOAD DUP1 SWAP2 SUB SWAP1 LOG2 JUMPDEST PUSH1 0x1 SWAP1 POP SWAP3 SWAP2 POP POP JUMP JUMPDEST PUSH1 0x0 DUP1 CALLER SWAP1 POP PUSH1 0x0 SELFBALANCE SWAP1 POP PUSH1 0x0 PUSH2 0x68E PUSH2 0x50F JUMP JUMPDEST DUP6 PUSH2 0x699 SWAP2 SWAP1 PUSH2 0x16A0 JUMP JUMPDEST DUP3 PUSH2 0x6A4 SWAP2 SWAP1 PUSH2 0x16D1 JUMP JUMPDEST SWAP1 POP PUSH2 0x6B0 DUP4 DUP7 PUSH2 0xF5E JUMP JUMPDEST DUP3 PUSH20 0xFFFFFFFFFFFFFFFFFFFFFFFFFFFFFFFFFFFFFFFF AND PUSH2 0x8FC DUP3 SWAP1 DUP2 ISZERO MUL SWAP1 PUSH1 0x40 MLOAD PUSH1 0x0 PUSH1 0x40 MLOAD DUP1 DUP4 SUB DUP2 DUP6 DUP9 DUP9 CALL SWAP4 POP POP POP POP ISZERO DUP1 ISZERO PUSH2 0x6F6 JUMPI RETURNDATASIZE PUSH1 0x0 DUP1 RETURNDATACOPY RETURNDATASIZE PUSH1 0x0 REVERT JUMPDEST POP PUSH1 0x1 SWAP4 POP POP POP POP SWAP2 SWAP1 POP JUMP JUMPDEST PUSH1 0x0 DUP1 PUSH1 0x0 DUP4 PUSH20 0xFFFFFFFFFFFFFFFFFFFFFFFFFFFFFFFFFFFFFFFF AND PUSH20 0xFFFFFFFFFFFFFFFFFFFFFFFFFFFFFFFFFFFFFFFF AND DUP2 MSTORE PUSH1 0x20 ADD SWAP1 DUP2 MSTORE PUSH1 0x20 ADD PUSH1 0x0 KECCAK256 SLOAD SWAP1 POP SWAP2 SWAP1 POP JUMP JUMPDEST PUSH1 0x60 PUSH1 0x4 DUP1 SLOAD PUSH2 0x75A SWAP1 PUSH2 0x17C5 JUMP JUMPDEST DUP1 PUSH1 0x1F ADD PUSH1 0x20 DUP1 SWAP2 DIV MUL PUSH1 0x20 ADD PUSH1 0x40 MLOAD SWAP1 DUP2 ADD PUSH1 0x40 MSTORE DUP1 SWAP3 SWAP2 SWAP1 DUP2 DUP2 MSTORE PUSH1 0x20 ADD DUP3 DUP1 SLOAD PUSH2 0x786 SWAP1 PUSH2 0x17C5 JUMP JUMPDEST DUP1 ISZERO PUSH2 0x7D3 JUMPI DUP1 PUSH1 0x1F LT PUSH2 0x7A8 JUMPI PUSH2 0x100 DUP1 DUP4 SLOAD DIV MUL DUP4 MSTORE SWAP2 PUSH1 0x20 ADD SWAP2 PUSH2 0x7D3 JUMP JUMPDEST DUP3 ADD SWAP2 SWAP1 PUSH1 0x0 MSTORE PUSH1 0x20 PUSH1 0x0 KECCAK256 SWAP1 JUMPDEST DUP2 SLOAD DUP2 MSTORE SWAP1 PUSH1 0x1 ADD SWAP1 PUSH1 0x20 ADD DUP1 DUP4 GT PUSH2 0x7B6 JUMPI DUP3 SWAP1 SUB PUSH1 0x1F AND DUP3 ADD SWAP2 JUMPDEST POP POP POP POP POP SWAP1 POP SWAP1 JUMP JUMPDEST PUSH1 0x0 DUP1 PUSH2 0x7E8 PUSH2 0x930 JUMP JUMPDEST SWAP1 POP PUSH1 0x0 PUSH2 0x7F6 DUP3 DUP7 PUSH2 0x8A9 JUMP JUMPDEST SWAP1 POP DUP4 DUP2 LT ISZERO PUSH2 0x83B JUMPI PUSH1 0x40 MLOAD PUSH32 0x8C379A000000000000000000000000000000000000000000000000000000000 DUP2 MSTORE PUSH1 0x4 ADD PUSH2 0x832 SWAP1 PUSH2 0x15B8 JUMP JUMPDEST PUSH1 0x40 MLOAD DUP1 SWAP2 SUB SWAP1 REVERT JUMPDEST PUSH2 0x848 DUP3 DUP7 DUP7 DUP5 SUB PUSH2 0x938 JUMP JUMPDEST PUSH1 0x1 SWAP3 POP POP POP SWAP3 SWAP2 POP POP JUMP JUMPDEST PUSH1 0x0 DUP1 SELFBALANCE SWAP1 POP PUSH1 0x0 PUSH2 0x864 PUSH2 0x50F JUMP JUMPDEST DUP5 PUSH2 0x86F SWAP2 SWAP1 PUSH2 0x16A0 JUMP JUMPDEST DUP3 PUSH2 0x87A SWAP2 SWAP1 PUSH2 0x16D1 JUMP JUMPDEST SWAP1 POP DUP1 SWAP3 POP POP POP SWAP2 SWAP1 POP JUMP JUMPDEST PUSH1 0x0 DUP1 PUSH2 0x891 PUSH2 0x930 JUMP JUMPDEST SWAP1 POP PUSH2 0x89E DUP2 DUP6 DUP6 PUSH2 0xB8F JUMP JUMPDEST PUSH1 0x1 SWAP2 POP POP SWAP3 SWAP2 POP POP JUMP JUMPDEST PUSH1 0x0 PUSH1 0x1 PUSH1 0x0 DUP5 PUSH20 0xFFFFFFFFFFFFFFFFFFFFFFFFFFFFFFFFFFFFFFFF AND PUSH20 0xFFFFFFFFFFFFFFFFFFFFFFFFFFFFFFFFFFFFFFFF AND DUP2 MSTORE PUSH1 0x20 ADD SWAP1 DUP2 MSTORE PUSH1 0x20 ADD PUSH1 0x0 KECCAK256 PUSH1 0x0 DUP4 PUSH20 0xFFFFFFFFFFFFFFFFFFFFFFFFFFFFFFFFFFFFFFFF AND PUSH20 0xFFFFFFFFFFFFFFFFFFFFFFFFFFFFFFFFFFFFFFFF AND DUP2 MSTORE PUSH1 0x20 ADD SWAP1 DUP2 MSTORE PUSH1 0x20 ADD PUSH1 0x0 KECCAK256 SLOAD SWAP1 POP SWAP3 SWAP2 POP POP JUMP JUMPDEST PUSH1 0x0 CALLER SWAP1 POP SWAP1 JUMP JUMPDEST PUSH1 0x0 PUSH20 0xFFFFFFFFFFFFFFFFFFFFFFFFFFFFFFFFFFFFFFFF AND DUP4 PUSH20 0xFFFFFFFFFFFFFFFFFFFFFFFFFFFFFFFFFFFFFFFF AND EQ ISZERO PUSH2 0x9A8 JUMPI PUSH1 0x40 MLOAD PUSH32 0x8C379A000000000000000000000000000000000000000000000000000000000 DUP2 MSTORE PUSH1 0x4 ADD PUSH2 0x99F SWAP1 PUSH2 0x1598 JUMP JUMPDEST PUSH1 0x40 MLOAD DUP1 SWAP2 SUB SWAP1 REVERT JUMPDEST PUSH1 0x0 PUSH20 0xFFFFFFFFFFFFFFFFFFFFFFFFFFFFFFFFFFFFFFFF AND DUP3 PUSH20 0xFFFFFFFFFFFFFFFFFFFFFFFFFFFFFFFFFFFFFFFF AND EQ ISZERO PUSH2 0xA18 JUMPI PUSH1 0x40 MLOAD PUSH32 0x8C379A000000000000000000000000000000000000000000000000000000000 DUP2 MSTORE PUSH1 0x4 ADD PUSH2 0xA0F SWAP1 PUSH2 0x14F8 JUMP JUMPDEST PUSH1 0x40 MLOAD DUP1 SWAP2 SUB SWAP1 REVERT JUMPDEST DUP1 PUSH1 0x1 PUSH1 0x0 DUP6 PUSH20 0xFFFFFFFFFFFFFFFFFFFFFFFFFFFFFFFFFFFFFFFF AND PUSH20 0xFFFFFFFFFFFFFFFFFFFFFFFFFFFFFFFFFFFFFFFF AND DUP2 MSTORE PUSH1 0x20 ADD SWAP1 DUP2 MSTORE PUSH1 0x20 ADD PUSH1 0x0 KECCAK256 PUSH1 0x0 DUP5 PUSH20 0xFFFFFFFFFFFFFFFFFFFFFFFFFFFFFFFFFFFFFFFF AND PUSH20 0xFFFFFFFFFFFFFFFFFFFFFFFFFFFFFFFFFFFFFFFF AND DUP2 MSTORE PUSH1 0x20 ADD SWAP1 DUP2 MSTORE PUSH1 0x20 ADD PUSH1 0x0 KECCAK256 DUP2 SWAP1 SSTORE POP DUP2 PUSH20 0xFFFFFFFFFFFFFFFFFFFFFFFFFFFFFFFFFFFFFFFF AND DUP4 PUSH20 0xFFFFFFFFFFFFFFFFFFFFFFFFFFFFFFFFFFFFFFFF AND PUSH32 0x8C5BE1E5EBEC7D5BD14F71427D1E84F3DD0314C0F7B2291E5B200AC8C7C3B925 DUP4 PUSH1 0x40 MLOAD PUSH2 0xAF6 SWAP2 SWAP1 PUSH2 0x15F8 JUMP JUMPDEST PUSH1 0x40 MLOAD DUP1 SWAP2 SUB SWAP1 LOG3 POP POP POP JUMP JUMPDEST PUSH1 0x0 PUSH2 0xB0F DUP5 DUP5 PUSH2 0x8A9 JUMP JUMPDEST SWAP1 POP PUSH32 0xFFFFFFFFFFFFFFFFFFFFFFFFFFFFFFFFFFFFFFFFFFFFFFFFFFFFFFFFFFFFFFFF DUP2 EQ PUSH2 0xB89 JUMPI DUP2 DUP2 LT ISZERO PUSH2 0xB7B JUMPI PUSH1 0x40 MLOAD PUSH32 0x8C379A000000000000000000000000000000000000000000000000000000000 DUP2 MSTORE PUSH1 0x4 ADD PUSH2 0xB72 SWAP1 PUSH2 0x1518 JUMP JUMPDEST PUSH1 0x40 MLOAD DUP1 SWAP2 SUB SWAP1 REVERT JUMPDEST PUSH2 0xB88 DUP5 DUP5 DUP5 DUP5 SUB PUSH2 0x938 JUMP JUMPDEST JUMPDEST POP POP POP POP JUMP JUMPDEST PUSH1 0x0 PUSH20 0xFFFFFFFFFFFFFFFFFFFFFFFFFFFFFFFFFFFFFFFF AND DUP4 PUSH20 0xFFFFFFFFFFFFFFFFFFFFFFFFFFFFFFFFFFFFFFFF AND EQ ISZERO PUSH2 0xBFF JUMPI PUSH1 0x40 MLOAD PUSH32 0x8C379A000000000000000000000000000000000000000000000000000000000 DUP2 MSTORE PUSH1 0x4 ADD PUSH2 0xBF6 SWAP1 PUSH2 0x1578 JUMP JUMPDEST PUSH1 0x40 MLOAD DUP1 SWAP2 SUB SWAP1 REVERT JUMPDEST PUSH1 0x0 PUSH20 0xFFFFFFFFFFFFFFFFFFFFFFFFFFFFFFFFFFFFFFFF AND DUP3 PUSH20 0xFFFFFFFFFFFFFFFFFFFFFFFFFFFFFFFFFFFFFFFF AND EQ ISZERO PUSH2 0xC6F JUMPI PUSH1 0x40 MLOAD PUSH32 0x8C379A000000000000000000000000000000000000000000000000000000000 DUP2 MSTORE PUSH1 0x4 ADD PUSH2 0xC66 SWAP1 PUSH2 0x14B8 JUMP JUMPDEST PUSH1 0x40 MLOAD DUP1 SWAP2 SUB SWAP1 REVERT JUMPDEST PUSH2 0xC7A DUP4 DUP4 DUP4 PUSH2 0x112C JUMP JUMPDEST PUSH1 0x0 DUP1 PUSH1 0x0 DUP6 PUSH20 0xFFFFFFFFFFFFFFFFFFFFFFFFFFFFFFFFFFFFFFFF AND PUSH20 0xFFFFFFFFFFFFFFFFFFFFFFFFFFFFFFFFFFFFFFFF AND DUP2 MSTORE PUSH1 0x20 ADD SWAP1 DUP2 MSTORE PUSH1 0x20 ADD PUSH1 0x0 KECCAK256 SLOAD SWAP1 POP DUP2 DUP2 LT ISZERO PUSH2 0xD00 JUMPI PUSH1 0x40 MLOAD PUSH32 0x8C379A000000000000000000000000000000000000000000000000000000000 DUP2 MSTORE PUSH1 0x4 ADD PUSH2 0xCF7 SWAP1 PUSH2 0x1538 JUMP JUMPDEST PUSH1 0x40 MLOAD DUP1 SWAP2 SUB SWAP1 REVERT JUMPDEST DUP2 DUP2 SUB PUSH1 0x0 DUP1 DUP7 PUSH20 0xFFFFFFFFFFFFFFFFFFFFFFFFFFFFFFFFFFFFFFFF AND PUSH20 0xFFFFFFFFFFFFFFFFFFFFFFFFFFFFFFFFFFFFFFFF AND DUP2 MSTORE PUSH1 0x20 ADD SWAP1 DUP2 MSTORE PUSH1 0x20 ADD PUSH1 0x0 KECCAK256 DUP2 SWAP1 SSTORE POP DUP2 PUSH1 0x0 DUP1 DUP6 PUSH20 0xFFFFFFFFFFFFFFFFFFFFFFFFFFFFFFFFFFFFFFFF AND PUSH20 0xFFFFFFFFFFFFFFFFFFFFFFFFFFFFFFFFFFFFFFFF AND DUP2 MSTORE PUSH1 0x20 ADD SWAP1 DUP2 MSTORE PUSH1 0x20 ADD PUSH1 0x0 KECCAK256 PUSH1 0x0 DUP3 DUP3 SLOAD ADD SWAP3 POP POP DUP2 SWAP1 SSTORE POP DUP3 PUSH20 0xFFFFFFFFFFFFFFFFFFFFFFFFFFFFFFFFFFFFFFFF AND DUP5 PUSH20 0xFFFFFFFFFFFFFFFFFFFFFFFFFFFFFFFFFFFFFFFF AND PUSH32 0xDDF252AD1BE2C89B69C2B068FC378DAA952BA7F163C4A11628F55A4DF523B3EF DUP5 PUSH1 0x40 MLOAD PUSH2 0xDEE SWAP2 SWAP1 PUSH2 0x15F8 JUMP JUMPDEST PUSH1 0x40 MLOAD DUP1 SWAP2 SUB SWAP1 LOG3 PUSH2 0xE01 DUP5 DUP5 DUP5 PUSH2 0x1131 JUMP JUMPDEST POP POP POP POP JUMP JUMPDEST PUSH1 0x0 PUSH20 0xFFFFFFFFFFFFFFFFFFFFFFFFFFFFFFFFFFFFFFFF AND DUP3 PUSH20 0xFFFFFFFFFFFFFFFFFFFFFFFFFFFFFFFFFFFFFFFF AND EQ ISZERO PUSH2 0xE77 JUMPI PUSH1 0x40 MLOAD PUSH32 0x8C379A000000000000000000000000000000000000000000000000000000000 DUP2 MSTORE PUSH1 0x4 ADD PUSH2 0xE6E SWAP1 PUSH2 0x15D8 JUMP JUMPDEST PUSH1 0x40 MLOAD DUP1 SWAP2 SUB SWAP1 REVERT JUMPDEST PUSH2 0xE83 PUSH1 0x0 DUP4 DUP4 PUSH2 0x112C JUMP JUMPDEST DUP1 PUSH1 0x2 PUSH1 0x0 DUP3 DUP3 SLOAD PUSH2 0xE95 SWAP2 SWAP1 PUSH2 0x164A JUMP JUMPDEST SWAP3 POP POP DUP2 SWAP1 SSTORE POP DUP1 PUSH1 0x0 DUP1 DUP5 PUSH20 0xFFFFFFFFFFFFFFFFFFFFFFFFFFFFFFFFFFFFFFFF AND PUSH20 0xFFFFFFFFFFFFFFFFFFFFFFFFFFFFFFFFFFFFFFFF AND DUP2 MSTORE PUSH1 0x20 ADD SWAP1 DUP2 MSTORE PUSH1 0x20 ADD PUSH1 0x0 KECCAK256 PUSH1 0x0 DUP3 DUP3 SLOAD ADD SWAP3 POP POP DUP2 SWAP1 SSTORE POP DUP2 PUSH20 0xFFFFFFFFFFFFFFFFFFFFFFFFFFFFFFFFFFFFFFFF AND PUSH1 0x0 PUSH20 0xFFFFFFFFFFFFFFFFFFFFFFFFFFFFFFFFFFFFFFFF AND PUSH32 0xDDF252AD1BE2C89B69C2B068FC378DAA952BA7F163C4A11628F55A4DF523B3EF DUP4 PUSH1 0x40 MLOAD PUSH2 0xF46 SWAP2 SWAP1 PUSH2 0x15F8 JUMP JUMPDEST PUSH1 0x40 MLOAD DUP1 SWAP2 SUB SWAP1 LOG3 PUSH2 0xF5A PUSH1 0x0 DUP4 DUP4 PUSH2 0x1131 JUMP JUMPDEST POP POP JUMP JUMPDEST PUSH1 0x0 PUSH20 0xFFFFFFFFFFFFFFFFFFFFFFFFFFFFFFFFFFFFFFFF AND DUP3 PUSH20 0xFFFFFFFFFFFFFFFFFFFFFFFFFFFFFFFFFFFFFFFF AND EQ ISZERO PUSH2 0xFCE JUMPI PUSH1 0x40 MLOAD PUSH32 0x8C379A000000000000000000000000000000000000000000000000000000000 DUP2 MSTORE PUSH1 0x4 ADD PUSH2 0xFC5 SWAP1 PUSH2 0x1558 JUMP JUMPDEST PUSH1 0x40 MLOAD DUP1 SWAP2 SUB SWAP1 REVERT JUMPDEST PUSH2 0xFDA DUP3 PUSH1 0x0 DUP4 PUSH2 0x112C JUMP JUMPDEST PUSH1 0x0 DUP1 PUSH1 0x0 DUP5 PUSH20 0xFFFFFFFFFFFFFFFFFFFFFFFFFFFFFFFFFFFFFFFF AND PUSH20 0xFFFFFFFFFFFFFFFFFFFFFFFFFFFFFFFFFFFFFFFF AND DUP2 MSTORE PUSH1 0x20 ADD SWAP1 DUP2 MSTORE PUSH1 0x20 ADD PUSH1 0x0 KECCAK256 SLOAD SWAP1 POP DUP2 DUP2 LT ISZERO PUSH2 0x1060 JUMPI PUSH1 0x40 MLOAD PUSH32 0x8C379A000000000000000000000000000000000000000000000000000000000 DUP2 MSTORE PUSH1 0x4 ADD PUSH2 0x1057 SWAP1 PUSH2 0x14D8 JUMP JUMPDEST PUSH1 0x40 MLOAD DUP1 SWAP2 SUB SWAP1 REVERT JUMPDEST DUP2 DUP2 SUB PUSH1 0x0 DUP1 DUP6 PUSH20 0xFFFFFFFFFFFFFFFFFFFFFFFFFFFFFFFFFFFFFFFF AND PUSH20 0xFFFFFFFFFFFFFFFFFFFFFFFFFFFFFFFFFFFFFFFF AND DUP2 MSTORE PUSH1 0x20 ADD SWAP1 DUP2 MSTORE PUSH1 0x20 ADD PUSH1 0x0 KECCAK256 DUP2 SWAP1 SSTORE POP DUP2 PUSH1 0x2 PUSH1 0x0 DUP3 DUP3 SLOAD SUB SWAP3 POP POP DUP2 SWAP1 SSTORE POP PUSH1 0x0 PUSH20 0xFFFFFFFFFFFFFFFFFFFFFFFFFFFFFFFFFFFFFFFF AND DUP4 PUSH20 0xFFFFFFFFFFFFFFFFFFFFFFFFFFFFFFFFFFFFFFFF AND PUSH32 0xDDF252AD1BE2C89B69C2B068FC378DAA952BA7F163C4A11628F55A4DF523B3EF DUP5 PUSH1 0x40 MLOAD PUSH2 0x1113 SWAP2 SWAP1 PUSH2 0x15F8 JUMP JUMPDEST PUSH1 0x40 MLOAD DUP1 SWAP2 SUB SWAP1 LOG3 PUSH2 0x1127 DUP4 PUSH1 0x0 DUP5 PUSH2 0x1131 JUMP JUMPDEST POP POP POP JUMP JUMPDEST POP POP POP JUMP JUMPDEST POP POP POP JUMP JUMPDEST PUSH1 0x0 DUP2 CALLDATALOAD SWAP1 POP PUSH2 0x1145 DUP2 PUSH2 0x1B64 JUMP JUMPDEST SWAP3 SWAP2 POP POP JUMP JUMPDEST PUSH1 0x0 DUP2 CALLDATALOAD SWAP1 POP PUSH2 0x115A DUP2 PUSH2 0x1B7B JUMP JUMPDEST SWAP3 SWAP2 POP POP JUMP JUMPDEST PUSH1 0x0 PUSH1 0x20 DUP3 DUP5 SUB SLT ISZERO PUSH2 0x1176 JUMPI PUSH2 0x1175 PUSH2 0x1884 JUMP JUMPDEST JUMPDEST PUSH1 0x0 PUSH2 0x1184 DUP5 DUP3 DUP6 ADD PUSH2 0x1136 JUMP JUMPDEST SWAP2 POP POP SWAP3 SWAP2 POP POP JUMP JUMPDEST PUSH1 0x0 DUP1 PUSH1 0x40 DUP4 DUP6 SUB SLT ISZERO PUSH2 0x11A4 JUMPI PUSH2 0x11A3 PUSH2 0x1884 JUMP JUMPDEST JUMPDEST PUSH1 0x0 PUSH2 0x11B2 DUP6 DUP3 DUP7 ADD PUSH2 0x1136 JUMP JUMPDEST SWAP3 POP POP PUSH1 0x20 PUSH2 0x11C3 DUP6 DUP3 DUP7 ADD PUSH2 0x1136 JUMP JUMPDEST SWAP2 POP POP SWAP3 POP SWAP3 SWAP1 POP JUMP JUMPDEST PUSH1 0x0 DUP1 PUSH1 0x0 PUSH1 0x60 DUP5 DUP7 SUB SLT ISZERO PUSH2 0x11E6 JUMPI PUSH2 0x11E5 PUSH2 0x1884 JUMP JUMPDEST JUMPDEST PUSH1 0x0 PUSH2 0x11F4 DUP7 DUP3 DUP8 ADD PUSH2 0x1136 JUMP JUMPDEST SWAP4 POP POP PUSH1 0x20 PUSH2 0x1205 DUP7 DUP3 DUP8 ADD PUSH2 0x1136 JUMP JUMPDEST SWAP3 POP POP PUSH1 0x40 PUSH2 0x1216 DUP7 DUP3 DUP8 ADD PUSH2 0x114B JUMP JUMPDEST SWAP2 POP POP SWAP3 POP SWAP3 POP SWAP3 JUMP JUMPDEST PUSH1 0x0 DUP1 PUSH1 0x40 DUP4 DUP6 SUB SLT ISZERO PUSH2 0x1237 JUMPI PUSH2 0x1236 PUSH2 0x1884 JUMP JUMPDEST JUMPDEST PUSH1 0x0 PUSH2 0x1245 DUP6 DUP3 DUP7 ADD PUSH2 0x1136 JUMP JUMPDEST SWAP3 POP POP PUSH1 0x20 PUSH2 0x1256 DUP6 DUP3 DUP7 ADD PUSH2 0x114B JUMP JUMPDEST SWAP2 POP POP SWAP3 POP SWAP3 SWAP1 POP JUMP JUMPDEST PUSH1 0x0 PUSH1 0x20 DUP3 DUP5 SUB SLT ISZERO PUSH2 0x1276 JUMPI PUSH2 0x1275 PUSH2 0x1884 JUMP JUMPDEST JUMPDEST PUSH1 0x0 PUSH2 0x1284 DUP5 DUP3 DUP6 ADD PUSH2 0x114B JUMP JUMPDEST SWAP2 POP POP SWAP3 SWAP2 POP POP JUMP JUMPDEST PUSH2 0x1296 DUP2 PUSH2 0x173D JUMP JUMPDEST DUP3 MSTORE POP POP JUMP JUMPDEST PUSH2 0x12A5 DUP2 PUSH2 0x174F JUMP JUMPDEST DUP3 MSTORE POP POP JUMP JUMPDEST PUSH1 0x0 PUSH2 0x12B6 DUP3 PUSH2 0x162E JUMP JUMPDEST PUSH2 0x12C0 DUP2 DUP6 PUSH2 0x1639 JUMP JUMPDEST SWAP4 POP PUSH2 0x12D0 DUP2 DUP6 PUSH1 0x20 DUP7 ADD PUSH2 0x1792 JUMP JUMPDEST PUSH2 0x12D9 DUP2 PUSH2 0x1889 JUMP JUMPDEST DUP5 ADD SWAP2 POP POP SWAP3 SWAP2 POP POP JUMP JUMPDEST PUSH1 0x0 PUSH2 0x12F1 PUSH1 0x23 DUP4 PUSH2 0x1639 JUMP JUMPDEST SWAP2 POP PUSH2 0x12FC DUP3 PUSH2 0x189A JUMP JUMPDEST PUSH1 0x40 DUP3 ADD SWAP1 POP SWAP2 SWAP1 POP JUMP JUMPDEST PUSH1 0x0 PUSH2 0x1314 PUSH1 0x22 DUP4 PUSH2 0x1639 JUMP JUMPDEST SWAP2 POP PUSH2 0x131F DUP3 PUSH2 0x18E9 JUMP JUMPDEST PUSH1 0x40 DUP3 ADD SWAP1 POP SWAP2 SWAP1 POP JUMP JUMPDEST PUSH1 0x0 PUSH2 0x1337 PUSH1 0x22 DUP4 PUSH2 0x1639 JUMP JUMPDEST SWAP2 POP PUSH2 0x1342 DUP3 PUSH2 0x1938 JUMP JUMPDEST PUSH1 0x40 DUP3 ADD SWAP1 POP SWAP2 SWAP1 POP JUMP JUMPDEST PUSH1 0x0 PUSH2 0x135A PUSH1 0x1D DUP4 PUSH2 0x1639 JUMP JUMPDEST SWAP2 POP PUSH2 0x1365 DUP3 PUSH2 0x1987 JUMP JUMPDEST PUSH1 0x20 DUP3 ADD SWAP1 POP SWAP2 SWAP1 POP JUMP JUMPDEST PUSH1 0x0 PUSH2 0x137D PUSH1 0x26 DUP4 PUSH2 0x1639 JUMP JUMPDEST SWAP2 POP PUSH2 0x1388 DUP3 PUSH2 0x19B0 JUMP JUMPDEST PUSH1 0x40 DUP3 ADD SWAP1 POP SWAP2 SWAP1 POP JUMP JUMPDEST PUSH1 0x0 PUSH2 0x13A0 PUSH1 0x21 DUP4 PUSH2 0x1639 JUMP JUMPDEST SWAP2 POP PUSH2 0x13AB DUP3 PUSH2 0x19FF JUMP JUMPDEST PUSH1 0x40 DUP3 ADD SWAP1 POP SWAP2 SWAP1 POP JUMP JUMPDEST PUSH1 0x0 PUSH2 0x13C3 PUSH1 0x25 DUP4 PUSH2 0x1639 JUMP JUMPDEST SWAP2 POP PUSH2 0x13CE DUP3 PUSH2 0x1A4E JUMP JUMPDEST PUSH1 0x40 DUP3 ADD SWAP1 POP SWAP2 SWAP1 POP JUMP JUMPDEST PUSH1 0x0 PUSH2 0x13E6 PUSH1 0x24 DUP4 PUSH2 0x1639 JUMP JUMPDEST SWAP2 POP PUSH2 0x13F1 DUP3 PUSH2 0x1A9D JUMP JUMPDEST PUSH1 0x40 DUP3 ADD SWAP1 POP SWAP2 SWAP1 POP JUMP JUMPDEST PUSH1 0x0 PUSH2 0x1409 PUSH1 0x25 DUP4 PUSH2 0x1639 JUMP JUMPDEST SWAP2 POP PUSH2 0x1414 DUP3 PUSH2 0x1AEC JUMP JUMPDEST PUSH1 0x40 DUP3 ADD SWAP1 POP SWAP2 SWAP1 POP JUMP JUMPDEST PUSH1 0x0 PUSH2 0x142C PUSH1 0x1F DUP4 PUSH2 0x1639 JUMP JUMPDEST SWAP2 POP PUSH2 0x1437 DUP3 PUSH2 0x1B3B JUMP JUMPDEST PUSH1 0x20 DUP3 ADD SWAP1 POP SWAP2 SWAP1 POP JUMP JUMPDEST PUSH2 0x144B DUP2 PUSH2 0x177B JUMP JUMPDEST DUP3 MSTORE POP POP JUMP JUMPDEST PUSH2 0x145A DUP2 PUSH2 0x1785 JUMP JUMPDEST DUP3 MSTORE POP POP JUMP JUMPDEST PUSH1 0x0 PUSH1 0x20 DUP3 ADD SWAP1 POP PUSH2 0x1475 PUSH1 0x0 DUP4 ADD DUP5 PUSH2 0x128D JUMP JUMPDEST SWAP3 SWAP2 POP POP JUMP JUMPDEST PUSH1 0x0 PUSH1 0x20 DUP3 ADD SWAP1 POP PUSH2 0x1490 PUSH1 0x0 DUP4 ADD DUP5 PUSH2 0x129C JUMP JUMPDEST SWAP3 SWAP2 POP POP JUMP JUMPDEST PUSH1 0x0 PUSH1 0x20 DUP3 ADD SWAP1 POP DUP2 DUP2 SUB PUSH1 0x0 DUP4 ADD MSTORE PUSH2 0x14B0 DUP2 DUP5 PUSH2 0x12AB JUMP JUMPDEST SWAP1 POP SWAP3 SWAP2 POP POP JUMP JUMPDEST PUSH1 0x0 PUSH1 0x20 DUP3 ADD SWAP1 POP DUP2 DUP2 SUB PUSH1 0x0 DUP4 ADD MSTORE PUSH2 0x14D1 DUP2 PUSH2 0x12E4 JUMP JUMPDEST SWAP1 POP SWAP2 SWAP1 POP JUMP JUMPDEST PUSH1 0x0 PUSH1 0x20 DUP3 ADD SWAP1 POP DUP2 DUP2 SUB PUSH1 0x0 DUP4 ADD MSTORE PUSH2 0x14F1 DUP2 PUSH2 0x1307 JUMP JUMPDEST SWAP1 POP SWAP2 SWAP1 POP JUMP JUMPDEST PUSH1 0x0 PUSH1 0x20 DUP3 ADD SWAP1 POP DUP2 DUP2 SUB PUSH1 0x0 DUP4 ADD MSTORE PUSH2 0x1511 DUP2 PUSH2 0x132A JUMP JUMPDEST SWAP1 POP SWAP2 SWAP1 POP JUMP JUMPDEST PUSH1 0x0 PUSH1 0x20 DUP3 ADD SWAP1 POP DUP2 DUP2 SUB PUSH1 0x0 DUP4 ADD MSTORE PUSH2 0x1531 DUP2 PUSH2 0x134D JUMP JUMPDEST SWAP1 POP SWAP2 SWAP1 POP JUMP JUMPDEST PUSH1 0x0 PUSH1 0x20 DUP3 ADD SWAP1 POP DUP2 DUP2 SUB PUSH1 0x0 DUP4 ADD MSTORE PUSH2 0x1551 DUP2 PUSH2 0x1370 JUMP JUMPDEST SWAP1 POP SWAP2 SWAP1 POP JUMP JUMPDEST PUSH1 0x0 PUSH1 0x20 DUP3 ADD SWAP1 POP DUP2 DUP2 SUB PUSH1 0x0 DUP4 ADD MSTORE PUSH2 0x1571 DUP2 PUSH2 0x1393 JUMP JUMPDEST SWAP1 POP SWAP2 SWAP1 POP JUMP JUMPDEST PUSH1 0x0 PUSH1 0x20 DUP3 ADD SWAP1 POP DUP2 DUP2 SUB PUSH1 0x0 DUP4 ADD MSTORE PUSH2 0x1591 DUP2 PUSH2 0x13B6 JUMP JUMPDEST SWAP1 POP SWAP2 SWAP1 POP JUMP JUMPDEST PUSH1 0x0 PUSH1 0x20 DUP3 ADD SWAP1 POP DUP2 DUP2 SUB PUSH1 0x0 DUP4 ADD MSTORE PUSH2 0x15B1 DUP2 PUSH2 0x13D9 JUMP JUMPDEST SWAP1 POP SWAP2 SWAP1 POP JUMP JUMPDEST PUSH1 0x0 PUSH1 0x20 DUP3 ADD SWAP1 POP DUP2 DUP2 SUB PUSH1 0x0 DUP4 ADD MSTORE PUSH2 0x15D1 DUP2 PUSH2 0x13FC JUMP JUMPDEST SWAP1 POP SWAP2 SWAP1 POP JUMP JUMPDEST PUSH1 0x0 PUSH1 0x20 DUP3 ADD SWAP1 POP DUP2 DUP2 SUB PUSH1 0x0 DUP4 ADD MSTORE PUSH2 0x15F1 DUP2 PUSH2 0x141F JUMP JUMPDEST SWAP1 POP SWAP2 SWAP1 POP JUMP JUMPDEST PUSH1 0x0 PUSH1 0x20 DUP3 ADD SWAP1 POP PUSH2 0x160D PUSH1 0x0 DUP4 ADD DUP5 PUSH2 0x1442 JUMP JUMPDEST SWAP3 SWAP2 POP POP JUMP JUMPDEST PUSH1 0x0 PUSH1 0x20 DUP3 ADD SWAP1 POP PUSH2 0x1628 PUSH1 0x0 DUP4 ADD DUP5 PUSH2 0x1451 JUMP JUMPDEST SWAP3 SWAP2 POP POP JUMP JUMPDEST PUSH1 0x0 DUP2 MLOAD SWAP1 POP SWAP2 SWAP1 POP JUMP JUMPDEST PUSH1 0x0 DUP3 DUP3 MSTORE PUSH1 0x20 DUP3 ADD SWAP1 POP SWAP3 SWAP2 POP POP JUMP JUMPDEST PUSH1 0x0 PUSH2 0x1655 DUP3 PUSH2 0x177B JUMP JUMPDEST SWAP2 POP PUSH2 0x1660 DUP4 PUSH2 0x177B JUMP JUMPDEST SWAP3 POP DUP3 PUSH32 0xFFFFFFFFFFFFFFFFFFFFFFFFFFFFFFFFFFFFFFFFFFFFFFFFFFFFFFFFFFFFFFFF SUB DUP3 GT ISZERO PUSH2 0x1695 JUMPI PUSH2 0x1694 PUSH2 0x17F7 JUMP JUMPDEST JUMPDEST DUP3 DUP3 ADD SWAP1 POP SWAP3 SWAP2 POP POP JUMP JUMPDEST PUSH1 0x0 PUSH2 0x16AB DUP3 PUSH2 0x177B JUMP JUMPDEST SWAP2 POP PUSH2 0x16B6 DUP4 PUSH2 0x177B JUMP JUMPDEST SWAP3 POP DUP3 PUSH2 0x16C6 JUMPI PUSH2 0x16C5 PUSH2 0x1826 JUMP JUMPDEST JUMPDEST DUP3 DUP3 DIV SWAP1 POP SWAP3 SWAP2 POP POP JUMP JUMPDEST PUSH1 0x0 PUSH2 0x16DC DUP3 PUSH2 0x177B JUMP JUMPDEST SWAP2 POP PUSH2 0x16E7 DUP4 PUSH2 0x177B JUMP JUMPDEST SWAP3 POP DUP2 PUSH32 0xFFFFFFFFFFFFFFFFFFFFFFFFFFFFFFFFFFFFFFFFFFFFFFFFFFFFFFFFFFFFFFFF DIV DUP4 GT DUP3 ISZERO ISZERO AND ISZERO PUSH2 0x1720 JUMPI PUSH2 0x171F PUSH2 0x17F7 JUMP JUMPDEST JUMPDEST DUP3 DUP3 MUL SWAP1 POP SWAP3 SWAP2 POP POP JUMP JUMPDEST PUSH1 0x0 PUSH2 0x1736 DUP3 PUSH2 0x175B JUMP JUMPDEST SWAP1 POP SWAP2 SWAP1 POP JUMP JUMPDEST PUSH1 0x0 PUSH2 0x1748 DUP3 PUSH2 0x175B JUMP JUMPDEST SWAP1 POP SWAP2 SWAP1 POP JUMP JUMPDEST PUSH1 0x0 DUP2 ISZERO ISZERO SWAP1 POP SWAP2 SWAP1 POP JUMP JUMPDEST PUSH1 0x0 PUSH20 0xFFFFFFFFFFFFFFFFFFFFFFFFFFFFFFFFFFFFFFFF DUP3 AND SWAP1 POP SWAP2 SWAP1 POP JUMP JUMPDEST PUSH1 0x0 DUP2 SWAP1 POP SWAP2 SWAP1 POP JUMP JUMPDEST PUSH1 0x0 PUSH1 0xFF DUP3 AND SWAP1 POP SWAP2 SWAP1 POP JUMP JUMPDEST PUSH1 0x0 JUMPDEST DUP4 DUP2 LT ISZERO PUSH2 0x17B0 JUMPI DUP1 DUP3 ADD MLOAD DUP2 DUP5 ADD MSTORE PUSH1 0x20 DUP2 ADD SWAP1 POP PUSH2 0x1795 JUMP JUMPDEST DUP4 DUP2 GT ISZERO PUSH2 0x17BF JUMPI PUSH1 0x0 DUP5 DUP5 ADD MSTORE JUMPDEST POP POP POP POP JUMP JUMPDEST PUSH1 0x0 PUSH1 0x2 DUP3 DIV SWAP1 POP PUSH1 0x1 DUP3 AND DUP1 PUSH2 0x17DD JUMPI PUSH1 0x7F DUP3 AND SWAP2 POP JUMPDEST PUSH1 0x20 DUP3 LT DUP2 EQ ISZERO PUSH2 0x17F1 JUMPI PUSH2 0x17F0 PUSH2 0x1855 JUMP JUMPDEST JUMPDEST POP SWAP2 SWAP1 POP JUMP JUMPDEST PUSH32 0x4E487B7100000000000000000000000000000000000000000000000000000000 PUSH1 0x0 MSTORE PUSH1 0x11 PUSH1 0x4 MSTORE PUSH1 0x24 PUSH1 0x0 REVERT JUMPDEST PUSH32 0x4E487B7100000000000000000000000000000000000000000000000000000000 PUSH1 0x0 MSTORE PUSH1 0x12 PUSH1 0x4 MSTORE PUSH1 0x24 PUSH1 0x0 REVERT JUMPDEST PUSH32 0x4E487B7100000000000000000000000000000000000000000000000000000000 PUSH1 0x0 MSTORE PUSH1 0x22 PUSH1 0x4 MSTORE PUSH1 0x24 PUSH1 0x0 REVERT JUMPDEST PUSH1 0x0 DUP1 REVERT JUMPDEST PUSH1 0x0 PUSH1 0x1F NOT PUSH1 0x1F DUP4 ADD AND SWAP1 POP SWAP2 SWAP1 POP JUMP JUMPDEST PUSH32 0x45524332303A207472616E7366657220746F20746865207A65726F2061646472 PUSH1 0x0 DUP3 ADD MSTORE PUSH32 0x6573730000000000000000000000000000000000000000000000000000000000 PUSH1 0x20 DUP3 ADD MSTORE POP JUMP JUMPDEST PUSH32 0x45524332303A206275726E20616D6F756E7420657863656564732062616C616E PUSH1 0x0 DUP3 ADD MSTORE PUSH32 0x6365000000000000000000000000000000000000000000000000000000000000 PUSH1 0x20 DUP3 ADD MSTORE POP JUMP JUMPDEST PUSH32 0x45524332303A20617070726F766520746F20746865207A65726F206164647265 PUSH1 0x0 DUP3 ADD MSTORE PUSH32 0x7373000000000000000000000000000000000000000000000000000000000000 PUSH1 0x20 DUP3 ADD MSTORE POP JUMP JUMPDEST PUSH32 0x45524332303A20696E73756666696369656E7420616C6C6F77616E6365000000 PUSH1 0x0 DUP3 ADD MSTORE POP JUMP JUMPDEST PUSH32 0x45524332303A207472616E7366657220616D6F756E7420657863656564732062 PUSH1 0x0 DUP3 ADD MSTORE PUSH32 0x616C616E63650000000000000000000000000000000000000000000000000000 PUSH1 0x20 DUP3 ADD MSTORE POP JUMP JUMPDEST PUSH32 0x45524332303A206275726E2066726F6D20746865207A65726F20616464726573 PUSH1 0x0 DUP3 ADD MSTORE PUSH32 0x7300000000000000000000000000000000000000000000000000000000000000 PUSH1 0x20 DUP3 ADD MSTORE POP JUMP JUMPDEST PUSH32 0x45524332303A207472616E736665722066726F6D20746865207A65726F206164 PUSH1 0x0 DUP3 ADD MSTORE PUSH32 0x6472657373000000000000000000000000000000000000000000000000000000 PUSH1 0x20 DUP3 ADD MSTORE POP JUMP JUMPDEST PUSH32 0x45524332303A20617070726F76652066726F6D20746865207A65726F20616464 PUSH1 0x0 DUP3 ADD MSTORE PUSH32 0x7265737300000000000000000000000000000000000000000000000000000000 PUSH1 0x20 DUP3 ADD MSTORE POP JUMP JUMPDEST PUSH32 0x45524332303A2064656372656173656420616C6C6F77616E63652062656C6F77 PUSH1 0x0 DUP3 ADD MSTORE PUSH32 0x207A65726F000000000000000000000000000000000000000000000000000000 PUSH1 0x20 DUP3 ADD MSTORE POP JUMP JUMPDEST PUSH32 0x45524332303A206D696E7420746F20746865207A65726F206164647265737300 PUSH1 0x0 DUP3 ADD MSTORE POP JUMP JUMPDEST PUSH2 0x1B6D DUP2 PUSH2 0x172B JUMP JUMPDEST DUP2 EQ PUSH2 0x1B78 JUMPI PUSH1 0x0 DUP1 REVERT JUMPDEST POP JUMP JUMPDEST PUSH2 0x1B84 DUP2 PUSH2 0x177B JUMP JUMPDEST DUP2 EQ PUSH2 0x1B8F JUMPI PUSH1 0x0 DUP1 REVERT JUMPDEST POP JUMP INVALID LOG2 PUSH5 0x6970667358 0x22 SLT KECCAK256 DIV PUSH1 0x6F MUL CREATE2 GASPRICE DELEGATECALL 0xF PUSH18 0x5B422A60408C6D95D23BB73576E761DC041C SWAP14 0xE8 DIFFICULTY PUSH1 0xDE PUSH5 0x736F6C6343 STOP ADDMOD SMOD STOP CALLER "
				},
				"gasEstimates": {
					"creation": {
						"codeDepositCost": "1422400",
						"executionCost": "infinite",
						"totalCost": "infinite"
					},
					"external": {
						"allowance(address,address)": "infinite",
						"approve(address,uint256)": "infinite",
						"balanceOf(address)": "2908",
						"cashOut(uint256)": "infinite",
						"decimals()": "388",
						"decreaseAllowance(address,uint256)": "infinite",
						"deployingAddress()": "2604",
						"increaseAllowance(address,uint256)": "infinite",
						"increaseBalance(address,uint256)": "infinite",
						"name()": "infinite",
						"portion(uint256)": "infinite",
						"pot()": "428",
						"symbol()": "infinite",
						"totalSupply()": "2505",
						"transfer(address,uint256)": "infinite",
						"transferFrom(address,address,uint256)": "infinite"
					}
				},
				"methodIdentifiers": {
					"allowance(address,address)": "dd62ed3e",
					"approve(address,uint256)": "095ea7b3",
					"balanceOf(address)": "70a08231",
					"cashOut(uint256)": "5c7b79f5",
					"decimals()": "313ce567",
					"decreaseAllowance(address,uint256)": "a457c2d7",
					"deployingAddress()": "21dd501b",
					"increaseAllowance(address,uint256)": "39509351",
					"increaseBalance(address,uint256)": "5b86f599",
					"name()": "06fdde03",
					"portion(uint256)": "a579a914",
					"pot()": "4ba2363a",
					"symbol()": "95d89b41",
					"totalSupply()": "18160ddd",
					"transfer(address,uint256)": "a9059cbb",
					"transferFrom(address,address,uint256)": "23b872dd"
				}
			},
			"storageLayout": {
				"storage": [
					{
						"astId": 15,
						"contract": "contracts/SavvatoERC20.sol:SavvatoERC20",
						"label": "_balances",
						"offset": 0,
						"slot": "0",
						"type": "t_mapping(t_address,t_uint256)"
					},
					{
						"astId": 21,
						"contract": "contracts/SavvatoERC20.sol:SavvatoERC20",
						"label": "_allowances",
						"offset": 0,
						"slot": "1",
						"type": "t_mapping(t_address,t_mapping(t_address,t_uint256))"
					},
					{
						"astId": 23,
						"contract": "contracts/SavvatoERC20.sol:SavvatoERC20",
						"label": "_totalSupply",
						"offset": 0,
						"slot": "2",
						"type": "t_uint256"
					},
					{
						"astId": 25,
						"contract": "contracts/SavvatoERC20.sol:SavvatoERC20",
						"label": "_name",
						"offset": 0,
						"slot": "3",
						"type": "t_string_storage"
					},
					{
						"astId": 27,
						"contract": "contracts/SavvatoERC20.sol:SavvatoERC20",
						"label": "_symbol",
						"offset": 0,
						"slot": "4",
						"type": "t_string_storage"
					},
					{
						"astId": 719,
						"contract": "contracts/SavvatoERC20.sol:SavvatoERC20",
						"label": "deployingAddress",
						"offset": 0,
						"slot": "5",
						"type": "t_address_payable"
					}
				],
				"types": {
					"t_address": {
						"encoding": "inplace",
						"label": "address",
						"numberOfBytes": "20"
					},
					"t_address_payable": {
						"encoding": "inplace",
						"label": "address payable",
						"numberOfBytes": "20"
					},
					"t_mapping(t_address,t_mapping(t_address,t_uint256))": {
						"encoding": "mapping",
						"key": "t_address",
						"label": "mapping(address => mapping(address => uint256))",
						"numberOfBytes": "32",
						"value": "t_mapping(t_address,t_uint256)"
					},
					"t_mapping(t_address,t_uint256)": {
						"encoding": "mapping",
						"key": "t_address",
						"label": "mapping(address => uint256)",
						"numberOfBytes": "32",
						"value": "t_uint256"
					},
					"t_string_storage": {
						"encoding": "bytes",
						"label": "string",
						"numberOfBytes": "32"
					},
					"t_uint256": {
						"encoding": "inplace",
						"label": "uint256",
						"numberOfBytes": "32"
					}
				}
			},
			"userdoc": {
				"kind": "user",
				"methods": {},
				"version": 1
			}
		}
	}
}